{
  "_format": "hh-sol-artifact-1",
  "contractName": "L1BuildAgent",
  "sourceName": "contracts/oasys/L1/build/L1BuildAgent.sol",
  "abi": [
    {
      "inputs": [
        {
          "internalType": "address",
          "name": "_paramAddress",
          "type": "address"
        },
        {
          "internalType": "address",
          "name": "_depositAddress",
          "type": "address"
        },
        {
          "internalType": "address",
          "name": "_step1Address",
          "type": "address"
        },
        {
          "internalType": "address",
          "name": "_step2Address",
          "type": "address"
        },
        {
          "internalType": "address",
          "name": "_step3Address",
          "type": "address"
        },
        {
          "internalType": "address",
          "name": "_step4Address",
          "type": "address"
        }
      ],
      "stateMutability": "nonpayable",
      "type": "constructor"
    },
    {
      "anonymous": false,
      "inputs": [
        {
          "indexed": true,
          "internalType": "address",
          "name": "builder",
          "type": "address"
        },
        {
          "indexed": true,
          "internalType": "uint256",
          "name": "chainId",
          "type": "uint256"
        }
      ],
      "name": "Build",
      "type": "event"
    },
    {
      "inputs": [
        {
          "internalType": "uint256",
          "name": "_chainId",
          "type": "uint256"
        },
        {
          "internalType": "address",
          "name": "_sequencer",
          "type": "address"
        },
        {
          "internalType": "address",
          "name": "_proposer",
          "type": "address"
        }
      ],
      "name": "build",
      "outputs": [],
      "stateMutability": "nonpayable",
      "type": "function"
    },
    {
      "inputs": [],
      "name": "depositAddress",
      "outputs": [
        {
          "internalType": "address",
          "name": "",
          "type": "address"
        }
      ],
      "stateMutability": "view",
      "type": "function"
    },
    {
      "inputs": [
        {
          "internalType": "uint256",
          "name": "_chainId",
          "type": "uint256"
        }
      ],
      "name": "getAddressManager",
      "outputs": [
        {
          "internalType": "address",
          "name": "",
          "type": "address"
        }
      ],
      "stateMutability": "view",
      "type": "function"
    },
    {
      "inputs": [
        {
          "internalType": "uint256",
          "name": "cursor",
          "type": "uint256"
        },
        {
          "internalType": "uint256",
          "name": "howMany",
          "type": "uint256"
        }
      ],
      "name": "getBuilts",
      "outputs": [
        {
          "internalType": "address[]",
          "name": "",
          "type": "address[]"
        },
        {
          "internalType": "uint256[]",
          "name": "",
          "type": "uint256[]"
        },
        {
          "internalType": "uint256",
          "name": "",
          "type": "uint256"
        }
      ],
      "stateMutability": "view",
      "type": "function"
    },
    {
      "inputs": [
        {
          "internalType": "uint256",
          "name": "_chainId",
          "type": "uint256"
        },
        {
          "internalType": "string",
          "name": "_name",
          "type": "string"
        }
      ],
      "name": "getNamedAddress",
      "outputs": [
        {
          "internalType": "address",
          "name": "",
          "type": "address"
        }
      ],
      "stateMutability": "view",
      "type": "function"
    },
    {
      "inputs": [
        {
          "internalType": "uint256",
          "name": "_chainId",
          "type": "uint256"
        }
      ],
      "name": "getNamedAddresses",
      "outputs": [
        {
          "internalType": "string[]",
          "name": "",
          "type": "string[]"
        },
        {
          "internalType": "address[]",
          "name": "",
          "type": "address[]"
        }
      ],
      "stateMutability": "view",
      "type": "function"
    },
    {
      "inputs": [
        {
          "internalType": "uint256",
          "name": "_chainId",
          "type": "uint256"
        },
        {
          "internalType": "address",
          "name": "_addressManager",
          "type": "address"
        },
        {
          "internalType": "address",
          "name": "_sequencer",
          "type": "address"
        },
        {
          "internalType": "address",
          "name": "_proposer",
          "type": "address"
        },
        {
          "internalType": "address",
          "name": "_canonicalTransactionChain",
          "type": "address"
        },
        {
          "internalType": "address",
          "name": "_ctcBatches",
          "type": "address"
        }
      ],
      "name": "setStep1Addresses",
      "outputs": [],
      "stateMutability": "nonpayable",
      "type": "function"
    },
    {
      "inputs": [
        {
          "internalType": "uint256",
          "name": "_chainId",
          "type": "uint256"
        },
        {
          "internalType": "address",
          "name": "_stateCommitmentChain",
          "type": "address"
        },
        {
          "internalType": "address",
          "name": "_sccBatches",
          "type": "address"
        },
        {
          "internalType": "address",
          "name": "_bondManager",
          "type": "address"
        }
      ],
      "name": "setStep2Addresses",
      "outputs": [],
      "stateMutability": "nonpayable",
      "type": "function"
    },
    {
      "inputs": [
        {
          "internalType": "uint256",
          "name": "_chainId",
          "type": "uint256"
        },
        {
          "internalType": "address",
          "name": "_l1CrossDomainMessenger",
          "type": "address"
        },
        {
          "internalType": "address",
          "name": "_l1CrossDomainMessengerProxy",
          "type": "address"
        },
        {
          "internalType": "address",
          "name": "_l1StandardBridgeProxy",
          "type": "address"
        },
        {
          "internalType": "address",
          "name": "_l1ERC721BridgeProxy",
          "type": "address"
        }
      ],
      "name": "setStep3Addresses",
      "outputs": [],
      "stateMutability": "nonpayable",
      "type": "function"
    },
    {
      "inputs": [],
      "name": "step1Address",
      "outputs": [
        {
          "internalType": "address",
          "name": "",
          "type": "address"
        }
      ],
      "stateMutability": "view",
      "type": "function"
    },
    {
      "inputs": [],
      "name": "step2Address",
      "outputs": [
        {
          "internalType": "address",
          "name": "",
          "type": "address"
        }
      ],
      "stateMutability": "view",
      "type": "function"
    },
    {
      "inputs": [],
      "name": "step3Address",
      "outputs": [
        {
          "internalType": "address",
          "name": "",
          "type": "address"
        }
      ],
      "stateMutability": "view",
      "type": "function"
    },
    {
      "inputs": [],
      "name": "step4Address",
      "outputs": [
        {
          "internalType": "address",
          "name": "",
          "type": "address"
        }
      ],
      "stateMutability": "view",
      "type": "function"
    }
  ],
  "bytecode": "0x60806040523480156200001157600080fd5b5060405162001abd38038062001abd833981016040819052620000349162000299565b600080546001600160a01b03199081166001600160a01b038881169182179093556001805483168885161790556002805483168785161790556003805483168685161790556004805490921692841692909217815560405163189acdbd60e31b8152309181019190915263c4d66de890602401600060405180830381600087803b158015620000c257600080fd5b505af1158015620000d7573d6000803e3d6000fd5b505060015460405163485cc95560e01b81523060048201526001600160a01b038a81166024830152909116925063485cc9559150604401600060405180830381600087803b1580156200012957600080fd5b505af11580156200013e573d6000803e3d6000fd5b505060025460405163485cc95560e01b81523060048201526001600160a01b038a81166024830152909116925063485cc9559150604401600060405180830381600087803b1580156200019057600080fd5b505af1158015620001a5573d6000803e3d6000fd5b505060035460405163189acdbd60e31b81523060048201526001600160a01b03909116925063c4d66de89150602401600060405180830381600087803b158015620001ef57600080fd5b505af115801562000204573d6000803e3d6000fd5b50506004805460405163485cc95560e01b815230928101929092526001600160a01b038a8116602484015216925063485cc9559150604401600060405180830381600087803b1580156200025757600080fd5b505af11580156200026c573d6000803e3d6000fd5b505050505050505050506200031a565b80516001600160a01b03811681146200029457600080fd5b919050565b60008060008060008060c08789031215620002b357600080fd5b620002be876200027c565b9550620002ce602088016200027c565b9450620002de604088016200027c565b9350620002ee606088016200027c565b9250620002fe608088016200027c565b91506200030e60a088016200027c565b90509295509295509295565b611793806200032a6000396000f3fe608060405234801561001057600080fd5b50600436106100df5760003560e01c806365c11a6c1161008c5780639f05c9ea116100665780639f05c9ea14610222578063a708ca6b14610242578063b61f370e14610255578063c86fc4c91461027557600080fd5b806365c11a6c146101cf57806366ed9d1b146101ef57806385c89dad1461020f57600080fd5b8063408d2693116100bd578063408d2693146101565780634dbbce2a1461018c57806364f57cb3146101ad57600080fd5b80630d5242f7146100e45780631ee5c97d1461012157806328f833b714610136575b600080fd5b6100f76100f23660046110e0565b610288565b60405173ffffffffffffffffffffffffffffffffffffffff90911681526020015b60405180910390f35b61013461012f3660046111e2565b6103b3565b005b6000546100f79073ffffffffffffffffffffffffffffffffffffffff1681565b6100f761016436600461121e565b60009081526005602052604090205473ffffffffffffffffffffffffffffffffffffffff1690565b61019f61019a36600461121e565b6107ce565b604051610118929190611288565b6101c06101bb366004611373565b61092b565b60405161011893929190611395565b6004546100f79073ffffffffffffffffffffffffffffffffffffffff1681565b6003546100f79073ffffffffffffffffffffffffffffffffffffffff1681565b61013461021d3660046113f5565b610add565b6001546100f79073ffffffffffffffffffffffffffffffffffffffff1681565b610134610250366004611453565b610c9c565b6002546100f79073ffffffffffffffffffffffffffffffffffffffff1681565b6101346102833660046114a0565b610dc6565b805160208083019190912060008481526006909252604082208054835b8181101561034557838382815481106102c0576102c061150d565b906000526020600020016040516102d79190611590565b604051809103902014156103335760008781526007602052604090208054829081106103055761030561150d565b60009182526020909120015473ffffffffffffffffffffffffffffffffffffffff1694506103ad9350505050565b8061033d81611692565b9150506102a5565b506040517f08c379a000000000000000000000000000000000000000000000000000000000815260206004820152600960248201527f6e6f7420666f756e64000000000000000000000000000000000000000000000060448201526064015b60405180910390fd5b92915050565b60008381526005602052604090205473ffffffffffffffffffffffffffffffffffffffff161561043f576040517f08c379a000000000000000000000000000000000000000000000000000000000815260206004820152600d60248201527f616c7265616479206275696c740000000000000000000000000000000000000060448201526064016103a4565b6000546040517ff3701da200000000000000000000000000000000000000000000000000000000815233600482018190529173ffffffffffffffffffffffffffffffffffffffff169063f3701da290602401600060405180830381600087803b1580156104ab57600080fd5b505af11580156104bf573d6000803e3d6000fd5b50506001546040517f1ee5c97d0000000000000000000000000000000000000000000000000000000081526004810188905273ffffffffffffffffffffffffffffffffffffffff878116602483015286811660448301529091169250631ee5c97d9150606401600060405180830381600087803b15801561053f57600080fd5b505af1158015610553573d6000803e3d6000fd5b50506002546040517f7ef7cca20000000000000000000000000000000000000000000000000000000081526004810188905273ffffffffffffffffffffffffffffffffffffffff85811660248301529091169250637ef7cca29150604401600060405180830381600087803b1580156105cb57600080fd5b505af11580156105df573d6000803e3d6000fd5b50506003546040517f7ef7cca20000000000000000000000000000000000000000000000000000000081526004810188905273ffffffffffffffffffffffffffffffffffffffff85811660248301529091169250637ef7cca29150604401600060405180830381600087803b15801561065757600080fd5b505af115801561066b573d6000803e3d6000fd5b5050600480546040517f7ef7cca200000000000000000000000000000000000000000000000000000000815291820188905273ffffffffffffffffffffffffffffffffffffffff8581166024840152169250637ef7cca29150604401600060405180830381600087803b1580156106e157600080fd5b505af11580156106f5573d6000803e3d6000fd5b50506008805460018082019092557ff3f7a9fe364faab93b216da50a3214154f22a0a2b415b23a84c8169e8b636ee30180547fffffffffffffffffffffffff00000000000000000000000000000000000000001673ffffffffffffffffffffffffffffffffffffffff861690811790915560098054928301815560009081527f6e1540171b6c0c960b71a7020d9f60077f6af931a8bbf590da0223dacf75c7af9092018890556040518894509092507fd8406a18b0c7572d0adae5f0a479d5d802035e2c506e9353b092d25997f61a629190a350505050565b60008181526006602090815260408083206007835281842081548351818602810186019094528084526060958695939492938592919084015b828210156108b35783829060005260206000200180546108269061153c565b80601f01602080910402602001604051908101604052809291908181526020018280546108529061153c565b801561089f5780601f106108745761010080835404028352916020019161089f565b820191906000526020600020905b81548152906001019060200180831161088257829003601f168201915b505050505081526020019060010190610807565b5050505091508080548060200260200160405190810160405280929190818152602001828054801561091b57602002820191906000526020600020905b815473ffffffffffffffffffffffffffffffffffffffff1681526001909101906020018083116108f0575b5050505050905091509150915091565b60085460609081906000908061094186886116cb565b106109535761095086826116e3565b94505b60008567ffffffffffffffff81111561096e5761096e6110b1565b604051908082528060200260200182016040528015610997578160200160208202803683370190505b50905060008667ffffffffffffffff8111156109b5576109b56110b1565b6040519080825280602002602001820160405280156109de578160200160208202803683370190505b50905060005b87811015610ac05760086109f8828b6116cb565b81548110610a0857610a0861150d565b9060005260206000200160009054906101000a900473ffffffffffffffffffffffffffffffffffffffff16838281518110610a4557610a4561150d565b73ffffffffffffffffffffffffffffffffffffffff909216602092830291909101909101526009610a76828b6116cb565b81548110610a8657610a8661150d565b9060005260206000200154828281518110610aa357610aa361150d565b602090810291909101015280610ab881611692565b9150506109e4565b508181610acd898b6116cb565b9550955095505050509250925092565b60035473ffffffffffffffffffffffffffffffffffffffff163314610b5e576040517f08c379a000000000000000000000000000000000000000000000000000000000815260206004820152601e60248201527f6f6e6c7920746865204c314275696c6453746570332063616e2063616c6c000060448201526064016103a4565b610b9e856040518060400160405280601a81526020017f4f564d5f4c3143726f7373446f6d61696e4d657373656e67657200000000000081525086610f7f565b610bc18560405180606001604052806021815260200161171c6021913985610f7f565b610c01856040518060400160405280601b81526020017f50726f78795f5f4f564d5f4c315374616e64617264427269646765000000000081525084610f7f565b610c41856040518060400160405280601981526020017f50726f78795f5f4f564d5f4c314552433732314272696467650000000000000081525083610f7f565b610c95856040518060400160405280601681526020017f4c3243726f7373446f6d61696e4d657373656e67657200000000000000000000815250734200000000000000000000000000000000000007610f7f565b5050505050565b60025473ffffffffffffffffffffffffffffffffffffffff163314610d1d576040517f08c379a000000000000000000000000000000000000000000000000000000000815260206004820152601e60248201527f6f6e6c7920746865204c314275696c6453746570322063616e2063616c6c000060448201526064016103a4565b610d5d846040518060400160405280601481526020017f5374617465436f6d6d69746d656e74436861696e00000000000000000000000081525085610f7f565b610d80846040518060600160405280602181526020016116fb6021913984610f7f565b610dc0846040518060400160405280600b81526020017f426f6e644d616e6167657200000000000000000000000000000000000000000081525083610f7f565b50505050565b60015473ffffffffffffffffffffffffffffffffffffffff163314610e47576040517f08c379a000000000000000000000000000000000000000000000000000000000815260206004820152601e60248201527f6f6e6c7920746865204c314275696c6453746570312063616e2063616c6c000060448201526064016103a4565b60008681526005602090815260409182902080547fffffffffffffffffffffffff00000000000000000000000000000000000000001673ffffffffffffffffffffffffffffffffffffffff89161790558151808301909252600d82527f4f564d5f53657175656e6365720000000000000000000000000000000000000090820152610ed490879086610f7f565b610f14866040518060400160405280600c81526020017f4f564d5f50726f706f736572000000000000000000000000000000000000000081525085610f7f565b610f54866040518060400160405280601981526020017f43616e6f6e6963616c5472616e73616374696f6e436861696e0000000000000081525084610f7f565b610f778660405180606001604052806021815260200161173d6021913983610f7f565b505050505050565b600083815260066020908152604082208054600181018255908352918190208451610fb1939190910191850190611018565b50600092835260076020908152604084208054600181018255908552932090920180547fffffffffffffffffffffffff00000000000000000000000000000000000000001673ffffffffffffffffffffffffffffffffffffffff9093169290921790915550565b8280546110249061153c565b90600052602060002090601f016020900481019282611046576000855561108c565b82601f1061105f57805160ff191683800117855561108c565b8280016001018555821561108c579182015b8281111561108c578251825591602001919060010190611071565b5061109892915061109c565b5090565b5b80821115611098576000815560010161109d565b7f4e487b7100000000000000000000000000000000000000000000000000000000600052604160045260246000fd5b600080604083850312156110f357600080fd5b82359150602083013567ffffffffffffffff8082111561111257600080fd5b818501915085601f83011261112657600080fd5b813581811115611138576111386110b1565b604051601f82017fffffffffffffffffffffffffffffffffffffffffffffffffffffffffffffffe0908116603f0116810190838211818310171561117e5761117e6110b1565b8160405282815288602084870101111561119757600080fd5b8260208601602083013760006020848301015280955050505050509250929050565b803573ffffffffffffffffffffffffffffffffffffffff811681146111dd57600080fd5b919050565b6000806000606084860312156111f757600080fd5b83359250611207602085016111b9565b9150611215604085016111b9565b90509250925092565b60006020828403121561123057600080fd5b5035919050565b600081518084526020808501945080840160005b8381101561127d57815173ffffffffffffffffffffffffffffffffffffffff168752958201959082019060010161124b565b509495945050505050565b6000604082016040835280855180835260608501915060608160051b860101925060208088016000805b84811015611353577fffffffffffffffffffffffffffffffffffffffffffffffffffffffffffffffa089880301865282518051808952835b81811015611305578281018701518a820188015286016112ea565b81811115611315578487838c0101525b50601f017fffffffffffffffffffffffffffffffffffffffffffffffffffffffffffffffe016979097018401965094830194918301916001016112b2565b5050508584038187015250505061136a8185611237565b95945050505050565b6000806040838503121561138657600080fd5b50508035926020909101359150565b6060815260006113a86060830186611237565b82810360208481019190915285518083528682019282019060005b818110156113df578451835293830193918301916001016113c3565b5050809350505050826040830152949350505050565b600080600080600060a0868803121561140d57600080fd5b8535945061141d602087016111b9565b935061142b604087016111b9565b9250611439606087016111b9565b9150611447608087016111b9565b90509295509295909350565b6000806000806080858703121561146957600080fd5b84359350611479602086016111b9565b9250611487604086016111b9565b9150611495606086016111b9565b905092959194509250565b60008060008060008060c087890312156114b957600080fd5b863595506114c9602088016111b9565b94506114d7604088016111b9565b93506114e5606088016111b9565b92506114f3608088016111b9565b915061150160a088016111b9565b90509295509295509295565b7f4e487b7100000000000000000000000000000000000000000000000000000000600052603260045260246000fd5b600181811c9082168061155057607f821691505b6020821081141561158a577f4e487b7100000000000000000000000000000000000000000000000000000000600052602260045260246000fd5b50919050565b600080835481600182811c9150808316806115ac57607f831692505b60208084108214156115e5577f4e487b710000000000000000000000000000000000000000000000000000000086526022600452602486fd5b8180156115f9576001811461162857611655565b7fffffffffffffffffffffffffffffffffffffffffffffffffffffffffffffff00861689528489019650611655565b60008a81526020902060005b8681101561164d5781548b820152908501908301611634565b505084890196505b509498975050505050505050565b7f4e487b7100000000000000000000000000000000000000000000000000000000600052601160045260246000fd5b60007fffffffffffffffffffffffffffffffffffffffffffffffffffffffffffffffff8214156116c4576116c4611663565b5060010190565b600082198211156116de576116de611663565b500190565b6000828210156116f5576116f5611663565b50039056fe436861696e53746f72616765436f6e7461696e65722d5343432d6261746368657350726f78795f5f4f564d5f4c3143726f7373446f6d61696e4d657373656e676572436861696e53746f72616765436f6e7461696e65722d4354432d62617463686573a2646970667358221220c70f07fcb4927676b1a2cfebe530cc3e52ee51485f36a55a2a0c016a958a4cfe64736f6c63430008090033",
  "linkReferences": {},
  "deployedLinkReferences": {}
}