{
  "_format": "hh-sol-artifact-1",
  "contractName": "L1StandardERC20Factory",
  "sourceName": "contracts/oasys/L1/token/L1StandardERC20Factory.sol",
  "abi": [
    {
      "anonymous": false,
      "inputs": [
        {
          "indexed": true,
          "internalType": "string",
          "name": "_symbol",
          "type": "string"
        },
        {
          "indexed": true,
          "internalType": "address",
          "name": "_address",
          "type": "address"
        }
      ],
      "name": "ERC20Created",
      "type": "event"
    },
    {
      "inputs": [
        {
          "internalType": "string",
          "name": "_name",
          "type": "string"
        },
        {
          "internalType": "string",
          "name": "_symbol",
          "type": "string"
        }
      ],
      "name": "createStandardERC20",
      "outputs": [],
      "stateMutability": "nonpayable",
      "type": "function"
    }
  ],
  "bytecode": "0x608060405234801561001057600080fd5b50612d6c806100206000396000f3fe608060405234801561001057600080fd5b506004361061002b5760003560e01c80630b6ec17814610030575b600080fd5b61004361003e3660046101c2565b610045565b005b6000338383604051610056906100db565b610062939291906102a0565b604051809103906000f08015801561007e573d6000803e3d6000fd5b5090508073ffffffffffffffffffffffffffffffffffffffff16826040516100a691906102eb565b604051908190038120907fd714a43f627528ad95fc3dcf6c453cf595be2f4d75c58c4273f17208ed899f4490600090a3505050565b612a2f8061030883390190565b7f4e487b7100000000000000000000000000000000000000000000000000000000600052604160045260246000fd5b600082601f83011261012857600080fd5b813567ffffffffffffffff80821115610143576101436100e8565b604051601f83017fffffffffffffffffffffffffffffffffffffffffffffffffffffffffffffffe0908116603f01168101908282118183101715610189576101896100e8565b816040528381528660208588010111156101a257600080fd5b836020870160208301376000602085830101528094505050505092915050565b600080604083850312156101d557600080fd5b823567ffffffffffffffff808211156101ed57600080fd5b6101f986838701610117565b9350602085013591508082111561020f57600080fd5b5061021c85828601610117565b9150509250929050565b60005b83811015610241578181015183820152602001610229565b83811115610250576000848401525b50505050565b6000815180845261026e816020860160208601610226565b601f017fffffffffffffffffffffffffffffffffffffffffffffffffffffffffffffffe0169290920160200192915050565b73ffffffffffffffffffffffffffffffffffffffff841681526060602082015260006102cf6060830185610256565b82810360408401526102e18185610256565b9695505050505050565b600082516102fd818460208701610226565b919091019291505056fe60806040523480156200001157600080fd5b5060405162002a2f38038062002a2f8339810160408190526200003491620003b6565b8151829082906200004d90600590602085019062000243565b5080516200006390600690602084019062000243565b50506007805460ff19169055506200007d600084620000de565b620000a97f9f2df0fed2c77648de5860a4cc508cd0818c85b8b8a1ab4ceeef8d981c8956a684620000de565b620000d57f65d7a28e3265b37a6474929f336521b332c1681b933f6cb9f3376673440d862a84620000de565b5050506200047d565b620000f582826200012160201b62000e541760201c565b60008281526001602090815260409091206200011c91839062000e5e62000131821b17901c565b505050565b6200012d828262000151565b5050565b600062000148836001600160a01b038416620001f1565b90505b92915050565b6000828152602081815260408083206001600160a01b038516845290915290205460ff166200012d576000828152602081815260408083206001600160a01b03851684529091529020805460ff19166001179055620001ad3390565b6001600160a01b0316816001600160a01b0316837f2f8788117e7eff1d82e926ec794901d17c78024a50270940304540a733656f0d60405160405180910390a45050565b60008181526001830160205260408120546200023a575081546001818101845560008481526020808220909301849055845484825282860190935260409020919091556200014b565b5060006200014b565b828054620002519062000440565b90600052602060002090601f016020900481019282620002755760008555620002c0565b82601f106200029057805160ff1916838001178555620002c0565b82800160010185558215620002c0579182015b82811115620002c0578251825591602001919060010190620002a3565b50620002ce929150620002d2565b5090565b5b80821115620002ce5760008155600101620002d3565b634e487b7160e01b600052604160045260246000fd5b600082601f8301126200031157600080fd5b81516001600160401b03808211156200032e576200032e620002e9565b604051601f8301601f19908116603f01168101908282118183101715620003595762000359620002e9565b816040528381526020925086838588010111156200037657600080fd5b600091505b838210156200039a57858201830151818301840152908201906200037b565b83821115620003ac5760008385830101525b9695505050505050565b600080600060608486031215620003cc57600080fd5b83516001600160a01b0381168114620003e457600080fd5b60208501519093506001600160401b03808211156200040257600080fd5b6200041087838801620002ff565b935060408601519150808211156200042757600080fd5b506200043686828701620002ff565b9150509250925092565b600181811c908216806200045557607f821691505b602082108114156200047757634e487b7160e01b600052602260045260246000fd5b50919050565b6125a2806200048d6000396000f3fe608060405234801561001057600080fd5b50600436106101e55760003560e01c806379cc67901161010f578063ca15c873116100a2578063e467f7e011610071578063e467f7e01461049b578063e63ab1e9146104ae578063f94a138b146104d5578063ffc3a769146104e857600080fd5b8063ca15c87314610408578063d53913931461041b578063d547741f14610442578063dd62ed3e1461045557600080fd5b806395d89b41116100de57806395d89b41146103d2578063a217fddf146103da578063a457c2d7146103e2578063a9059cbb146103f557600080fd5b806379cc67901461033b5780638456cb591461034e5780639010d07c1461035657806391d148541461038e57600080fd5b8063313ce5671161018757806340c10f191161015657806340c10f19146102d457806342966c68146102e75780635c975abb146102fa57806370a082311461030557600080fd5b8063313ce5671461029757806336568abe146102a657806339509351146102b95780633f4ba83a146102cc57600080fd5b806318160ddd116101c357806318160ddd1461023a57806323b872dd1461024c578063248a9ca31461025f5780632f2ff15d1461028257600080fd5b806301ffc9a7146101ea57806306fdde0314610212578063095ea7b314610227575b600080fd5b6101fd6101f8366004611edb565b6104fb565b60405190151581526020015b60405180910390f35b61021a610557565b6040516102099190611f49565b6101fd610235366004611fc3565b6105e9565b6004545b604051908152602001610209565b6101fd61025a366004611fed565b6105ff565b61023e61026d366004612029565b60009081526020819052604090206001015490565b610295610290366004612042565b6106d0565b005b60405160128152602001610209565b6102956102b4366004612042565b6106f7565b6101fd6102c7366004611fc3565b610719565b610295610762565b6102956102e2366004611fc3565b610808565b6102956102f5366004612029565b6108b2565b60075460ff166101fd565b61023e61031336600461206e565b73ffffffffffffffffffffffffffffffffffffffff1660009081526002602052604090205490565b610295610349366004611fc3565b6108bf565b610295610959565b610369610364366004612089565b6109fd565b60405173ffffffffffffffffffffffffffffffffffffffff9091168152602001610209565b6101fd61039c366004612042565b60009182526020828152604080842073ffffffffffffffffffffffffffffffffffffffff93909316845291905290205460ff1690565b61021a610a1c565b61023e600081565b6101fd6103f0366004611fc3565b610a2b565b6101fd610403366004611fc3565b610ae9565b61023e610416366004612029565b610af6565b61023e7f9f2df0fed2c77648de5860a4cc508cd0818c85b8b8a1ab4ceeef8d981c8956a681565b610295610450366004612042565b610b0d565b61023e6104633660046120ab565b73ffffffffffffffffffffffffffffffffffffffff918216600090815260036020908152604080832093909416825291909152205490565b6102956104a9366004612244565b610b17565b61023e7f65d7a28e3265b37a6474929f336521b332c1681b933f6cb9f3376673440d862a81565b6101fd6104e33660046122a8565b610c84565b6101fd6104f6366004612244565b610d7f565b60007fffffffff0000000000000000000000000000000000000000000000000000000082167f5a05180f000000000000000000000000000000000000000000000000000000001480610551575061055182610e80565b92915050565b60606005805461056690612330565b80601f016020809104026020016040519081016040528092919081815260200182805461059290612330565b80156105df5780601f106105b4576101008083540402835291602001916105df565b820191906000526020600020905b8154815290600101906020018083116105c257829003601f168201915b5050505050905090565b60006105f6338484610f17565b50600192915050565b600061060c848484611096565b73ffffffffffffffffffffffffffffffffffffffff84166000908152600360209081526040808320338452909152902054828110156106b85760405162461bcd60e51b815260206004820152602860248201527f45524332303a207472616e7366657220616d6f756e742065786365656473206160448201527f6c6c6f77616e636500000000000000000000000000000000000000000000000060648201526084015b60405180910390fd5b6106c58533858403610f17565b506001949350505050565b6106da8282611308565b60008281526001602052604090206106f29082610e5e565b505050565b610701828261132e565b60008281526001602052604090206106f290826113c3565b33600081815260036020908152604080832073ffffffffffffffffffffffffffffffffffffffff8716845290915281205490916105f691859061075d9086906123b3565b610f17565b61078c7f65d7a28e3265b37a6474929f336521b332c1681b933f6cb9f3376673440d862a3361039c565b6107fe5760405162461bcd60e51b815260206004820152603160248201527f4c315374616e6461726445524332303a206d757374206861766520706175736560448201527f7220726f6c6520746f20756e706175736500000000000000000000000000000060648201526084016106af565b6108066113e5565b565b6108327f9f2df0fed2c77648de5860a4cc508cd0818c85b8b8a1ab4ceeef8d981c8956a63361039c565b6108a45760405162461bcd60e51b815260206004820152602e60248201527f4c315374616e6461726445524332303a206d7573742068617665206d696e746560448201527f7220726f6c6520746f206d696e7400000000000000000000000000000000000060648201526084016106af565b6108ae82826114ac565b5050565b6108bc33826115be565b50565b60006108cb8333610463565b9050818110156109425760405162461bcd60e51b8152602060048201526024808201527f45524332303a206275726e20616d6f756e74206578636565647320616c6c6f7760448201527f616e63650000000000000000000000000000000000000000000000000000000060648201526084016106af565b61094f8333848403610f17565b6106f283836115be565b6109837f65d7a28e3265b37a6474929f336521b332c1681b933f6cb9f3376673440d862a3361039c565b6109f55760405162461bcd60e51b815260206004820152602f60248201527f4c315374616e6461726445524332303a206d757374206861766520706175736560448201527f7220726f6c6520746f207061757365000000000000000000000000000000000060648201526084016106af565b610806611783565b6000828152600160205260408120610a159083611829565b9392505050565b60606006805461056690612330565b33600090815260036020908152604080832073ffffffffffffffffffffffffffffffffffffffff8616845290915281205482811015610ad25760405162461bcd60e51b815260206004820152602560248201527f45524332303a2064656372656173656420616c6c6f77616e63652062656c6f7760448201527f207a65726f00000000000000000000000000000000000000000000000000000060648201526084016106af565b610adf3385858403610f17565b5060019392505050565b60006105f6338484611096565b600081815260016020526040812061055190611835565b610701828261183f565b8051825114610b8e5760405162461bcd60e51b815260206004820152602e60248201527f4c315374616e6461726445524332303a2062756c6b206d696e7420617267732060448201527f6d75737420626520657175616c7300000000000000000000000000000000000060648201526084016106af565b610bb87f9f2df0fed2c77648de5860a4cc508cd0818c85b8b8a1ab4ceeef8d981c8956a63361039c565b610c2a5760405162461bcd60e51b815260206004820152602e60248201527f4c315374616e6461726445524332303a206d7573742068617665206d696e746560448201527f7220726f6c6520746f206d696e7400000000000000000000000000000000000060648201526084016106af565b60005b82518110156106f257610c72838281518110610c4b57610c4b6123cb565b6020026020010151838381518110610c6557610c656123cb565b60200260200101516114ac565b80610c7c816123fa565b915050610c2d565b600082518451148015610c98575081518351145b610d0a5760405162461bcd60e51b815260206004820152603260248201527f4c315374616e6461726445524332303a2062756c6b207472616e73666572206160448201527f726773206d75737420626520657175616c73000000000000000000000000000060648201526084016106af565b60005b84518110156106c557610d6c858281518110610d2b57610d2b6123cb565b6020026020010151858381518110610d4557610d456123cb565b6020026020010151858481518110610d5f57610d5f6123cb565b60200260200101516105ff565b5080610d77816123fa565b915050610d0d565b60008151835114610df85760405162461bcd60e51b815260206004820152603260248201527f4c315374616e6461726445524332303a2062756c6b207472616e73666572206160448201527f726773206d75737420626520657175616c73000000000000000000000000000060648201526084016106af565b3360005b84518110156106c557610e4282868381518110610e1b57610e1b6123cb565b6020026020010151868481518110610e3557610e356123cb565b6020026020010151611096565b80610e4c816123fa565b915050610dfc565b6108ae8282611865565b6000610a158373ffffffffffffffffffffffffffffffffffffffff8416611955565b60007fffffffff0000000000000000000000000000000000000000000000000000000082167f7965db0b00000000000000000000000000000000000000000000000000000000148061055157507f01ffc9a7000000000000000000000000000000000000000000000000000000007fffffffff00000000000000000000000000000000000000000000000000000000831614610551565b73ffffffffffffffffffffffffffffffffffffffff8316610f9f5760405162461bcd60e51b8152602060048201526024808201527f45524332303a20617070726f76652066726f6d20746865207a65726f2061646460448201527f726573730000000000000000000000000000000000000000000000000000000060648201526084016106af565b73ffffffffffffffffffffffffffffffffffffffff82166110285760405162461bcd60e51b815260206004820152602260248201527f45524332303a20617070726f766520746f20746865207a65726f20616464726560448201527f737300000000000000000000000000000000000000000000000000000000000060648201526084016106af565b73ffffffffffffffffffffffffffffffffffffffff83811660008181526003602090815260408083209487168084529482529182902085905590518481527f8c5be1e5ebec7d5bd14f71427d1e84f3dd0314c0f7b2291e5b200ac8c7c3b925910160405180910390a3505050565b73ffffffffffffffffffffffffffffffffffffffff831661111f5760405162461bcd60e51b815260206004820152602560248201527f45524332303a207472616e736665722066726f6d20746865207a65726f20616460448201527f647265737300000000000000000000000000000000000000000000000000000060648201526084016106af565b73ffffffffffffffffffffffffffffffffffffffff82166111a85760405162461bcd60e51b815260206004820152602360248201527f45524332303a207472616e7366657220746f20746865207a65726f206164647260448201527f657373000000000000000000000000000000000000000000000000000000000060648201526084016106af565b6111b38383836119a4565b73ffffffffffffffffffffffffffffffffffffffff83166000908152600260205260409020548181101561124f5760405162461bcd60e51b815260206004820152602660248201527f45524332303a207472616e7366657220616d6f756e742065786365656473206260448201527f616c616e6365000000000000000000000000000000000000000000000000000060648201526084016106af565b73ffffffffffffffffffffffffffffffffffffffff8085166000908152600260205260408082208585039055918516815290812080548492906112939084906123b3565b925050819055508273ffffffffffffffffffffffffffffffffffffffff168473ffffffffffffffffffffffffffffffffffffffff167fddf252ad1be2c89b69c2b068fc378daa952ba7f163c4a11628f55a4df523b3ef846040516112f991815260200190565b60405180910390a35b50505050565b60008281526020819052604090206001015461132481336119af565b6106f28383611865565b73ffffffffffffffffffffffffffffffffffffffff811633146113b95760405162461bcd60e51b815260206004820152602f60248201527f416363657373436f6e74726f6c3a2063616e206f6e6c792072656e6f756e636560448201527f20726f6c657320666f722073656c66000000000000000000000000000000000060648201526084016106af565b6108ae8282611a65565b6000610a158373ffffffffffffffffffffffffffffffffffffffff8416611b1c565b60075460ff166114375760405162461bcd60e51b815260206004820152601460248201527f5061757361626c653a206e6f742070617573656400000000000000000000000060448201526064016106af565b600780547fffffffffffffffffffffffffffffffffffffffffffffffffffffffffffffff001690557f5db9ee0a495bf2e6ff9c91a7834c1ba4fdd244a5e8aa4e537bd38aeae4b073aa335b60405173ffffffffffffffffffffffffffffffffffffffff909116815260200160405180910390a1565b73ffffffffffffffffffffffffffffffffffffffff821661150f5760405162461bcd60e51b815260206004820152601f60248201527f45524332303a206d696e7420746f20746865207a65726f20616464726573730060448201526064016106af565b61151b600083836119a4565b806004600082825461152d91906123b3565b909155505073ffffffffffffffffffffffffffffffffffffffff8216600090815260026020526040812080548392906115679084906123b3565b909155505060405181815273ffffffffffffffffffffffffffffffffffffffff8316906000907fddf252ad1be2c89b69c2b068fc378daa952ba7f163c4a11628f55a4df523b3ef9060200160405180910390a35050565b73ffffffffffffffffffffffffffffffffffffffff82166116475760405162461bcd60e51b815260206004820152602160248201527f45524332303a206275726e2066726f6d20746865207a65726f2061646472657360448201527f730000000000000000000000000000000000000000000000000000000000000060648201526084016106af565b611653826000836119a4565b73ffffffffffffffffffffffffffffffffffffffff8216600090815260026020526040902054818110156116ef5760405162461bcd60e51b815260206004820152602260248201527f45524332303a206275726e20616d6f756e7420657863656564732062616c616e60448201527f636500000000000000000000000000000000000000000000000000000000000060648201526084016106af565b73ffffffffffffffffffffffffffffffffffffffff8316600090815260026020526040812083830390556004805484929061172b908490612433565b909155505060405182815260009073ffffffffffffffffffffffffffffffffffffffff8516907fddf252ad1be2c89b69c2b068fc378daa952ba7f163c4a11628f55a4df523b3ef9060200160405180910390a3505050565b60075460ff16156117d65760405162461bcd60e51b815260206004820152601060248201527f5061757361626c653a207061757365640000000000000000000000000000000060448201526064016106af565b600780547fffffffffffffffffffffffffffffffffffffffffffffffffffffffffffffff001660011790557f62e78cea01bee320cd4e420270b5ea74000d11b0c9f74754ebdbfc544b05a2586114823390565b6000610a158383611c0f565b6000610551825490565b60008281526020819052604090206001015461185b81336119af565b6106f28383611a65565b60008281526020818152604080832073ffffffffffffffffffffffffffffffffffffffff8516845290915290205460ff166108ae5760008281526020818152604080832073ffffffffffffffffffffffffffffffffffffffff85168452909152902080547fffffffffffffffffffffffffffffffffffffffffffffffffffffffffffffff001660011790556118f73390565b73ffffffffffffffffffffffffffffffffffffffff168173ffffffffffffffffffffffffffffffffffffffff16837f2f8788117e7eff1d82e926ec794901d17c78024a50270940304540a733656f0d60405160405180910390a45050565b600081815260018301602052604081205461199c57508154600181810184556000848152602080822090930184905584548482528286019093526040902091909155610551565b506000610551565b6106f2838383611c39565b60008281526020818152604080832073ffffffffffffffffffffffffffffffffffffffff8516845290915290205460ff166108ae57611a058173ffffffffffffffffffffffffffffffffffffffff166014611cb2565b611a10836020611cb2565b604051602001611a2192919061244a565b604080517fffffffffffffffffffffffffffffffffffffffffffffffffffffffffffffffe08184030181529082905262461bcd60e51b82526106af91600401611f49565b60008281526020818152604080832073ffffffffffffffffffffffffffffffffffffffff8516845290915290205460ff16156108ae5760008281526020818152604080832073ffffffffffffffffffffffffffffffffffffffff8516808552925280832080547fffffffffffffffffffffffffffffffffffffffffffffffffffffffffffffff0016905551339285917ff6391f5c32d9c69d2a47ea670b442974b53935d1edc7fd64eb21e047a839171b9190a45050565b60008181526001830160205260408120548015611c05576000611b40600183612433565b8554909150600090611b5490600190612433565b9050818114611bb9576000866000018281548110611b7457611b746123cb565b9060005260206000200154905080876000018481548110611b9757611b976123cb565b6000918252602080832090910192909255918252600188019052604090208390555b8554869080611bca57611bca6124cb565b600190038181906000526020600020016000905590558560010160008681526020019081526020016000206000905560019350505050610551565b6000915050610551565b6000826000018281548110611c2657611c266123cb565b9060005260206000200154905092915050565b60075460ff16156106f25760405162461bcd60e51b815260206004820152602a60248201527f45524332305061757361626c653a20746f6b656e207472616e7366657220776860448201527f696c65207061757365640000000000000000000000000000000000000000000060648201526084016106af565b60606000611cc18360026124fa565b611ccc9060026123b3565b67ffffffffffffffff811115611ce457611ce46120d5565b6040519080825280601f01601f191660200182016040528015611d0e576020820181803683370190505b5090507f300000000000000000000000000000000000000000000000000000000000000081600081518110611d4557611d456123cb565b60200101907effffffffffffffffffffffffffffffffffffffffffffffffffffffffffffff1916908160001a9053507f780000000000000000000000000000000000000000000000000000000000000081600181518110611da857611da86123cb565b60200101907effffffffffffffffffffffffffffffffffffffffffffffffffffffffffffff1916908160001a9053506000611de48460026124fa565b611def9060016123b3565b90505b6001811115611e8c577f303132333435363738396162636465660000000000000000000000000000000085600f1660108110611e3057611e306123cb565b1a60f81b828281518110611e4657611e466123cb565b60200101907effffffffffffffffffffffffffffffffffffffffffffffffffffffffffffff1916908160001a90535060049490941c93611e8581612537565b9050611df2565b508315610a155760405162461bcd60e51b815260206004820181905260248201527f537472696e67733a20686578206c656e67746820696e73756666696369656e7460448201526064016106af565b600060208284031215611eed57600080fd5b81357fffffffff0000000000000000000000000000000000000000000000000000000081168114610a1557600080fd5b60005b83811015611f38578181015183820152602001611f20565b838111156113025750506000910152565b6020815260008251806020840152611f68816040850160208701611f1d565b601f017fffffffffffffffffffffffffffffffffffffffffffffffffffffffffffffffe0169190910160400192915050565b803573ffffffffffffffffffffffffffffffffffffffff81168114611fbe57600080fd5b919050565b60008060408385031215611fd657600080fd5b611fdf83611f9a565b946020939093013593505050565b60008060006060848603121561200257600080fd5b61200b84611f9a565b925061201960208501611f9a565b9150604084013590509250925092565b60006020828403121561203b57600080fd5b5035919050565b6000806040838503121561205557600080fd5b8235915061206560208401611f9a565b90509250929050565b60006020828403121561208057600080fd5b610a1582611f9a565b6000806040838503121561209c57600080fd5b50508035926020909101359150565b600080604083850312156120be57600080fd5b6120c783611f9a565b915061206560208401611f9a565b7f4e487b7100000000000000000000000000000000000000000000000000000000600052604160045260246000fd5b604051601f82017fffffffffffffffffffffffffffffffffffffffffffffffffffffffffffffffe016810167ffffffffffffffff8111828210171561214b5761214b6120d5565b604052919050565b600067ffffffffffffffff82111561216d5761216d6120d5565b5060051b60200190565b600082601f83011261218857600080fd5b8135602061219d61219883612153565b612104565b82815260059290921b840181019181810190868411156121bc57600080fd5b8286015b848110156121de576121d181611f9a565b83529183019183016121c0565b509695505050505050565b600082601f8301126121fa57600080fd5b8135602061220a61219883612153565b82815260059290921b8401810191818101908684111561222957600080fd5b8286015b848110156121de578035835291830191830161222d565b6000806040838503121561225757600080fd5b823567ffffffffffffffff8082111561226f57600080fd5b61227b86838701612177565b9350602085013591508082111561229157600080fd5b5061229e858286016121e9565b9150509250929050565b6000806000606084860312156122bd57600080fd5b833567ffffffffffffffff808211156122d557600080fd5b6122e187838801612177565b945060208601359150808211156122f757600080fd5b61230387838801612177565b9350604086013591508082111561231957600080fd5b50612326868287016121e9565b9150509250925092565b600181811c9082168061234457607f821691505b6020821081141561237e577f4e487b7100000000000000000000000000000000000000000000000000000000600052602260045260246000fd5b50919050565b7f4e487b7100000000000000000000000000000000000000000000000000000000600052601160045260246000fd5b600082198211156123c6576123c6612384565b500190565b7f4e487b7100000000000000000000000000000000000000000000000000000000600052603260045260246000fd5b60007fffffffffffffffffffffffffffffffffffffffffffffffffffffffffffffffff82141561242c5761242c612384565b5060010190565b60008282101561244557612445612384565b500390565b7f416363657373436f6e74726f6c3a206163636f756e7420000000000000000000815260008351612482816017850160208801611f1d565b7f206973206d697373696e6720726f6c652000000000000000000000000000000060179184019182015283516124bf816028840160208801611f1d565b01602801949350505050565b7f4e487b7100000000000000000000000000000000000000000000000000000000600052603160045260246000fd5b6000817fffffffffffffffffffffffffffffffffffffffffffffffffffffffffffffffff048311821515161561253257612532612384565b500290565b60008161254657612546612384565b507fffffffffffffffffffffffffffffffffffffffffffffffffffffffffffffffff019056fea2646970667358221220ec545ac9887190495c294687b26d57b2c56e4c0e69049d9d3eb841ced00b0d9d64736f6c63430008090033a2646970667358221220780f31feb8cb831c155bad22eadde1376c52e08c7d33c1a8360fe6d9d56c34a264736f6c63430008090033",
  "linkReferences": {},
  "deployedLinkReferences": {}
}