{
  "_format": "hh-sol-artifact-1",
  "contractName": "L1StandardERC721Factory",
  "sourceName": "contracts/oasys/L1/token/L1StandardERC721Factory.sol",
  "abi": [
    {
      "anonymous": false,
      "inputs": [
        {
          "indexed": true,
          "internalType": "string",
          "name": "_symbol",
          "type": "string"
        },
        {
          "indexed": true,
          "internalType": "address",
          "name": "_address",
          "type": "address"
        }
      ],
      "name": "ERC721Created",
      "type": "event"
    },
    {
      "inputs": [
        {
          "internalType": "string",
          "name": "_name",
          "type": "string"
        },
        {
          "internalType": "string",
          "name": "_symbol",
          "type": "string"
        },
        {
          "internalType": "string",
          "name": "_baseTokenURI",
          "type": "string"
        }
      ],
      "name": "createStandardERC721",
      "outputs": [],
      "stateMutability": "nonpayable",
      "type": "function"
    }
  ],
  "bytecode": "0x608060405234801561001057600080fd5b50614551806100206000396000f3fe608060405234801561001057600080fd5b506004361061002b5760003560e01c8063c4af445814610030575b600080fd5b61004361003e3660046101c6565b610045565b005b600033848484604051610057906100de565b61006494939291906102c8565b604051809103906000f080158015610080573d6000803e3d6000fd5b5090508073ffffffffffffffffffffffffffffffffffffffff16836040516100a89190610328565b604051908190038120907fbda470470721b5a2c56d61dc0aa9496dd02d39170f9dff803c35efbab673652290600090a350505050565b6141d7806200034583390190565b7f4e487b7100000000000000000000000000000000000000000000000000000000600052604160045260246000fd5b600082601f83011261012c57600080fd5b813567ffffffffffffffff80821115610147576101476100ec565b604051601f83017fffffffffffffffffffffffffffffffffffffffffffffffffffffffffffffffe0908116603f0116810190828211818310171561018d5761018d6100ec565b816040528381528660208588010111156101a657600080fd5b836020870160208301376000602085830101528094505050505092915050565b6000806000606084860312156101db57600080fd5b833567ffffffffffffffff808211156101f357600080fd5b6101ff8783880161011b565b9450602086013591508082111561021557600080fd5b6102218783880161011b565b9350604086013591508082111561023757600080fd5b506102448682870161011b565b9150509250925092565b60005b83811015610269578181015183820152602001610251565b83811115610278576000848401525b50505050565b6000815180845261029681602086016020860161024e565b601f017fffffffffffffffffffffffffffffffffffffffffffffffffffffffffffffffe0169290920160200192915050565b73ffffffffffffffffffffffffffffffffffffffff851681526080602082015260006102f7608083018661027e565b8281036040840152610309818661027e565b9050828103606084015261031d818561027e565b979650505050505050565b6000825161033a81846020870161024e565b919091019291505056fe60806040523480156200001157600080fd5b50604051620041d7380380620041d783398101604081905262000034916200042a565b8251839083906200004d906002906020850190620002b7565b50805162000063906003906020840190620002b7565b5050600c805460ff191690555080516200008590600f906020840190620002b7565b506200009360008562000100565b620000bf7f9f2df0fed2c77648de5860a4cc508cd0818c85b8b8a1ab4ceeef8d981c8956a68562000100565b620000eb7f65d7a28e3265b37a6474929f336521b332c1681b933f6cb9f3376673440d862a8562000100565b620000f68462000143565b5050505062000519565b6200011782826200019560201b620016e01760201c565b60008281526001602090815260409091206200013e918390620016ea620001a5821b17901c565b505050565b600e80546001600160a01b038381166001600160a01b0319831681179093556040519116919082907f8be0079c531659141344cd1fd0a4f28419497f9722a3daafe3b4186f6b6457e090600090a35050565b620001a18282620001c5565b5050565b6000620001bc836001600160a01b03841662000265565b90505b92915050565b6000828152602081815260408083206001600160a01b038516845290915290205460ff16620001a1576000828152602081815260408083206001600160a01b03851684529091529020805460ff19166001179055620002213390565b6001600160a01b0316816001600160a01b0316837f2f8788117e7eff1d82e926ec794901d17c78024a50270940304540a733656f0d60405160405180910390a45050565b6000818152600183016020526040812054620002ae57508154600181810184556000848152602080822090930184905584548482528286019093526040902091909155620001bf565b506000620001bf565b828054620002c590620004dc565b90600052602060002090601f016020900481019282620002e9576000855562000334565b82601f106200030457805160ff191683800117855562000334565b8280016001018555821562000334579182015b828111156200033457825182559160200191906001019062000317565b506200034292915062000346565b5090565b5b8082111562000342576000815560010162000347565b634e487b7160e01b600052604160045260246000fd5b600082601f8301126200038557600080fd5b81516001600160401b0380821115620003a257620003a26200035d565b604051601f8301601f19908116603f01168101908282118183101715620003cd57620003cd6200035d565b81604052838152602092508683858801011115620003ea57600080fd5b600091505b838210156200040e5785820183015181830184015290820190620003ef565b83821115620004205760008385830101525b9695505050505050565b600080600080608085870312156200044157600080fd5b84516001600160a01b03811681146200045957600080fd5b60208601519094506001600160401b03808211156200047757600080fd5b620004858883890162000373565b945060408701519150808211156200049c57600080fd5b620004aa8883890162000373565b93506060870151915080821115620004c157600080fd5b50620004d08782880162000373565b91505092959194509250565b600181811c90821680620004f157607f821691505b602082108114156200051357634e487b7160e01b600052602260045260246000fd5b50919050565b613cae80620005296000396000f3fe608060405234801561001057600080fd5b50600436106102c85760003560e01c806370a082311161017b578063b88d4fde116100d8578063e467f7e01161008c578063e985e9c511610071578063e985e9c5146105e4578063f2fde38b14610620578063f94a138b1461063357600080fd5b8063e467f7e0146105aa578063e63ab1e9146105bd57600080fd5b8063ca15c873116100bd578063ca15c8731461055d578063d539139314610570578063d547741f1461059757600080fd5b8063b88d4fde14610537578063c87b56dd1461054a57600080fd5b806395d89b411161012f578063a22cb46511610114578063a22cb465146104fe578063aafb2d4414610511578063b4e0ebf41461052457600080fd5b806395d89b41146104ee578063a217fddf146104f657600080fd5b80638da5cb5b116101605780638da5cb5b146104915780639010d07c146104a457806391d14854146104b757600080fd5b806370a08231146104765780638456cb591461048957600080fd5b80632f745c591161022957806342966c68116101dd57806355f804b3116101c257806355f804b3146104455780635c975abb146104585780636352211e1461046357600080fd5b806342966c681461041f5780634f6ccce71461043257600080fd5b80633f4ba83a1161020e5780633f4ba83a146103f157806340c10f19146103f957806342842e0e1461040c57600080fd5b80632f745c59146103cb57806336568abe146103de57600080fd5b8063162094c41161028057806323b872dd1161026557806323b872dd14610382578063248a9ca3146103955780632f2ff15d146103b857600080fd5b8063162094c41461035d57806318160ddd1461037057600080fd5b806306fdde03116102b157806306fdde031461030a578063081812fc1461031f578063095ea7b31461034a57600080fd5b806301ffc9a7146102cd57806303b03434146102f5575b600080fd5b6102e06102db36600461319b565b610646565b60405190151581526020015b60405180910390f35b610308610303366004613343565b610657565b005b61031261075a565b6040516102ec9190613441565b61033261032d366004613454565b6107ec565b6040516001600160a01b0390911681526020016102ec565b61030861035836600461346d565b610892565b61030861036b366004613525565b6109c4565b600a545b6040519081526020016102ec565b61030861039036600461356c565b610a48565b6103746103a3366004613454565b60009081526020819052604090206001015490565b6103086103c63660046135a8565b610ad0565b6103746103d936600461346d565b610af2565b6103086103ec3660046135a8565b610b9a565b610308610bbc565b61030861040736600461346d565b610c3c565b61030861041a36600461356c565b610cbc565b61030861042d366004613454565b610cd7565b610374610440366004613454565b610d5e565b6103086104533660046135d4565b610e02565b600c5460ff166102e0565b610332610471366004613454565b610e6c565b610374610484366004613609565b610ef7565b610308610f91565b600e54610332906001600160a01b031681565b6103326104b2366004613624565b61100f565b6102e06104c53660046135a8565b6000918252602082815260408084206001600160a01b0393909316845291905290205460ff1690565b61031261102e565b610374600081565b61030861050c366004613646565b61103d565b61030861051f366004613682565b611120565b610308610532366004613757565b611267565b610308610545366004613871565b61138d565b610312610558366004613454565b611415565b61037461056b366004613454565b611420565b6103747f9f2df0fed2c77648de5860a4cc508cd0818c85b8b8a1ab4ceeef8d981c8956a681565b6103086105a53660046135a8565b611437565b6103086105b83660046138d9565b611441565b6103747f65d7a28e3265b37a6474929f336521b332c1681b933f6cb9f3376673440d862a81565b6102e06105f2366004613933565b6001600160a01b03918216600090815260076020908152604080832093909416825291909152205460ff1690565b61030861062e366004613609565b611588565b610308610641366004613343565b6115e8565b6000610651826116ff565b92915050565b81518351148015610669575080518251145b6106e05760405162461bcd60e51b815260206004820152602560248201527f4c315374616e646172644552433732313a2061726773206d757374206265206560448201527f7175616c7300000000000000000000000000000000000000000000000000000060648201526084015b60405180910390fd5b60005b8351811015610754576107428482815181106107015761070161395d565b602002602001015184838151811061071b5761071b61395d565b60200260200101518484815181106107355761073561395d565b6020026020010151610cbc565b8061074c816139bb565b9150506106e3565b50505050565b606060028054610769906139f4565b80601f0160208091040260200160405190810160405280929190818152602001828054610795906139f4565b80156107e25780601f106107b7576101008083540402835291602001916107e2565b820191906000526020600020905b8154815290600101906020018083116107c557829003601f168201915b5050505050905090565b6000818152600460205260408120546001600160a01b03166108765760405162461bcd60e51b815260206004820152602c60248201527f4552433732313a20617070726f76656420717565727920666f72206e6f6e657860448201527f697374656e7420746f6b656e000000000000000000000000000000000000000060648201526084016106d7565b506000908152600660205260409020546001600160a01b031690565b600061089d82610e6c565b9050806001600160a01b0316836001600160a01b031614156109275760405162461bcd60e51b815260206004820152602160248201527f4552433732313a20617070726f76616c20746f2063757272656e74206f776e6560448201527f720000000000000000000000000000000000000000000000000000000000000060648201526084016106d7565b336001600160a01b0382161480610943575061094381336105f2565b6109b55760405162461bcd60e51b815260206004820152603860248201527f4552433732313a20617070726f76652063616c6c6572206973206e6f74206f7760448201527f6e6572206e6f7220617070726f76656420666f7220616c6c000000000000000060648201526084016106d7565b6109bf8383611755565b505050565b6109ee7f9f2df0fed2c77648de5860a4cc508cd0818c85b8b8a1ab4ceeef8d981c8956a6336104c5565b610a3a5760405162461bcd60e51b815260206004820152601e60248201527f4c315374616e646172644552433732313a20696e76616c696420726f6c65000060448201526064016106d7565b610a4482826117db565b5050565b610a53335b82611884565b610ac55760405162461bcd60e51b815260206004820152603160248201527f4552433732313a207472616e736665722063616c6c6572206973206e6f74206f60448201527f776e6572206e6f7220617070726f76656400000000000000000000000000000060648201526084016106d7565b6109bf83838361198c565b610ada8282611b7c565b60008281526001602052604090206109bf90826116ea565b6000610afd83610ef7565b8210610b715760405162461bcd60e51b815260206004820152602b60248201527f455243373231456e756d657261626c653a206f776e657220696e646578206f7560448201527f74206f6620626f756e647300000000000000000000000000000000000000000060648201526084016106d7565b506001600160a01b03919091166000908152600860209081526040808320938352929052205490565b610ba48282611ba2565b60008281526001602052604090206109bf9082611c2a565b610be67f65d7a28e3265b37a6474929f336521b332c1681b933f6cb9f3376673440d862a336104c5565b610c325760405162461bcd60e51b815260206004820152601e60248201527f4c315374616e646172644552433732313a20696e76616c696420726f6c65000060448201526064016106d7565b610c3a611c3f565b565b610c667f9f2df0fed2c77648de5860a4cc508cd0818c85b8b8a1ab4ceeef8d981c8956a6336104c5565b610cb25760405162461bcd60e51b815260206004820152601e60248201527f4c315374616e646172644552433732313a20696e76616c696420726f6c65000060448201526064016106d7565b610a448282611cf9565b6109bf8383836040518060200160405280600081525061138d565b610ce033610a4d565b610d525760405162461bcd60e51b815260206004820152603060248201527f4552433732314275726e61626c653a2063616c6c6572206973206e6f74206f7760448201527f6e6572206e6f7220617070726f7665640000000000000000000000000000000060648201526084016106d7565b610d5b81611e5f565b50565b6000610d69600a5490565b8210610ddd5760405162461bcd60e51b815260206004820152602c60248201527f455243373231456e756d657261626c653a20676c6f62616c20696e646578206f60448201527f7574206f6620626f756e6473000000000000000000000000000000000000000060648201526084016106d7565b600a8281548110610df057610df061395d565b90600052602060002001549050919050565b610e0d6000336104c5565b610e595760405162461bcd60e51b815260206004820152601e60248201527f4c315374616e646172644552433732313a20696e76616c696420726f6c65000060448201526064016106d7565b8051610a4490600f90602084019061309e565b6000818152600460205260408120546001600160a01b0316806106515760405162461bcd60e51b815260206004820152602960248201527f4552433732313a206f776e657220717565727920666f72206e6f6e657869737460448201527f656e7420746f6b656e000000000000000000000000000000000000000000000060648201526084016106d7565b60006001600160a01b038216610f755760405162461bcd60e51b815260206004820152602a60248201527f4552433732313a2062616c616e636520717565727920666f7220746865207a6560448201527f726f20616464726573730000000000000000000000000000000000000000000060648201526084016106d7565b506001600160a01b031660009081526005602052604090205490565b610fbb7f65d7a28e3265b37a6474929f336521b332c1681b933f6cb9f3376673440d862a336104c5565b6110075760405162461bcd60e51b815260206004820152601e60248201527f4c315374616e646172644552433732313a20696e76616c696420726f6c65000060448201526064016106d7565b610c3a611e68565b60008281526001602052604081206110279083611f0e565b9392505050565b606060038054610769906139f4565b6001600160a01b0382163314156110965760405162461bcd60e51b815260206004820152601960248201527f4552433732313a20617070726f766520746f2063616c6c65720000000000000060448201526064016106d7565b3360008181526007602090815260408083206001600160a01b0387168085529083529281902080547fffffffffffffffffffffffffffffffffffffffffffffffffffffffffffffff001686151590811790915590519081529192917f17307eab39ab6107e8899845ad3d59bd9653f200f220920489ca2b5937696c31910160405180910390a35050565b80518251146111975760405162461bcd60e51b815260206004820152602560248201527f4c315374616e646172644552433732313a2061726773206d757374206265206560448201527f7175616c7300000000000000000000000000000000000000000000000000000060648201526084016106d7565b6111c17f9f2df0fed2c77648de5860a4cc508cd0818c85b8b8a1ab4ceeef8d981c8956a6336104c5565b61120d5760405162461bcd60e51b815260206004820152601e60248201527f4c315374616e646172644552433732313a20696e76616c696420726f6c65000060448201526064016106d7565b60005b82518110156109bf5761125583828151811061122e5761122e61395d565b60200260200101518383815181106112485761124861395d565b60200260200101516117db565b8061125f816139bb565b915050611210565b82518451148015611279575081518351145b8015611286575080518251145b6112f85760405162461bcd60e51b815260206004820152602560248201527f4c315374616e646172644552433732313a2061726773206d757374206265206560448201527f7175616c7300000000000000000000000000000000000000000000000000000060648201526084016106d7565b60005b8451811015611386576113748582815181106113195761131961395d565b60200260200101518583815181106113335761133361395d565b602002602001015185848151811061134d5761134d61395d565b60200260200101518585815181106113675761136761395d565b602002602001015161138d565b8061137e816139bb565b9150506112fb565b5050505050565b6113973383611884565b6114095760405162461bcd60e51b815260206004820152603160248201527f4552433732313a207472616e736665722063616c6c6572206973206e6f74206f60448201527f776e6572206e6f7220617070726f76656400000000000000000000000000000060648201526084016106d7565b61075484848484611f1a565b606061065182611fa3565b600081815260016020526040812061065190612121565b610ba4828261212b565b80518251146114b85760405162461bcd60e51b815260206004820152602560248201527f4c315374616e646172644552433732313a2061726773206d757374206265206560448201527f7175616c7300000000000000000000000000000000000000000000000000000060648201526084016106d7565b6114e27f9f2df0fed2c77648de5860a4cc508cd0818c85b8b8a1ab4ceeef8d981c8956a6336104c5565b61152e5760405162461bcd60e51b815260206004820152601e60248201527f4c315374616e646172644552433732313a20696e76616c696420726f6c65000060448201526064016106d7565b60005b82518110156109bf5761157683828151811061154f5761154f61395d565b60200260200101518383815181106115695761156961395d565b6020026020010151611cf9565b80611580816139bb565b915050611531565b6115936000336104c5565b6115df5760405162461bcd60e51b815260206004820152601e60248201527f4c315374616e646172644552433732313a20696e76616c696420726f6c65000060448201526064016106d7565b610d5b81612151565b815183511480156115fa575080518251145b61166c5760405162461bcd60e51b815260206004820152602560248201527f4c315374616e646172644552433732313a2061726773206d757374206265206560448201527f7175616c7300000000000000000000000000000000000000000000000000000060648201526084016106d7565b60005b8351811015610754576116ce84828151811061168d5761168d61395d565b60200260200101518483815181106116a7576116a761395d565b60200260200101518484815181106116c1576116c161395d565b6020026020010151610a48565b806116d8816139bb565b91505061166f565b610a4482826121bb565b6000611027836001600160a01b038416612277565b60007fffffffff0000000000000000000000000000000000000000000000000000000082167f780e9d630000000000000000000000000000000000000000000000000000000014806106515750610651826122c6565b600081815260066020526040902080547fffffffffffffffffffffffff0000000000000000000000000000000000000000166001600160a01b03841690811790915581906117a282610e6c565b6001600160a01b03167f8c5be1e5ebec7d5bd14f71427d1e84f3dd0314c0f7b2291e5b200ac8c7c3b92560405160405180910390a45050565b6000828152600460205260409020546001600160a01b03166118655760405162461bcd60e51b815260206004820152602e60248201527f45524337323155524953746f726167653a2055524920736574206f66206e6f6e60448201527f6578697374656e7420746f6b656e00000000000000000000000000000000000060648201526084016106d7565b6000828152600d6020908152604090912082516109bf9284019061309e565b6000818152600460205260408120546001600160a01b031661190e5760405162461bcd60e51b815260206004820152602c60248201527f4552433732313a206f70657261746f7220717565727920666f72206e6f6e657860448201527f697374656e7420746f6b656e000000000000000000000000000000000000000060648201526084016106d7565b600061191983610e6c565b9050806001600160a01b0316846001600160a01b031614806119545750836001600160a01b0316611949846107ec565b6001600160a01b0316145b8061198457506001600160a01b0380821660009081526007602090815260408083209388168352929052205460ff165b949350505050565b826001600160a01b031661199f82610e6c565b6001600160a01b031614611a1b5760405162461bcd60e51b815260206004820152602960248201527f4552433732313a207472616e73666572206f6620746f6b656e2074686174206960448201527f73206e6f74206f776e000000000000000000000000000000000000000000000060648201526084016106d7565b6001600160a01b038216611a965760405162461bcd60e51b8152602060048201526024808201527f4552433732313a207472616e7366657220746f20746865207a65726f2061646460448201527f726573730000000000000000000000000000000000000000000000000000000060648201526084016106d7565b611aa1838383612368565b611aac600082611755565b6001600160a01b0383166000908152600560205260408120805460019290611ad5908490613a48565b90915550506001600160a01b0382166000908152600560205260408120805460019290611b03908490613a5f565b909155505060008181526004602052604080822080547fffffffffffffffffffffffff0000000000000000000000000000000000000000166001600160a01b0386811691821790925591518493918716917fddf252ad1be2c89b69c2b068fc378daa952ba7f163c4a11628f55a4df523b3ef91a4505050565b600082815260208190526040902060010154611b988133612373565b6109bf83836121bb565b6001600160a01b0381163314611c205760405162461bcd60e51b815260206004820152602f60248201527f416363657373436f6e74726f6c3a2063616e206f6e6c792072656e6f756e636560448201527f20726f6c657320666f722073656c66000000000000000000000000000000000060648201526084016106d7565b610a44828261240f565b6000611027836001600160a01b0384166124ac565b600c5460ff16611c915760405162461bcd60e51b815260206004820152601460248201527f5061757361626c653a206e6f742070617573656400000000000000000000000060448201526064016106d7565b600c80547fffffffffffffffffffffffffffffffffffffffffffffffffffffffffffffff001690557f5db9ee0a495bf2e6ff9c91a7834c1ba4fdd244a5e8aa4e537bd38aeae4b073aa335b6040516001600160a01b03909116815260200160405180910390a1565b6001600160a01b038216611d4f5760405162461bcd60e51b815260206004820181905260248201527f4552433732313a206d696e7420746f20746865207a65726f206164647265737360448201526064016106d7565b6000818152600460205260409020546001600160a01b031615611db45760405162461bcd60e51b815260206004820152601c60248201527f4552433732313a20746f6b656e20616c7265616479206d696e7465640000000060448201526064016106d7565b611dc060008383612368565b6001600160a01b0382166000908152600560205260408120805460019290611de9908490613a5f565b909155505060008181526004602052604080822080547fffffffffffffffffffffffff0000000000000000000000000000000000000000166001600160a01b03861690811790915590518392907fddf252ad1be2c89b69c2b068fc378daa952ba7f163c4a11628f55a4df523b3ef908290a45050565b610d5b8161259f565b600c5460ff1615611ebb5760405162461bcd60e51b815260206004820152601060248201527f5061757361626c653a207061757365640000000000000000000000000000000060448201526064016106d7565b600c80547fffffffffffffffffffffffffffffffffffffffffffffffffffffffffffffff001660011790557f62e78cea01bee320cd4e420270b5ea74000d11b0c9f74754ebdbfc544b05a258611cdc3390565b600061102783836125df565b611f2584848461198c565b611f3184848484612609565b6107545760405162461bcd60e51b815260206004820152603260248201527f4552433732313a207472616e7366657220746f206e6f6e20455243373231526560448201527f63656976657220696d706c656d656e746572000000000000000000000000000060648201526084016106d7565b6000818152600460205260409020546060906001600160a01b03166120305760405162461bcd60e51b815260206004820152603160248201527f45524337323155524953746f726167653a2055524920717565727920666f722060448201527f6e6f6e6578697374656e7420746f6b656e00000000000000000000000000000060648201526084016106d7565b6000828152600d602052604081208054612049906139f4565b80601f0160208091040260200160405190810160405280929190818152602001828054612075906139f4565b80156120c25780601f10612097576101008083540402835291602001916120c2565b820191906000526020600020905b8154815290600101906020018083116120a557829003601f168201915b5050505050905060006120d36127d4565b90508051600014156120e6575092915050565b815115612118578082604051602001612100929190613a77565b60405160208183030381529060405292505050919050565b611984846127e3565b6000610651825490565b6000828152602081905260409020600101546121478133612373565b6109bf838361240f565b600e80546001600160a01b038381167fffffffffffffffffffffffff0000000000000000000000000000000000000000831681179093556040519116919082907f8be0079c531659141344cd1fd0a4f28419497f9722a3daafe3b4186f6b6457e090600090a35050565b6000828152602081815260408083206001600160a01b038516845290915290205460ff16610a44576000828152602081815260408083206001600160a01b0385168452909152902080547fffffffffffffffffffffffffffffffffffffffffffffffffffffffffffffff001660011790556122333390565b6001600160a01b0316816001600160a01b0316837f2f8788117e7eff1d82e926ec794901d17c78024a50270940304540a733656f0d60405160405180910390a45050565b60008181526001830160205260408120546122be57508154600181810184556000848152602080822090930184905584548482528286019093526040902091909155610651565b506000610651565b60007fffffffff0000000000000000000000000000000000000000000000000000000082167f80ac58cd00000000000000000000000000000000000000000000000000000000148061235957507fffffffff0000000000000000000000000000000000000000000000000000000082167f5b5e139f00000000000000000000000000000000000000000000000000000000145b806106515750610651826128cb565b6109bf838383612921565b6000828152602081815260408083206001600160a01b038516845290915290205460ff16610a44576123af816001600160a01b031660146129a5565b6123ba8360206129a5565b6040516020016123cb929190613aa6565b604080517fffffffffffffffffffffffffffffffffffffffffffffffffffffffffffffffe08184030181529082905262461bcd60e51b82526106d791600401613441565b6000828152602081815260408083206001600160a01b038516845290915290205460ff1615610a44576000828152602081815260408083206001600160a01b038516808552925280832080547fffffffffffffffffffffffffffffffffffffffffffffffffffffffffffffff0016905551339285917ff6391f5c32d9c69d2a47ea670b442974b53935d1edc7fd64eb21e047a839171b9190a45050565b600081815260018301602052604081205480156125955760006124d0600183613a48565b85549091506000906124e490600190613a48565b90508181146125495760008660000182815481106125045761250461395d565b90600052602060002001549050808760000184815481106125275761252761395d565b6000918252602080832090910192909255918252600188019052604090208390555b855486908061255a5761255a613b27565b600190038181906000526020600020016000905590558560010160008681526020019081526020016000206000905560019350505050610651565b6000915050610651565b6125a881612bce565b6000818152600d6020526040902080546125c1906139f4565b159050610d5b576000818152600d60205260408120610d5b91613122565b60008260000182815481106125f6576125f661395d565b9060005260206000200154905092915050565b60006001600160a01b0384163b156127c9576040517f150b7a020000000000000000000000000000000000000000000000000000000081526001600160a01b0385169063150b7a0290612666903390899088908890600401613b56565b602060405180830381600087803b15801561268057600080fd5b505af19250505080156126ce575060408051601f3d9081017fffffffffffffffffffffffffffffffffffffffffffffffffffffffffffffffe01682019092526126cb91810190613b92565b60015b61277e573d8080156126fc576040519150601f19603f3d011682016040523d82523d6000602084013e612701565b606091505b5080516127765760405162461bcd60e51b815260206004820152603260248201527f4552433732313a207472616e7366657220746f206e6f6e20455243373231526560448201527f63656976657220696d706c656d656e746572000000000000000000000000000060648201526084016106d7565b805181602001fd5b7fffffffff00000000000000000000000000000000000000000000000000000000167f150b7a0200000000000000000000000000000000000000000000000000000000149050611984565b506001949350505050565b6060600f8054610769906139f4565b6000818152600460205260409020546060906001600160a01b03166128705760405162461bcd60e51b815260206004820152602f60248201527f4552433732314d657461646174613a2055524920717565727920666f72206e6f60448201527f6e6578697374656e7420746f6b656e000000000000000000000000000000000060648201526084016106d7565b600061287a6127d4565b9050600081511161289a5760405180602001604052806000815250611027565b806128a484612c8d565b6040516020016128b5929190613a77565b6040516020818303038152906040529392505050565b60007fffffffff0000000000000000000000000000000000000000000000000000000082167f5a05180f000000000000000000000000000000000000000000000000000000001480610651575061065182612dbf565b61292c838383612e56565b600c5460ff16156109bf5760405162461bcd60e51b815260206004820152602b60248201527f4552433732315061757361626c653a20746f6b656e207472616e73666572207760448201527f68696c652070617573656400000000000000000000000000000000000000000060648201526084016106d7565b606060006129b4836002613baf565b6129bf906002613a5f565b67ffffffffffffffff8111156129d7576129d76131b8565b6040519080825280601f01601f191660200182016040528015612a01576020820181803683370190505b5090507f300000000000000000000000000000000000000000000000000000000000000081600081518110612a3857612a3861395d565b60200101907effffffffffffffffffffffffffffffffffffffffffffffffffffffffffffff1916908160001a9053507f780000000000000000000000000000000000000000000000000000000000000081600181518110612a9b57612a9b61395d565b60200101907effffffffffffffffffffffffffffffffffffffffffffffffffffffffffffff1916908160001a9053506000612ad7846002613baf565b612ae2906001613a5f565b90505b6001811115612b7f577f303132333435363738396162636465660000000000000000000000000000000085600f1660108110612b2357612b2361395d565b1a60f81b828281518110612b3957612b3961395d565b60200101907effffffffffffffffffffffffffffffffffffffffffffffffffffffffffffff1916908160001a90535060049490941c93612b7881613bec565b9050612ae5565b5083156110275760405162461bcd60e51b815260206004820181905260248201527f537472696e67733a20686578206c656e67746820696e73756666696369656e7460448201526064016106d7565b6000612bd982610e6c565b9050612be781600084612368565b612bf2600083611755565b6001600160a01b0381166000908152600560205260408120805460019290612c1b908490613a48565b909155505060008281526004602052604080822080547fffffffffffffffffffffffff0000000000000000000000000000000000000000169055518391906001600160a01b038416907fddf252ad1be2c89b69c2b068fc378daa952ba7f163c4a11628f55a4df523b3ef908390a45050565b606081612ccd57505060408051808201909152600181527f3000000000000000000000000000000000000000000000000000000000000000602082015290565b8160005b8115612cf75780612ce1816139bb565b9150612cf09050600a83613c50565b9150612cd1565b60008167ffffffffffffffff811115612d1257612d126131b8565b6040519080825280601f01601f191660200182016040528015612d3c576020820181803683370190505b5090505b841561198457612d51600183613a48565b9150612d5e600a86613c64565b612d69906030613a5f565b60f81b818381518110612d7e57612d7e61395d565b60200101907effffffffffffffffffffffffffffffffffffffffffffffffffffffffffffff1916908160001a905350612db8600a86613c50565b9450612d40565b60007fffffffff0000000000000000000000000000000000000000000000000000000082167f7965db0b00000000000000000000000000000000000000000000000000000000148061065157507f01ffc9a7000000000000000000000000000000000000000000000000000000007fffffffff00000000000000000000000000000000000000000000000000000000831614610651565b6001600160a01b038316612eb157612eac81600a80546000838152600b60205260408120829055600182018355919091527fc65a7bb8d6351c1cf70c95a316cc6a92839c986682d98bc35f958f4883f9d2a80155565b612ed4565b816001600160a01b0316836001600160a01b031614612ed457612ed48382612f0e565b6001600160a01b038216612eeb576109bf81612fab565b826001600160a01b0316826001600160a01b0316146109bf576109bf828261305a565b60006001612f1b84610ef7565b612f259190613a48565b600083815260096020526040902054909150808214612f78576001600160a01b03841660009081526008602090815260408083208584528252808320548484528184208190558352600990915290208190555b5060009182526009602090815260408084208490556001600160a01b039094168352600881528383209183525290812055565b600a54600090612fbd90600190613a48565b6000838152600b6020526040812054600a8054939450909284908110612fe557612fe561395d565b9060005260206000200154905080600a83815481106130065761300661395d565b6000918252602080832090910192909255828152600b9091526040808220849055858252812055600a80548061303e5761303e613b27565b6001900381819060005260206000200160009055905550505050565b600061306583610ef7565b6001600160a01b039093166000908152600860209081526040808320868452825280832085905593825260099052919091209190915550565b8280546130aa906139f4565b90600052602060002090601f0160209004810192826130cc5760008555613112565b82601f106130e557805160ff1916838001178555613112565b82800160010185558215613112579182015b828111156131125782518255916020019190600101906130f7565b5061311e929150613158565b5090565b50805461312e906139f4565b6000825580601f1061313e575050565b601f016020900490600052602060002090810190610d5b91905b5b8082111561311e5760008155600101613159565b7fffffffff0000000000000000000000000000000000000000000000000000000081168114610d5b57600080fd5b6000602082840312156131ad57600080fd5b81356110278161316d565b7f4e487b7100000000000000000000000000000000000000000000000000000000600052604160045260246000fd5b604051601f82017fffffffffffffffffffffffffffffffffffffffffffffffffffffffffffffffe016810167ffffffffffffffff8111828210171561322e5761322e6131b8565b604052919050565b600067ffffffffffffffff821115613250576132506131b8565b5060051b60200190565b80356001600160a01b038116811461327157600080fd5b919050565b600082601f83011261328757600080fd5b8135602061329c61329783613236565b6131e7565b82815260059290921b840181019181810190868411156132bb57600080fd5b8286015b848110156132dd576132d08161325a565b83529183019183016132bf565b509695505050505050565b600082601f8301126132f957600080fd5b8135602061330961329783613236565b82815260059290921b8401810191818101908684111561332857600080fd5b8286015b848110156132dd578035835291830191830161332c565b60008060006060848603121561335857600080fd5b833567ffffffffffffffff8082111561337057600080fd5b61337c87838801613276565b9450602086013591508082111561339257600080fd5b61339e87838801613276565b935060408601359150808211156133b457600080fd5b506133c1868287016132e8565b9150509250925092565b60005b838110156133e65781810151838201526020016133ce565b838111156107545750506000910152565b6000815180845261340f8160208601602086016133cb565b601f017fffffffffffffffffffffffffffffffffffffffffffffffffffffffffffffffe0169290920160200192915050565b60208152600061102760208301846133f7565b60006020828403121561346657600080fd5b5035919050565b6000806040838503121561348057600080fd5b6134898361325a565b946020939093013593505050565b600082601f8301126134a857600080fd5b813567ffffffffffffffff8111156134c2576134c26131b8565b6134f360207fffffffffffffffffffffffffffffffffffffffffffffffffffffffffffffffe0601f840116016131e7565b81815284602083860101111561350857600080fd5b816020850160208301376000918101602001919091529392505050565b6000806040838503121561353857600080fd5b82359150602083013567ffffffffffffffff81111561355657600080fd5b61356285828601613497565b9150509250929050565b60008060006060848603121561358157600080fd5b61358a8461325a565b92506135986020850161325a565b9150604084013590509250925092565b600080604083850312156135bb57600080fd5b823591506135cb6020840161325a565b90509250929050565b6000602082840312156135e657600080fd5b813567ffffffffffffffff8111156135fd57600080fd5b61198484828501613497565b60006020828403121561361b57600080fd5b6110278261325a565b6000806040838503121561363757600080fd5b50508035926020909101359150565b6000806040838503121561365957600080fd5b6136628361325a565b91506020830135801515811461367757600080fd5b809150509250929050565b6000806040838503121561369557600080fd5b823567ffffffffffffffff808211156136ad57600080fd5b6136b9868387016132e8565b93506020915081850135818111156136d057600080fd5b8501601f810187136136e157600080fd5b80356136ef61329782613236565b81815260059190911b8201840190848101908983111561370e57600080fd5b8584015b838110156137465780358681111561372a5760008081fd5b6137388c8983890101613497565b845250918601918601613712565b508096505050505050509250929050565b6000806000806080858703121561376d57600080fd5b843567ffffffffffffffff8082111561378557600080fd5b61379188838901613276565b95506020915081870135818111156137a857600080fd5b6137b489828a01613276565b9550506040870135818111156137c957600080fd5b6137d589828a016132e8565b9450506060870135818111156137ea57600080fd5b8701601f810189136137fb57600080fd5b803561380961329782613236565b81815260059190911b8201840190848101908b83111561382857600080fd5b8584015b83811015613860578035868111156138445760008081fd5b6138528e8983890101613497565b84525091860191860161382c565b50989b979a50959850505050505050565b6000806000806080858703121561388757600080fd5b6138908561325a565b935061389e6020860161325a565b925060408501359150606085013567ffffffffffffffff8111156138c157600080fd5b6138cd87828801613497565b91505092959194509250565b600080604083850312156138ec57600080fd5b823567ffffffffffffffff8082111561390457600080fd5b61391086838701613276565b9350602085013591508082111561392657600080fd5b50613562858286016132e8565b6000806040838503121561394657600080fd5b61394f8361325a565b91506135cb6020840161325a565b7f4e487b7100000000000000000000000000000000000000000000000000000000600052603260045260246000fd5b7f4e487b7100000000000000000000000000000000000000000000000000000000600052601160045260246000fd5b60007fffffffffffffffffffffffffffffffffffffffffffffffffffffffffffffffff8214156139ed576139ed61398c565b5060010190565b600181811c90821680613a0857607f821691505b60208210811415613a42577f4e487b7100000000000000000000000000000000000000000000000000000000600052602260045260246000fd5b50919050565b600082821015613a5a57613a5a61398c565b500390565b60008219821115613a7257613a7261398c565b500190565b60008351613a898184602088016133cb565b835190830190613a9d8183602088016133cb565b01949350505050565b7f416363657373436f6e74726f6c3a206163636f756e7420000000000000000000815260008351613ade8160178501602088016133cb565b7f206973206d697373696e6720726f6c65200000000000000000000000000000006017918401918201528351613b1b8160288401602088016133cb565b01602801949350505050565b7f4e487b7100000000000000000000000000000000000000000000000000000000600052603160045260246000fd5b60006001600160a01b03808716835280861660208401525083604083015260806060830152613b8860808301846133f7565b9695505050505050565b600060208284031215613ba457600080fd5b81516110278161316d565b6000817fffffffffffffffffffffffffffffffffffffffffffffffffffffffffffffffff0483118215151615613be757613be761398c565b500290565b600081613bfb57613bfb61398c565b507fffffffffffffffffffffffffffffffffffffffffffffffffffffffffffffffff0190565b7f4e487b7100000000000000000000000000000000000000000000000000000000600052601260045260246000fd5b600082613c5f57613c5f613c21565b500490565b600082613c7357613c73613c21565b50069056fea2646970667358221220c820b4e1ce66127f656ca82e3d097696161e24564bfe76b1f003602207c192b864736f6c63430008090033a264697066735822122014cd4ecd8ae6746ba07e6e813e0e41d947bb8c2cae27c7dbadbe97ea6107406864736f6c63430008090033",
  "linkReferences": {},
  "deployedLinkReferences": {}
}