{
  "_format": "hh-sol-artifact-1",
  "contractName": "L1BuildParam",
  "sourceName": "contracts/oasys/L1/build/L1BuildParam.sol",
  "abi": [
    {
      "inputs": [
        {
          "internalType": "uint256",
          "name": "_maxTransactionGasLimit",
          "type": "uint256"
        },
        {
          "internalType": "uint256",
          "name": "_l2GasDiscountDivisor",
          "type": "uint256"
        },
        {
          "internalType": "uint256",
          "name": "_enqueueGasCost",
          "type": "uint256"
        },
        {
          "internalType": "uint256",
          "name": "_fraudProofWindow",
          "type": "uint256"
        },
        {
          "internalType": "uint256",
          "name": "_sequencerPublishWindow",
          "type": "uint256"
        }
      ],
      "stateMutability": "nonpayable",
      "type": "constructor"
    },
    {
      "inputs": [],
      "name": "enqueueGasCost",
      "outputs": [
        {
          "internalType": "uint256",
          "name": "",
          "type": "uint256"
        }
      ],
      "stateMutability": "view",
      "type": "function"
    },
    {
      "inputs": [],
      "name": "fraudProofWindow",
      "outputs": [
        {
          "internalType": "uint256",
          "name": "",
          "type": "uint256"
        }
      ],
      "stateMutability": "view",
      "type": "function"
    },
    {
      "inputs": [],
      "name": "l1ERC721BridgeCode",
      "outputs": [
        {
          "internalType": "bytes",
          "name": "",
          "type": "bytes"
        }
      ],
      "stateMutability": "view",
      "type": "function"
    },
    {
      "inputs": [],
      "name": "l1ERC721BridgeCodeHash",
      "outputs": [
        {
          "internalType": "bytes32",
          "name": "",
          "type": "bytes32"
        }
      ],
      "stateMutability": "view",
      "type": "function"
    },
    {
      "inputs": [],
      "name": "l1StandardBridgeCode",
      "outputs": [
        {
          "internalType": "bytes",
          "name": "",
          "type": "bytes"
        }
      ],
      "stateMutability": "view",
      "type": "function"
    },
    {
      "inputs": [],
      "name": "l1StandardBridgeCodeHash",
      "outputs": [
        {
          "internalType": "bytes32",
          "name": "",
          "type": "bytes32"
        }
      ],
      "stateMutability": "view",
      "type": "function"
    },
    {
      "inputs": [],
      "name": "l2GasDiscountDivisor",
      "outputs": [
        {
          "internalType": "uint256",
          "name": "",
          "type": "uint256"
        }
      ],
      "stateMutability": "view",
      "type": "function"
    },
    {
      "inputs": [],
      "name": "maxTransactionGasLimit",
      "outputs": [
        {
          "internalType": "uint256",
          "name": "",
          "type": "uint256"
        }
      ],
      "stateMutability": "view",
      "type": "function"
    },
    {
      "inputs": [],
      "name": "sequencerPublishWindow",
      "outputs": [
        {
          "internalType": "uint256",
          "name": "",
          "type": "uint256"
        }
      ],
      "stateMutability": "view",
      "type": "function"
    },
    {
      "inputs": [
        {
          "internalType": "bytes",
          "name": "_code",
          "type": "bytes"
        }
      ],
      "name": "setL1ERC721BridgeCode",
      "outputs": [],
      "stateMutability": "nonpayable",
      "type": "function"
    },
    {
      "inputs": [
        {
          "internalType": "bytes",
          "name": "_code",
          "type": "bytes"
        }
      ],
      "name": "setL1StandardBridgeCode",
      "outputs": [],
      "stateMutability": "nonpayable",
      "type": "function"
    }
  ],
  "bytecode": "0x608060405234801561001057600080fd5b5060405161074338038061074383398101604081905261002f91610049565b600094909455600192909255600255600355600455610089565b600080600080600060a0868803121561006157600080fd5b5050835160208501516040860151606087015160809097015192989197509594509092509050565b6106ab806100986000396000f3fe608060405234801561001057600080fd5b50600436106100c95760003560e01c80638d38c6c111610081578063e46020a11161005b578063e46020a11461013e578063e654b1fb14610147578063f066ab8a1461015057600080fd5b80638d38c6c114610124578063ca6573fb1461012d578063ccf987c81461013557600080fd5b806333f67e6a116100b257806333f67e6a146100fe57806335f7317c146101075780635f3d8cf91461010f57600080fd5b80630d1eb646146100ce57806332f51723146100e9575b600080fd5b6100d6610163565b6040519081526020015b60405180910390f35b6100f1610181565b6040516100e091906103dd565b6100d660045481565b6100f161020f565b61012261011d36600461047f565b61021c565b005b6100d660005481565b6100d66102ae565b6100d660015481565b6100d660035481565b6100d660025481565b61012261015e36600461047f565b6102bf565b6000600660405161017491906105a2565b6040518091039020905090565b6005805461018e9061054e565b80601f01602080910402602001604051908101604052809291908181526020018280546101ba9061054e565b80156102075780601f106101dc57610100808354040283529160200191610207565b820191906000526020600020905b8154815290600101906020018083116101ea57829003601f168201915b505050505081565b6006805461018e9061054e565b600580546102299061054e565b159050610297576040517f08c379a000000000000000000000000000000000000000000000000000000000815260206004820152601d60248201527f74686520636f64652068617320616c7265616479206265656e2073657400000060448201526064015b60405180910390fd5b80516102aa906005906020840190610344565b5050565b6000600560405161017491906105a2565b600680546102cc9061054e565b159050610335576040517f08c379a000000000000000000000000000000000000000000000000000000000815260206004820152601d60248201527f74686520636f64652068617320616c7265616479206265656e20736574000000604482015260640161028e565b80516102aa9060069060208401905b8280546103509061054e565b90600052602060002090601f01602090048101928261037257600085556103b8565b82601f1061038b57805160ff19168380011785556103b8565b828001600101855582156103b8579182015b828111156103b857825182559160200191906001019061039d565b506103c49291506103c8565b5090565b5b808211156103c457600081556001016103c9565b600060208083528351808285015260005b8181101561040a578581018301518582016040015282016103ee565b8181111561041c576000604083870101525b50601f017fffffffffffffffffffffffffffffffffffffffffffffffffffffffffffffffe016929092016040019392505050565b7f4e487b7100000000000000000000000000000000000000000000000000000000600052604160045260246000fd5b60006020828403121561049157600080fd5b813567ffffffffffffffff808211156104a957600080fd5b818401915084601f8301126104bd57600080fd5b8135818111156104cf576104cf610450565b604051601f82017fffffffffffffffffffffffffffffffffffffffffffffffffffffffffffffffe0908116603f0116810190838211818310171561051557610515610450565b8160405282815287602084870101111561052e57600080fd5b826020860160208301376000928101602001929092525095945050505050565b600181811c9082168061056257607f821691505b6020821081141561059c577f4e487b7100000000000000000000000000000000000000000000000000000000600052602260045260246000fd5b50919050565b600080835481600182811c9150808316806105be57607f831692505b60208084108214156105f7577f4e487b710000000000000000000000000000000000000000000000000000000086526022600452602486fd5b81801561060b576001811461063a57610667565b7fffffffffffffffffffffffffffffffffffffffffffffffffffffffffffffff00861689528489019650610667565b60008a81526020902060005b8681101561065f5781548b820152908501908301610646565b505084890196505b50949897505050505050505056fea264697066735822122098ada51d0593017691b400941339ca317312a35e536abc51d007c2120a0044a864736f6c63430008090033",
  "linkReferences": {},
  "deployedLinkReferences": {}
}