{
  "_format": "hh-sol-artifact-1",
  "contractName": "L2StandardERC721",
  "sourceName": "contracts/oasys/L2/token/L2StandardERC721.sol",
  "abi": [
    {
      "inputs": [
        {
          "internalType": "address",
          "name": "_l2Bridge",
          "type": "address"
        },
        {
          "internalType": "address",
          "name": "_l1Token",
          "type": "address"
        },
        {
          "internalType": "string",
          "name": "_name",
          "type": "string"
        },
        {
          "internalType": "string",
          "name": "_symbol",
          "type": "string"
        }
      ],
      "stateMutability": "nonpayable",
      "type": "constructor"
    },
    {
      "anonymous": false,
      "inputs": [
        {
          "indexed": true,
          "internalType": "address",
          "name": "owner",
          "type": "address"
        },
        {
          "indexed": true,
          "internalType": "address",
          "name": "approved",
          "type": "address"
        },
        {
          "indexed": true,
          "internalType": "uint256",
          "name": "tokenId",
          "type": "uint256"
        }
      ],
      "name": "Approval",
      "type": "event"
    },
    {
      "anonymous": false,
      "inputs": [
        {
          "indexed": true,
          "internalType": "address",
          "name": "owner",
          "type": "address"
        },
        {
          "indexed": true,
          "internalType": "address",
          "name": "operator",
          "type": "address"
        },
        {
          "indexed": false,
          "internalType": "bool",
          "name": "approved",
          "type": "bool"
        }
      ],
      "name": "ApprovalForAll",
      "type": "event"
    },
    {
      "anonymous": false,
      "inputs": [
        {
          "indexed": true,
          "internalType": "address",
          "name": "_account",
          "type": "address"
        },
        {
          "indexed": false,
          "internalType": "uint256",
          "name": "_tokenId",
          "type": "uint256"
        }
      ],
      "name": "L2BridgeBurn",
      "type": "event"
    },
    {
      "anonymous": false,
      "inputs": [
        {
          "indexed": true,
          "internalType": "address",
          "name": "_account",
          "type": "address"
        },
        {
          "indexed": false,
          "internalType": "uint256",
          "name": "_tokenId",
          "type": "uint256"
        }
      ],
      "name": "L2BridgeMint",
      "type": "event"
    },
    {
      "anonymous": false,
      "inputs": [
        {
          "indexed": true,
          "internalType": "address",
          "name": "from",
          "type": "address"
        },
        {
          "indexed": true,
          "internalType": "address",
          "name": "to",
          "type": "address"
        },
        {
          "indexed": true,
          "internalType": "uint256",
          "name": "tokenId",
          "type": "uint256"
        }
      ],
      "name": "Transfer",
      "type": "event"
    },
    {
      "inputs": [
        {
          "internalType": "address",
          "name": "to",
          "type": "address"
        },
        {
          "internalType": "uint256",
          "name": "tokenId",
          "type": "uint256"
        }
      ],
      "name": "approve",
      "outputs": [],
      "stateMutability": "nonpayable",
      "type": "function"
    },
    {
      "inputs": [
        {
          "internalType": "address",
          "name": "owner",
          "type": "address"
        }
      ],
      "name": "balanceOf",
      "outputs": [
        {
          "internalType": "uint256",
          "name": "",
          "type": "uint256"
        }
      ],
      "stateMutability": "view",
      "type": "function"
    },
    {
      "inputs": [
        {
          "internalType": "address",
          "name": "_from",
          "type": "address"
        },
        {
          "internalType": "uint256",
          "name": "_tokenId",
          "type": "uint256"
        }
      ],
      "name": "burn",
      "outputs": [],
      "stateMutability": "nonpayable",
      "type": "function"
    },
    {
      "inputs": [
        {
          "internalType": "uint256",
          "name": "tokenId",
          "type": "uint256"
        }
      ],
      "name": "getApproved",
      "outputs": [
        {
          "internalType": "address",
          "name": "",
          "type": "address"
        }
      ],
      "stateMutability": "view",
      "type": "function"
    },
    {
      "inputs": [
        {
          "internalType": "address",
          "name": "owner",
          "type": "address"
        },
        {
          "internalType": "address",
          "name": "operator",
          "type": "address"
        }
      ],
      "name": "isApprovedForAll",
      "outputs": [
        {
          "internalType": "bool",
          "name": "",
          "type": "bool"
        }
      ],
      "stateMutability": "view",
      "type": "function"
    },
    {
      "inputs": [],
      "name": "l1Token",
      "outputs": [
        {
          "internalType": "address",
          "name": "",
          "type": "address"
        }
      ],
      "stateMutability": "view",
      "type": "function"
    },
    {
      "inputs": [],
      "name": "l2Bridge",
      "outputs": [
        {
          "internalType": "address",
          "name": "",
          "type": "address"
        }
      ],
      "stateMutability": "view",
      "type": "function"
    },
    {
      "inputs": [
        {
          "internalType": "address",
          "name": "_to",
          "type": "address"
        },
        {
          "internalType": "uint256",
          "name": "_tokenId",
          "type": "uint256"
        }
      ],
      "name": "mint",
      "outputs": [],
      "stateMutability": "nonpayable",
      "type": "function"
    },
    {
      "inputs": [],
      "name": "name",
      "outputs": [
        {
          "internalType": "string",
          "name": "",
          "type": "string"
        }
      ],
      "stateMutability": "view",
      "type": "function"
    },
    {
      "inputs": [
        {
          "internalType": "uint256",
          "name": "tokenId",
          "type": "uint256"
        }
      ],
      "name": "ownerOf",
      "outputs": [
        {
          "internalType": "address",
          "name": "",
          "type": "address"
        }
      ],
      "stateMutability": "view",
      "type": "function"
    },
    {
      "inputs": [
        {
          "internalType": "address",
          "name": "from",
          "type": "address"
        },
        {
          "internalType": "address",
          "name": "to",
          "type": "address"
        },
        {
          "internalType": "uint256",
          "name": "tokenId",
          "type": "uint256"
        }
      ],
      "name": "safeTransferFrom",
      "outputs": [],
      "stateMutability": "nonpayable",
      "type": "function"
    },
    {
      "inputs": [
        {
          "internalType": "address",
          "name": "from",
          "type": "address"
        },
        {
          "internalType": "address",
          "name": "to",
          "type": "address"
        },
        {
          "internalType": "uint256",
          "name": "tokenId",
          "type": "uint256"
        },
        {
          "internalType": "bytes",
          "name": "_data",
          "type": "bytes"
        }
      ],
      "name": "safeTransferFrom",
      "outputs": [],
      "stateMutability": "nonpayable",
      "type": "function"
    },
    {
      "inputs": [
        {
          "internalType": "address",
          "name": "operator",
          "type": "address"
        },
        {
          "internalType": "bool",
          "name": "approved",
          "type": "bool"
        }
      ],
      "name": "setApprovalForAll",
      "outputs": [],
      "stateMutability": "nonpayable",
      "type": "function"
    },
    {
      "inputs": [
        {
          "internalType": "bytes4",
          "name": "interfaceId",
          "type": "bytes4"
        }
      ],
      "name": "supportsInterface",
      "outputs": [
        {
          "internalType": "bool",
          "name": "",
          "type": "bool"
        }
      ],
      "stateMutability": "view",
      "type": "function"
    },
    {
      "inputs": [],
      "name": "symbol",
      "outputs": [
        {
          "internalType": "string",
          "name": "",
          "type": "string"
        }
      ],
      "stateMutability": "view",
      "type": "function"
    },
    {
      "inputs": [
        {
          "internalType": "uint256",
          "name": "index",
          "type": "uint256"
        }
      ],
      "name": "tokenByIndex",
      "outputs": [
        {
          "internalType": "uint256",
          "name": "",
          "type": "uint256"
        }
      ],
      "stateMutability": "view",
      "type": "function"
    },
    {
      "inputs": [
        {
          "internalType": "address",
          "name": "owner",
          "type": "address"
        },
        {
          "internalType": "uint256",
          "name": "index",
          "type": "uint256"
        }
      ],
      "name": "tokenOfOwnerByIndex",
      "outputs": [
        {
          "internalType": "uint256",
          "name": "",
          "type": "uint256"
        }
      ],
      "stateMutability": "view",
      "type": "function"
    },
    {
      "inputs": [
        {
          "internalType": "uint256",
          "name": "tokenId",
          "type": "uint256"
        }
      ],
      "name": "tokenURI",
      "outputs": [
        {
          "internalType": "string",
          "name": "",
          "type": "string"
        }
      ],
      "stateMutability": "view",
      "type": "function"
    },
    {
      "inputs": [],
      "name": "totalSupply",
      "outputs": [
        {
          "internalType": "uint256",
          "name": "",
          "type": "uint256"
        }
      ],
      "stateMutability": "view",
      "type": "function"
    },
    {
      "inputs": [
        {
          "internalType": "address",
          "name": "from",
          "type": "address"
        },
        {
          "internalType": "address",
          "name": "to",
          "type": "address"
        },
        {
          "internalType": "uint256",
          "name": "tokenId",
          "type": "uint256"
        }
      ],
      "name": "transferFrom",
      "outputs": [],
      "stateMutability": "nonpayable",
      "type": "function"
    }
  ],
  "bytecode": "0x60806040523480156200001157600080fd5b506040516200221c3803806200221c83398101604081905262000034916200022f565b8151829082906200004d9060009060208501906200009f565b508051620000639060019060208401906200009f565b5050600a80546001600160a01b039586166001600160a01b031991821617909155600b80549690951695169490941790925550620002fc915050565b828054620000ad90620002bf565b90600052602060002090601f016020900481019282620000d157600085556200011c565b82601f10620000ec57805160ff19168380011785556200011c565b828001600101855582156200011c579182015b828111156200011c578251825591602001919060010190620000ff565b506200012a9291506200012e565b5090565b5b808211156200012a57600081556001016200012f565b80516001600160a01b03811681146200015d57600080fd5b919050565b634e487b7160e01b600052604160045260246000fd5b600082601f8301126200018a57600080fd5b81516001600160401b0380821115620001a757620001a762000162565b604051601f8301601f19908116603f01168101908282118183101715620001d257620001d262000162565b81604052838152602092508683858801011115620001ef57600080fd5b600091505b83821015620002135785820183015181830184015290820190620001f4565b83821115620002255760008385830101525b9695505050505050565b600080600080608085870312156200024657600080fd5b620002518562000145565b9350620002616020860162000145565b60408601519093506001600160401b03808211156200027f57600080fd5b6200028d8883890162000178565b93506060870151915080821115620002a457600080fd5b50620002b38782880162000178565b91505092959194509250565b600181811c90821680620002d457607f821691505b60208210811415620002f657634e487b7160e01b600052602260045260246000fd5b50919050565b611f10806200030c6000396000f3fe608060405234801561001057600080fd5b506004361061016c5760003560e01c80636352211e116100cd578063ae1f6aaf11610081578063c01e1bd611610066578063c01e1bd6146102d9578063c87b56dd146102ec578063e985e9c5146102ff57600080fd5b8063ae1f6aaf146102b3578063b88d4fde146102c657600080fd5b806395d89b41116100b257806395d89b41146102855780639dc29fac1461028d578063a22cb465146102a057600080fd5b80636352211e1461025f57806370a082311461027257600080fd5b806323b872dd1161012457806340c10f191161010957806340c10f191461022657806342842e0e146102395780634f6ccce71461024c57600080fd5b806323b872dd146102005780632f745c591461021357600080fd5b8063081812fc11610155578063081812fc146101ae578063095ea7b3146101d957806318160ddd146101ee57600080fd5b806301ffc9a71461017157806306fdde0314610199575b600080fd5b61018461017f3660046119be565b61033b565b60405190151581526020015b60405180910390f35b6101a1610397565b6040516101909190611a51565b6101c16101bc366004611a64565b610429565b6040516001600160a01b039091168152602001610190565b6101ec6101e7366004611a99565b6104d4565b005b6008545b604051908152602001610190565b6101ec61020e366004611ac3565b610606565b6101f2610221366004611a99565b61068d565b6101ec610234366004611a99565b610735565b6101ec610247366004611ac3565b6107e0565b6101f261025a366004611a64565b6107fb565b6101c161026d366004611a64565b61089f565b6101f2610280366004611aff565b61092a565b6101a16109c4565b6101ec61029b366004611a99565b6109d3565b6101ec6102ae366004611b1a565b610a71565b600b546101c1906001600160a01b031681565b6101ec6102d4366004611b85565b610b54565b600a546101c1906001600160a01b031681565b6101a16102fa366004611a64565b610be2565b61018461030d366004611c7f565b6001600160a01b03918216600090815260056020908152604080832093909416825291909152205460ff1690565b60007fffffffff0000000000000000000000000000000000000000000000000000000082167f1d1d8b63000000000000000000000000000000000000000000000000000000001480610391575061039182610cd8565b92915050565b6060600080546103a690611cb2565b80601f01602080910402602001604051908101604052809291908181526020018280546103d290611cb2565b801561041f5780601f106103f45761010080835404028352916020019161041f565b820191906000526020600020905b81548152906001019060200180831161040257829003601f168201915b5050505050905090565b6000818152600260205260408120546001600160a01b03166104b85760405162461bcd60e51b815260206004820152602c60248201527f4552433732313a20617070726f76656420717565727920666f72206e6f6e657860448201527f697374656e7420746f6b656e000000000000000000000000000000000000000060648201526084015b60405180910390fd5b506000908152600460205260409020546001600160a01b031690565b60006104df8261089f565b9050806001600160a01b0316836001600160a01b031614156105695760405162461bcd60e51b815260206004820152602160248201527f4552433732313a20617070726f76616c20746f2063757272656e74206f776e6560448201527f720000000000000000000000000000000000000000000000000000000000000060648201526084016104af565b336001600160a01b03821614806105855750610585813361030d565b6105f75760405162461bcd60e51b815260206004820152603860248201527f4552433732313a20617070726f76652063616c6c6572206973206e6f74206f7760448201527f6e6572206e6f7220617070726f76656420666f7220616c6c000000000000000060648201526084016104af565b6106018383610d2e565b505050565b6106103382610db4565b6106825760405162461bcd60e51b815260206004820152603160248201527f4552433732313a207472616e736665722063616c6c6572206973206e6f74206f60448201527f776e6572206e6f7220617070726f76656400000000000000000000000000000060648201526084016104af565b610601838383610ebc565b60006106988361092a565b821061070c5760405162461bcd60e51b815260206004820152602b60248201527f455243373231456e756d657261626c653a206f776e657220696e646578206f7560448201527f74206f6620626f756e647300000000000000000000000000000000000000000060648201526084016104af565b506001600160a01b03919091166000908152600660209081526040808320938352929052205490565b600b546001600160a01b0316331461078f5760405162461bcd60e51b815260206004820181905260248201527f4f6e6c79204c32204272696467652063616e206d696e7420616e64206275726e60448201526064016104af565b61079982826110ac565b816001600160a01b03167f5171d7763d81890a1b70ea44720d391bf8e865532af2fd40d0910dfe27783925826040516107d491815260200190565b60405180910390a25050565b61060183838360405180602001604052806000815250610b54565b600061080660085490565b821061087a5760405162461bcd60e51b815260206004820152602c60248201527f455243373231456e756d657261626c653a20676c6f62616c20696e646578206f60448201527f7574206f6620626f756e6473000000000000000000000000000000000000000060648201526084016104af565b6008828154811061088d5761088d611d06565b90600052602060002001549050919050565b6000818152600260205260408120546001600160a01b0316806103915760405162461bcd60e51b815260206004820152602960248201527f4552433732313a206f776e657220717565727920666f72206e6f6e657869737460448201527f656e7420746f6b656e000000000000000000000000000000000000000000000060648201526084016104af565b60006001600160a01b0382166109a85760405162461bcd60e51b815260206004820152602a60248201527f4552433732313a2062616c616e636520717565727920666f7220746865207a6560448201527f726f20616464726573730000000000000000000000000000000000000000000060648201526084016104af565b506001600160a01b031660009081526003602052604090205490565b6060600180546103a690611cb2565b600b546001600160a01b03163314610a2d5760405162461bcd60e51b815260206004820181905260248201527f4f6e6c79204c32204272696467652063616e206d696e7420616e64206275726e60448201526064016104af565b610a3681611212565b816001600160a01b03167f97d58865f212efa4a64ef02844d3cddc2f8f2e3ee3b2c92094a9cb6e85bab8db826040516107d491815260200190565b6001600160a01b038216331415610aca5760405162461bcd60e51b815260206004820152601960248201527f4552433732313a20617070726f766520746f2063616c6c65720000000000000060448201526064016104af565b3360008181526005602090815260408083206001600160a01b0387168085529083529281902080547fffffffffffffffffffffffffffffffffffffffffffffffffffffffffffffff001686151590811790915590519081529192917f17307eab39ab6107e8899845ad3d59bd9653f200f220920489ca2b5937696c31910160405180910390a35050565b610b5e3383610db4565b610bd05760405162461bcd60e51b815260206004820152603160248201527f4552433732313a207472616e736665722063616c6c6572206973206e6f74206f60448201527f776e6572206e6f7220617070726f76656400000000000000000000000000000060648201526084016104af565b610bdc848484846112d1565b50505050565b6000818152600260205260409020546060906001600160a01b0316610c6f5760405162461bcd60e51b815260206004820152602f60248201527f4552433732314d657461646174613a2055524920717565727920666f72206e6f60448201527f6e6578697374656e7420746f6b656e000000000000000000000000000000000060648201526084016104af565b6000610c8660408051602081019091526000815290565b90506000815111610ca65760405180602001604052806000815250610cd1565b80610cb08461135a565b604051602001610cc1929190611d35565b6040516020818303038152906040525b9392505050565b60007fffffffff0000000000000000000000000000000000000000000000000000000082167f780e9d6300000000000000000000000000000000000000000000000000000000148061039157506103918261148c565b600081815260046020526040902080547fffffffffffffffffffffffff0000000000000000000000000000000000000000166001600160a01b0384169081179091558190610d7b8261089f565b6001600160a01b03167f8c5be1e5ebec7d5bd14f71427d1e84f3dd0314c0f7b2291e5b200ac8c7c3b92560405160405180910390a45050565b6000818152600260205260408120546001600160a01b0316610e3e5760405162461bcd60e51b815260206004820152602c60248201527f4552433732313a206f70657261746f7220717565727920666f72206e6f6e657860448201527f697374656e7420746f6b656e000000000000000000000000000000000000000060648201526084016104af565b6000610e498361089f565b9050806001600160a01b0316846001600160a01b03161480610e845750836001600160a01b0316610e7984610429565b6001600160a01b0316145b80610eb457506001600160a01b0380821660009081526005602090815260408083209388168352929052205460ff165b949350505050565b826001600160a01b0316610ecf8261089f565b6001600160a01b031614610f4b5760405162461bcd60e51b815260206004820152602960248201527f4552433732313a207472616e73666572206f6620746f6b656e2074686174206960448201527f73206e6f74206f776e000000000000000000000000000000000000000000000060648201526084016104af565b6001600160a01b038216610fc65760405162461bcd60e51b8152602060048201526024808201527f4552433732313a207472616e7366657220746f20746865207a65726f2061646460448201527f726573730000000000000000000000000000000000000000000000000000000060648201526084016104af565b610fd183838361156f565b610fdc600082610d2e565b6001600160a01b0383166000908152600360205260408120805460019290611005908490611d93565b90915550506001600160a01b0382166000908152600360205260408120805460019290611033908490611daa565b909155505060008181526002602052604080822080547fffffffffffffffffffffffff0000000000000000000000000000000000000000166001600160a01b0386811691821790925591518493918716917fddf252ad1be2c89b69c2b068fc378daa952ba7f163c4a11628f55a4df523b3ef91a4505050565b6001600160a01b0382166111025760405162461bcd60e51b815260206004820181905260248201527f4552433732313a206d696e7420746f20746865207a65726f206164647265737360448201526064016104af565b6000818152600260205260409020546001600160a01b0316156111675760405162461bcd60e51b815260206004820152601c60248201527f4552433732313a20746f6b656e20616c7265616479206d696e7465640000000060448201526064016104af565b6111736000838361156f565b6001600160a01b038216600090815260036020526040812080546001929061119c908490611daa565b909155505060008181526002602052604080822080547fffffffffffffffffffffffff0000000000000000000000000000000000000000166001600160a01b03861690811790915590518392907fddf252ad1be2c89b69c2b068fc378daa952ba7f163c4a11628f55a4df523b3ef908290a45050565b600061121d8261089f565b905061122b8160008461156f565b611236600083610d2e565b6001600160a01b038116600090815260036020526040812080546001929061125f908490611d93565b909155505060008281526002602052604080822080547fffffffffffffffffffffffff0000000000000000000000000000000000000000169055518391906001600160a01b038416907fddf252ad1be2c89b69c2b068fc378daa952ba7f163c4a11628f55a4df523b3ef908390a45050565b6112dc848484610ebc565b6112e88484848461157a565b610bdc5760405162461bcd60e51b815260206004820152603260248201527f4552433732313a207472616e7366657220746f206e6f6e20455243373231526560448201527f63656976657220696d706c656d656e746572000000000000000000000000000060648201526084016104af565b60608161139a57505060408051808201909152600181527f3000000000000000000000000000000000000000000000000000000000000000602082015290565b8160005b81156113c457806113ae81611dc2565b91506113bd9050600a83611e2a565b915061139e565b60008167ffffffffffffffff8111156113df576113df611b56565b6040519080825280601f01601f191660200182016040528015611409576020820181803683370190505b5090505b8415610eb45761141e600183611d93565b915061142b600a86611e3e565b611436906030611daa565b60f81b81838151811061144b5761144b611d06565b60200101907effffffffffffffffffffffffffffffffffffffffffffffffffffffffffffff1916908160001a905350611485600a86611e2a565b945061140d565b60007fffffffff0000000000000000000000000000000000000000000000000000000082167f80ac58cd00000000000000000000000000000000000000000000000000000000148061151f57507fffffffff0000000000000000000000000000000000000000000000000000000082167f5b5e139f00000000000000000000000000000000000000000000000000000000145b8061039157507f01ffc9a7000000000000000000000000000000000000000000000000000000007fffffffff00000000000000000000000000000000000000000000000000000000831614610391565b610601838383611745565b60006001600160a01b0384163b1561173a576040517f150b7a020000000000000000000000000000000000000000000000000000000081526001600160a01b0385169063150b7a02906115d7903390899088908890600401611e52565b602060405180830381600087803b1580156115f157600080fd5b505af192505050801561163f575060408051601f3d9081017fffffffffffffffffffffffffffffffffffffffffffffffffffffffffffffffe016820190925261163c91810190611e8e565b60015b6116ef573d80801561166d576040519150601f19603f3d011682016040523d82523d6000602084013e611672565b606091505b5080516116e75760405162461bcd60e51b815260206004820152603260248201527f4552433732313a207472616e7366657220746f206e6f6e20455243373231526560448201527f63656976657220696d706c656d656e746572000000000000000000000000000060648201526084016104af565b805181602001fd5b7fffffffff00000000000000000000000000000000000000000000000000000000167f150b7a0200000000000000000000000000000000000000000000000000000000149050610eb4565b506001949350505050565b6001600160a01b0383166117a05761179b81600880546000838152600960205260408120829055600182018355919091527ff3f7a9fe364faab93b216da50a3214154f22a0a2b415b23a84c8169e8b636ee30155565b6117c3565b816001600160a01b0316836001600160a01b0316146117c3576117c383826117fd565b6001600160a01b0382166117da576106018161189a565b826001600160a01b0316826001600160a01b031614610601576106018282611949565b6000600161180a8461092a565b6118149190611d93565b600083815260076020526040902054909150808214611867576001600160a01b03841660009081526006602090815260408083208584528252808320548484528184208190558352600790915290208190555b5060009182526007602090815260408084208490556001600160a01b039094168352600681528383209183525290812055565b6008546000906118ac90600190611d93565b600083815260096020526040812054600880549394509092849081106118d4576118d4611d06565b9060005260206000200154905080600883815481106118f5576118f5611d06565b600091825260208083209091019290925582815260099091526040808220849055858252812055600880548061192d5761192d611eab565b6001900381819060005260206000200160009055905550505050565b60006119548361092a565b6001600160a01b039093166000908152600660209081526040808320868452825280832085905593825260079052919091209190915550565b7fffffffff00000000000000000000000000000000000000000000000000000000811681146119bb57600080fd5b50565b6000602082840312156119d057600080fd5b8135610cd18161198d565b60005b838110156119f65781810151838201526020016119de565b83811115610bdc5750506000910152565b60008151808452611a1f8160208601602086016119db565b601f017fffffffffffffffffffffffffffffffffffffffffffffffffffffffffffffffe0169290920160200192915050565b602081526000610cd16020830184611a07565b600060208284031215611a7657600080fd5b5035919050565b80356001600160a01b0381168114611a9457600080fd5b919050565b60008060408385031215611aac57600080fd5b611ab583611a7d565b946020939093013593505050565b600080600060608486031215611ad857600080fd5b611ae184611a7d565b9250611aef60208501611a7d565b9150604084013590509250925092565b600060208284031215611b1157600080fd5b610cd182611a7d565b60008060408385031215611b2d57600080fd5b611b3683611a7d565b915060208301358015158114611b4b57600080fd5b809150509250929050565b7f4e487b7100000000000000000000000000000000000000000000000000000000600052604160045260246000fd5b60008060008060808587031215611b9b57600080fd5b611ba485611a7d565b9350611bb260208601611a7d565b925060408501359150606085013567ffffffffffffffff80821115611bd657600080fd5b818701915087601f830112611bea57600080fd5b813581811115611bfc57611bfc611b56565b604051601f82017fffffffffffffffffffffffffffffffffffffffffffffffffffffffffffffffe0908116603f01168101908382118183101715611c4257611c42611b56565b816040528281528a6020848701011115611c5b57600080fd5b82602086016020830137600060208483010152809550505050505092959194509250565b60008060408385031215611c9257600080fd5b611c9b83611a7d565b9150611ca960208401611a7d565b90509250929050565b600181811c90821680611cc657607f821691505b60208210811415611d00577f4e487b7100000000000000000000000000000000000000000000000000000000600052602260045260246000fd5b50919050565b7f4e487b7100000000000000000000000000000000000000000000000000000000600052603260045260246000fd5b60008351611d478184602088016119db565b835190830190611d5b8183602088016119db565b01949350505050565b7f4e487b7100000000000000000000000000000000000000000000000000000000600052601160045260246000fd5b600082821015611da557611da5611d64565b500390565b60008219821115611dbd57611dbd611d64565b500190565b60007fffffffffffffffffffffffffffffffffffffffffffffffffffffffffffffffff821415611df457611df4611d64565b5060010190565b7f4e487b7100000000000000000000000000000000000000000000000000000000600052601260045260246000fd5b600082611e3957611e39611dfb565b500490565b600082611e4d57611e4d611dfb565b500690565b60006001600160a01b03808716835280861660208401525083604083015260806060830152611e846080830184611a07565b9695505050505050565b600060208284031215611ea057600080fd5b8151610cd18161198d565b7f4e487b7100000000000000000000000000000000000000000000000000000000600052603160045260246000fdfea2646970667358221220c9a84b51a510921b1ed4e72b45119e5e79712cd5ad349c14b8b8b9f90faf5cd564736f6c63430008090033",
  "linkReferences": {},
  "deployedLinkReferences": {}
}