{
  "abi": [
    {
      "inputs": [
        {
          "components": [
            {
              "internalType": "address",
              "name": "target",
              "type": "address"
            },
            {
              "internalType": "bytes",
              "name": "callData",
              "type": "bytes"
            }
          ],
          "internalType": "struct Multicall2.Call[]",
          "name": "calls",
          "type": "tuple[]"
        }
      ],
      "name": "aggregate",
      "outputs": [
        {
          "internalType": "uint256",
          "name": "blockNumber",
          "type": "uint256"
        },
        {
          "internalType": "bytes[]",
          "name": "returnData",
          "type": "bytes[]"
        }
      ],
      "stateMutability": "nonpayable",
      "type": "function"
    },
    {
      "inputs": [
        {
          "components": [
            {
              "internalType": "address",
              "name": "target",
              "type": "address"
            },
            {
              "internalType": "bytes",
              "name": "callData",
              "type": "bytes"
            }
          ],
          "internalType": "struct Multicall2.Call[]",
          "name": "calls",
          "type": "tuple[]"
        }
      ],
      "name": "blockAndAggregate",
      "outputs": [
        {
          "internalType": "uint256",
          "name": "blockNumber",
          "type": "uint256"
        },
        {
          "internalType": "bytes32",
          "name": "blockHash",
          "type": "bytes32"
        },
        {
          "components": [
            {
              "internalType": "bool",
              "name": "success",
              "type": "bool"
            },
            {
              "internalType": "bytes",
              "name": "returnData",
              "type": "bytes"
            }
          ],
          "internalType": "struct Multicall2.Result[]",
          "name": "returnData",
          "type": "tuple[]"
        }
      ],
      "stateMutability": "nonpayable",
      "type": "function"
    },
    {
      "inputs": [
        {
          "internalType": "uint256",
          "name": "blockNumber",
          "type": "uint256"
        }
      ],
      "name": "getBlockHash",
      "outputs": [
        {
          "internalType": "bytes32",
          "name": "blockHash",
          "type": "bytes32"
        }
      ],
      "stateMutability": "view",
      "type": "function"
    },
    {
      "inputs": [],
      "name": "getBlockNumber",
      "outputs": [
        {
          "internalType": "uint256",
          "name": "blockNumber",
          "type": "uint256"
        }
      ],
      "stateMutability": "view",
      "type": "function"
    },
    {
      "inputs": [],
      "name": "getCurrentBlockCoinbase",
      "outputs": [
        {
          "internalType": "address",
          "name": "coinbase",
          "type": "address"
        }
      ],
      "stateMutability": "view",
      "type": "function"
    },
    {
      "inputs": [],
      "name": "getCurrentBlockDifficulty",
      "outputs": [
        {
          "internalType": "uint256",
          "name": "difficulty",
          "type": "uint256"
        }
      ],
      "stateMutability": "view",
      "type": "function"
    },
    {
      "inputs": [],
      "name": "getCurrentBlockGasLimit",
      "outputs": [
        {
          "internalType": "uint256",
          "name": "gaslimit",
          "type": "uint256"
        }
      ],
      "stateMutability": "view",
      "type": "function"
    },
    {
      "inputs": [],
      "name": "getCurrentBlockTimestamp",
      "outputs": [
        {
          "internalType": "uint256",
          "name": "timestamp",
          "type": "uint256"
        }
      ],
      "stateMutability": "view",
      "type": "function"
    },
    {
      "inputs": [
        {
          "internalType": "address",
          "name": "addr",
          "type": "address"
        }
      ],
      "name": "getEthBalance",
      "outputs": [
        {
          "internalType": "uint256",
          "name": "balance",
          "type": "uint256"
        }
      ],
      "stateMutability": "view",
      "type": "function"
    },
    {
      "inputs": [],
      "name": "getLastBlockHash",
      "outputs": [
        {
          "internalType": "bytes32",
          "name": "blockHash",
          "type": "bytes32"
        }
      ],
      "stateMutability": "view",
      "type": "function"
    },
    {
      "inputs": [
        {
          "internalType": "bool",
          "name": "requireSuccess",
          "type": "bool"
        },
        {
          "components": [
            {
              "internalType": "address",
              "name": "target",
              "type": "address"
            },
            {
              "internalType": "bytes",
              "name": "callData",
              "type": "bytes"
            }
          ],
          "internalType": "struct Multicall2.Call[]",
          "name": "calls",
          "type": "tuple[]"
        }
      ],
      "name": "tryAggregate",
      "outputs": [
        {
          "components": [
            {
              "internalType": "bool",
              "name": "success",
              "type": "bool"
            },
            {
              "internalType": "bytes",
              "name": "returnData",
              "type": "bytes"
            }
          ],
          "internalType": "struct Multicall2.Result[]",
          "name": "returnData",
          "type": "tuple[]"
        }
      ],
      "stateMutability": "nonpayable",
      "type": "function"
    },
    {
      "inputs": [
        {
          "internalType": "bool",
          "name": "requireSuccess",
          "type": "bool"
        },
        {
          "components": [
            {
              "internalType": "address",
              "name": "target",
              "type": "address"
            },
            {
              "internalType": "bytes",
              "name": "callData",
              "type": "bytes"
            }
          ],
          "internalType": "struct Multicall2.Call[]",
          "name": "calls",
          "type": "tuple[]"
        }
      ],
      "name": "tryBlockAndAggregate",
      "outputs": [
        {
          "internalType": "uint256",
          "name": "blockNumber",
          "type": "uint256"
        },
        {
          "internalType": "bytes32",
          "name": "blockHash",
          "type": "bytes32"
        },
        {
          "components": [
            {
              "internalType": "bool",
              "name": "success",
              "type": "bool"
            },
            {
              "internalType": "bytes",
              "name": "returnData",
              "type": "bytes"
            }
          ],
          "internalType": "struct Multicall2.Result[]",
          "name": "returnData",
          "type": "tuple[]"
        }
      ],
      "stateMutability": "nonpayable",
      "type": "function"
    }
  ],
  "bytecode": {
    "object": "0x608060405234801561001057600080fd5b50610aa8806100206000396000f3fe608060405234801561001057600080fd5b50600436106100d45760003560e01c806372425d9d11610081578063bce38bd71161005b578063bce38bd714610181578063c3077fa9146101a1578063ee82ac5e146101b457600080fd5b806372425d9d1461016757806386d516e81461016d578063a8b0574e1461017357600080fd5b8063399542e9116100b2578063399542e91461011757806342cbb15c146101395780634d2301cc1461013f57600080fd5b80630f28c97d146100d9578063252dba42146100ee57806327e86d6e1461010f575b600080fd5b425b6040519081526020015b60405180910390f35b6101016100fc36600461065a565b6101c6565b6040516100e5929190610707565b6100db61039c565b61012a61012536600461078f565b6103af565b6040516100e593929190610851565b436100db565b6100db61014d366004610879565b73ffffffffffffffffffffffffffffffffffffffff163190565b446100db565b456100db565b6040514181526020016100e5565b61019461018f36600461078f565b6103ca565b6040516100e591906108b6565b61012a6101af36600461065a565b6105ef565b6100db6101c23660046108c9565b4090565b4360608267ffffffffffffffff8111156101e2576101e26108e2565b60405190808252806020026020018201604052801561021557816020015b60608152602001906001900390816102005790505b50905060005b838110156103945760008086868481811061023857610238610911565b905060200281019061024a9190610940565b610258906020810190610879565b73ffffffffffffffffffffffffffffffffffffffff1687878581811061028057610280610911565b90506020028101906102929190610940565b6102a090602081019061097e565b6040516102ae9291906109e3565b6000604051808303816000865af19150503d80600081146102eb576040519150601f19603f3d011682016040523d82523d6000602084013e6102f0565b606091505b509150915081610361576040517f08c379a000000000000000000000000000000000000000000000000000000000815260206004820181905260248201527f4d756c746963616c6c206167677265676174653a2063616c6c206661696c656460448201526064015b60405180910390fd5b8084848151811061037457610374610911565b60200260200101819052505050808061038c90610a22565b91505061021b565b509250929050565b60006103a9600143610a5b565b40905090565b43804060606103bf8686866103ca565b905093509350939050565b60608167ffffffffffffffff8111156103e5576103e56108e2565b60405190808252806020026020018201604052801561042b57816020015b6040805180820190915260008152606060208201528152602001906001900390816104035790505b50905060005b828110156105e75760008085858481811061044e5761044e610911565b90506020028101906104609190610940565b61046e906020810190610879565b73ffffffffffffffffffffffffffffffffffffffff1686868581811061049657610496610911565b90506020028101906104a89190610940565b6104b690602081019061097e565b6040516104c49291906109e3565b6000604051808303816000865af19150503d8060008114610501576040519150601f19603f3d011682016040523d82523d6000602084013e610506565b606091505b5091509150861561059e578161059e576040517f08c379a000000000000000000000000000000000000000000000000000000000815260206004820152602160248201527f4d756c746963616c6c32206167677265676174653a2063616c6c206661696c6560448201527f64000000000000000000000000000000000000000000000000000000000000006064820152608401610358565b60405180604001604052808315158152602001828152508484815181106105c7576105c7610911565b6020026020010181905250505080806105df90610a22565b915050610431565b509392505050565b6000806060610600600186866103af565b919790965090945092505050565b60008083601f84011261062057600080fd5b50813567ffffffffffffffff81111561063857600080fd5b6020830191508360208260051b850101111561065357600080fd5b9250929050565b6000806020838503121561066d57600080fd5b823567ffffffffffffffff81111561068457600080fd5b6106908582860161060e565b90969095509350505050565b6000815180845260005b818110156106c2576020818501810151868301820152016106a6565b818111156106d4576000602083870101525b50601f017fffffffffffffffffffffffffffffffffffffffffffffffffffffffffffffffe0169290920160200192915050565b600060408201848352602060408185015281855180845260608601915060608160051b870101935082870160005b82811015610781577fffffffffffffffffffffffffffffffffffffffffffffffffffffffffffffffa088870301845261076f86835161069c565b95509284019290840190600101610735565b509398975050505050505050565b6000806000604084860312156107a457600080fd5b833580151581146107b457600080fd5b9250602084013567ffffffffffffffff8111156107d057600080fd5b6107dc8682870161060e565b9497909650939450505050565b6000815180845260208085019450848260051b860182860160005b85811015610844578383038952815180511515845285015160408685018190526108308186018361069c565b9a87019a9450505090840190600101610804565b5090979650505050505050565b83815282602082015260606040820152600061087060608301846107e9565b95945050505050565b60006020828403121561088b57600080fd5b813573ffffffffffffffffffffffffffffffffffffffff811681146108af57600080fd5b9392505050565b6020815260006108af60208301846107e9565b6000602082840312156108db57600080fd5b5035919050565b7f4e487b7100000000000000000000000000000000000000000000000000000000600052604160045260246000fd5b7f4e487b7100000000000000000000000000000000000000000000000000000000600052603260045260246000fd5b600082357fffffffffffffffffffffffffffffffffffffffffffffffffffffffffffffffc183360301811261097457600080fd5b9190910192915050565b60008083357fffffffffffffffffffffffffffffffffffffffffffffffffffffffffffffffe18436030181126109b357600080fd5b83018035915067ffffffffffffffff8211156109ce57600080fd5b60200191503681900382131561065357600080fd5b8183823760009101908152919050565b7f4e487b7100000000000000000000000000000000000000000000000000000000600052601160045260246000fd5b60007fffffffffffffffffffffffffffffffffffffffffffffffffffffffffffffffff821415610a5457610a546109f3565b5060010190565b600082821015610a6d57610a6d6109f3565b50039056fea264697066735822122022db2ee67420bbe9c730b360414aa67113c14d58b271a15ebefaf39e9caea82f64736f6c634300080c0033",
    "linkReferences": {}
  }
}