{
  "_format": "hh-sol-artifact-1",
  "contractName": "OasysStateCommitmentChainVerifier",
  "sourceName": "contracts/oasys/L1/rollup/OasysStateCommitmentChainVerifier.sol",
  "abi": [
    {
      "inputs": [
        {
          "internalType": "address",
          "name": "signer",
          "type": "address"
        }
      ],
      "name": "InvalidAddressSort",
      "type": "error"
    },
    {
      "inputs": [
        {
          "internalType": "bytes",
          "name": "signature",
          "type": "bytes"
        },
        {
          "internalType": "string",
          "name": "reason",
          "type": "string"
        }
      ],
      "name": "InvalidSignature",
      "type": "error"
    },
    {
      "inputs": [
        {
          "internalType": "uint256",
          "name": "required",
          "type": "uint256"
        },
        {
          "internalType": "uint256",
          "name": "verified",
          "type": "uint256"
        }
      ],
      "name": "StakeAmountShortage",
      "type": "error"
    },
    {
      "anonymous": false,
      "inputs": [
        {
          "indexed": true,
          "internalType": "address",
          "name": "stateCommitmentChain",
          "type": "address"
        },
        {
          "indexed": true,
          "internalType": "uint256",
          "name": "batchIndex",
          "type": "uint256"
        },
        {
          "indexed": false,
          "internalType": "bytes32",
          "name": "batchRoot",
          "type": "bytes32"
        }
      ],
      "name": "StateBatchApproved",
      "type": "event"
    },
    {
      "anonymous": false,
      "inputs": [
        {
          "indexed": true,
          "internalType": "address",
          "name": "stateCommitmentChain",
          "type": "address"
        },
        {
          "indexed": true,
          "internalType": "uint256",
          "name": "batchIndex",
          "type": "uint256"
        },
        {
          "indexed": false,
          "internalType": "bytes32",
          "name": "batchRoot",
          "type": "bytes32"
        }
      ],
      "name": "StateBatchRejected",
      "type": "event"
    },
    {
      "inputs": [
        {
          "internalType": "address",
          "name": "stateCommitmentChain",
          "type": "address"
        },
        {
          "components": [
            {
              "internalType": "uint256",
              "name": "batchIndex",
              "type": "uint256"
            },
            {
              "internalType": "bytes32",
              "name": "batchRoot",
              "type": "bytes32"
            },
            {
              "internalType": "uint256",
              "name": "batchSize",
              "type": "uint256"
            },
            {
              "internalType": "uint256",
              "name": "prevTotalElements",
              "type": "uint256"
            },
            {
              "internalType": "bytes",
              "name": "extraData",
              "type": "bytes"
            }
          ],
          "internalType": "struct Lib_OVMCodec.ChainBatchHeader",
          "name": "batchHeader",
          "type": "tuple"
        },
        {
          "internalType": "bytes[]",
          "name": "signatures",
          "type": "bytes[]"
        }
      ],
      "name": "approve",
      "outputs": [],
      "stateMutability": "nonpayable",
      "type": "function"
    },
    {
      "inputs": [
        {
          "internalType": "address",
          "name": "stateCommitmentChain",
          "type": "address"
        },
        {
          "components": [
            {
              "internalType": "uint256",
              "name": "batchIndex",
              "type": "uint256"
            },
            {
              "internalType": "bytes32",
              "name": "batchRoot",
              "type": "bytes32"
            },
            {
              "internalType": "uint256",
              "name": "batchSize",
              "type": "uint256"
            },
            {
              "internalType": "uint256",
              "name": "prevTotalElements",
              "type": "uint256"
            },
            {
              "internalType": "bytes",
              "name": "extraData",
              "type": "bytes"
            }
          ],
          "internalType": "struct Lib_OVMCodec.ChainBatchHeader",
          "name": "batchHeader",
          "type": "tuple"
        },
        {
          "internalType": "bytes[]",
          "name": "signatures",
          "type": "bytes[]"
        }
      ],
      "name": "reject",
      "outputs": [],
      "stateMutability": "nonpayable",
      "type": "function"
    }
  ],
  "bytecode": "0x608060405234801561001057600080fd5b506110ad806100206000396000f3fe608060405234801561001057600080fd5b50600436106100365760003560e01c8063d17f1fb11461003b578063dea2619d14610050575b600080fd5b61004e610049366004610bd9565b610063565b005b61004e61005e366004610bd9565b610152565b6100708383600084610234565b6040517f9594dd6400000000000000000000000000000000000000000000000000000000815273ffffffffffffffffffffffffffffffffffffffff841690639594dd64906100c2908590600401610d29565b600060405180830381600087803b1580156100dc57600080fd5b505af11580156100f0573d6000803e3d6000fd5b5050505081600001518373ffffffffffffffffffffffffffffffffffffffff167f2d6c30e420d4abe074221e2e344cec3bd0f565a2e09435a3d9d738f69332a6dd846020015160405161014591815260200190565b60405180910390a3505050565b61015f8383600184610234565b6040517fe0c2b41800000000000000000000000000000000000000000000000000000000815273ffffffffffffffffffffffffffffffffffffffff84169063e0c2b418906101b1908590600401610d29565b600060405180830381600087803b1580156101cb57600080fd5b505af11580156101df573d6000803e3d6000fd5b5050505081600001518373ffffffffffffffffffffffffffffffffffffffff167f4785b50466d5e0124a77ed43985b62f3b454caff4b6cfc6aa94ab02c5e5df1f5846020015160405161014591815260200190565b8251602080850151604080514681850152606089901b7fffffffffffffffffffffffffffffffffffffffff00000000000000000000000016818301526054810194909452607484019190915284151560f81b6094840152805160758185030181526095909301905281519101206000906102ae90836102c0565b90506102b9816105aa565b5050505050565b6060815167ffffffffffffffff8111156102dc576102dc610a05565b604051908082528060200260200182016040528015610305578160200160208202803683370190505b506040517f19457468657265756d205369676e6564204d6573736167653a0a3332000000006020820152603c8101859052909150600090605c016040516020818303038152906040528051906020012090506000805b84518110156105a157600085828151811061037857610378610d74565b6020026020010151905060008061038f8684610835565b909250905060018160048111156103a8576103a8610da3565b14156103eb57826040517ff31b6ee50000000000000000000000000000000000000000000000000000000081526004016103e29190610dd2565b60405180910390fd5b60028160048111156103ff576103ff610da3565b141561043957826040517ff31b6ee50000000000000000000000000000000000000000000000000000000081526004016103e29190610e24565b600381600481111561044d5761044d610da3565b141561048757826040517ff31b6ee50000000000000000000000000000000000000000000000000000000081526004016103e29190610e76565b600481600481111561049b5761049b610da3565b14156104d557826040517ff31b6ee50000000000000000000000000000000000000000000000000000000081526004016103e29190610eee565b8473ffffffffffffffffffffffffffffffffffffffff168273ffffffffffffffffffffffffffffffffffffffff1611610552576040517f3d1fd1b000000000000000000000000000000000000000000000000000000000815273ffffffffffffffffffffffffffffffffffffffff831660048201526024016103e2565b8187858151811061056557610565610d74565b73ffffffffffffffffffffffffffffffffffffffff9092166020928302919091019091015250925081905061059981610f95565b91505061035b565b50505092915050565b600061100090506000611001905060008273ffffffffffffffffffffffffffffffffffffffff1663900cf0cf6040518163ffffffff1660e01b815260040160206040518083038186803b15801561060057600080fd5b505afa158015610614573d6000803e3d6000fd5b505050506040513d601f19601f820116820180604052508101906106389190610fce565b84519091506000805b8281101561072c578473ffffffffffffffffffffffffffffffffffffffff16639c50821988838151811061067757610677610d74565b6020026020010151866040518363ffffffff1660e01b81526004016106be92919073ffffffffffffffffffffffffffffffffffffffff929092168252602082015260400190565b60206040518083038186803b1580156106d657600080fd5b505afa1580156106ea573d6000803e3d6000fd5b505050506040513d601f19601f8201168201806040525081019061070e9190610fce565b6107189083610fe7565b91508061072481610f95565b915050610641565b506040517f45367f230000000000000000000000000000000000000000000000000000000081526004810184905260009060649073ffffffffffffffffffffffffffffffffffffffff8716906345367f239060240160206040518083038186803b15801561079957600080fd5b505afa1580156107ad573d6000803e3d6000fd5b505050506040513d601f19601f820116820180604052508101906107d19190610fce565b6107dc906033610fff565b6107e6919061103c565b90508082101561082c576040517f09b3dd4a00000000000000000000000000000000000000000000000000000000815260048101829052602481018390526044016103e2565b50505050505050565b60008082516041141561086c5760208301516040840151606085015160001a610860878285856108a5565b9450945050505061089e565b825160401415610896576020830151604084015161088b8683836109bd565b93509350505061089e565b506000905060025b9250929050565b6000807f7fffffffffffffffffffffffffffffff5d576e7357a4501ddfe92f46681b20a08311156108dc57506000905060036109b4565b8460ff16601b141580156108f457508460ff16601c14155b1561090557506000905060046109b4565b6040805160008082526020820180845289905260ff881692820192909252606081018690526080810185905260019060a0016020604051602081039080840390855afa158015610959573d6000803e3d6000fd5b50506040517fffffffffffffffffffffffffffffffffffffffffffffffffffffffffffffffe0015191505073ffffffffffffffffffffffffffffffffffffffff81166109ad576000600192509250506109b4565b9150600090505b94509492505050565b6000807f7fffffffffffffffffffffffffffffffffffffffffffffffffffffffffffffff831660ff84901c601b016109f7878288856108a5565b935093505050935093915050565b7f4e487b7100000000000000000000000000000000000000000000000000000000600052604160045260246000fd5b60405160a0810167ffffffffffffffff81118282101715610a5757610a57610a05565b60405290565b604051601f82017fffffffffffffffffffffffffffffffffffffffffffffffffffffffffffffffe016810167ffffffffffffffff81118282101715610aa457610aa4610a05565b604052919050565b600082601f830112610abd57600080fd5b813567ffffffffffffffff811115610ad757610ad7610a05565b610b0860207fffffffffffffffffffffffffffffffffffffffffffffffffffffffffffffffe0601f84011601610a5d565b818152846020838601011115610b1d57600080fd5b816020850160208301376000918101602001919091529392505050565b600082601f830112610b4b57600080fd5b8135602067ffffffffffffffff80831115610b6857610b68610a05565b8260051b610b77838201610a5d565b9384528581018301938381019088861115610b9157600080fd5b84880192505b85831015610bcd57823584811115610baf5760008081fd5b610bbd8a87838c0101610aac565b8352509184019190840190610b97565b98975050505050505050565b600080600060608486031215610bee57600080fd5b833573ffffffffffffffffffffffffffffffffffffffff81168114610c1257600080fd5b9250602084013567ffffffffffffffff80821115610c2f57600080fd5b9085019060a08288031215610c4357600080fd5b610c4b610a34565b82358152602083013560208201526040830135604082015260608301356060820152608083013582811115610c7f57600080fd5b610c8b89828601610aac565b60808301525093506040860135915080821115610ca757600080fd5b50610cb486828701610b3a565b9150509250925092565b6000815180845260005b81811015610ce457602081850181015186830182015201610cc8565b81811115610cf6576000602083870101525b50601f017fffffffffffffffffffffffffffffffffffffffffffffffffffffffffffffffe0169290920160200192915050565b60208152815160208201526020820151604082015260408201516060820152606082015160808201526000608083015160a080840152610d6c60c0840182610cbe565b949350505050565b7f4e487b7100000000000000000000000000000000000000000000000000000000600052603260045260246000fd5b7f4e487b7100000000000000000000000000000000000000000000000000000000600052602160045260246000fd5b604081526000610de56040830184610cbe565b8281036020840152601881527f45434453413a20696e76616c6964207369676e6174757265000000000000000060208201526040810191505092915050565b604081526000610e376040830184610cbe565b8281036020840152601f81527f45434453413a20696e76616c6964207369676e6174757265206c656e6774680060208201526040810191505092915050565b604081526000610e896040830184610cbe565b8281036020840152602281527f45434453413a20696e76616c6964207369676e6174757265202773272076616c60208201527f756500000000000000000000000000000000000000000000000000000000000060408201526060810191505092915050565b604081526000610f016040830184610cbe565b8281036020840152602281527f45434453413a20696e76616c6964207369676e6174757265202776272076616c60208201527f756500000000000000000000000000000000000000000000000000000000000060408201526060810191505092915050565b7f4e487b7100000000000000000000000000000000000000000000000000000000600052601160045260246000fd5b60007fffffffffffffffffffffffffffffffffffffffffffffffffffffffffffffffff821415610fc757610fc7610f66565b5060010190565b600060208284031215610fe057600080fd5b5051919050565b60008219821115610ffa57610ffa610f66565b500190565b6000817fffffffffffffffffffffffffffffffffffffffffffffffffffffffffffffffff048311821515161561103757611037610f66565b500290565b600082611072577f4e487b7100000000000000000000000000000000000000000000000000000000600052601260045260246000fd5b50049056fea2646970667358221220a5d5618bfbba3887dcc2791601a94d5894ba03dc22eb33326b5607d801da74e764736f6c63430008090033",
  "linkReferences": {},
  "deployedLinkReferences": {}
}