{
  "_format": "hh-sol-artifact-1",
  "contractName": "VerifierInfo",
  "sourceName": "contracts/oasys/L1/rollup/VerifierInfo.sol",
  "abi": [
    {
      "anonymous": false,
      "inputs": [
        {
          "indexed": true,
          "internalType": "string",
          "name": "_name",
          "type": "string"
        },
        {
          "indexed": false,
          "internalType": "address",
          "name": "_address",
          "type": "address"
        }
      ],
      "name": "AddressAdded",
      "type": "event"
    },
    {
      "anonymous": false,
      "inputs": [
        {
          "indexed": true,
          "internalType": "string",
          "name": "_name",
          "type": "string"
        },
        {
          "indexed": false,
          "internalType": "address",
          "name": "_address",
          "type": "address"
        }
      ],
      "name": "AddressRemoved",
      "type": "event"
    },
    {
      "inputs": [
        {
          "internalType": "string",
          "name": "_name",
          "type": "string"
        },
        {
          "internalType": "address",
          "name": "_address",
          "type": "address"
        }
      ],
      "name": "addAddress",
      "outputs": [],
      "stateMutability": "nonpayable",
      "type": "function"
    },
    {
      "inputs": [
        {
          "internalType": "string",
          "name": "_name",
          "type": "string"
        }
      ],
      "name": "computeNameHash",
      "outputs": [
        {
          "internalType": "bytes32",
          "name": "",
          "type": "bytes32"
        }
      ],
      "stateMutability": "pure",
      "type": "function"
    },
    {
      "inputs": [
        {
          "internalType": "string",
          "name": "_name",
          "type": "string"
        }
      ],
      "name": "getAddresses",
      "outputs": [
        {
          "internalType": "address[]",
          "name": "",
          "type": "address[]"
        }
      ],
      "stateMutability": "view",
      "type": "function"
    },
    {
      "inputs": [
        {
          "internalType": "address",
          "name": "_address",
          "type": "address"
        }
      ],
      "name": "getNameHash",
      "outputs": [
        {
          "internalType": "bytes32",
          "name": "",
          "type": "bytes32"
        }
      ],
      "stateMutability": "view",
      "type": "function"
    },
    {
      "inputs": [
        {
          "internalType": "string",
          "name": "_name",
          "type": "string"
        },
        {
          "internalType": "address",
          "name": "_address",
          "type": "address"
        }
      ],
      "name": "removeAddress",
      "outputs": [],
      "stateMutability": "nonpayable",
      "type": "function"
    }
  ],
  "bytecode": "0x608060405234801561001057600080fd5b50610c17806100206000396000f3fe608060405234801561001057600080fd5b50600436106100675760003560e01c8063b166493b11610050578063b166493b146100b6578063ceb35b0f146100cb578063ee91afab146100de57600080fd5b806339b64c301461006c5780638e75454f14610095575b600080fd5b61007f61007a366004610981565b610114565b60405161008c91906109be565b60405180910390f35b6100a86100a3366004610981565b61019d565b60405190815260200161008c565b6100c96100c4366004610a41565b6101ae565b005b6100c96100d9366004610a41565b610580565b6100a86100ec366004610a8f565b73ffffffffffffffffffffffffffffffffffffffff1660009081526001602052604090205490565b6060600080610122846107f3565b815260200190815260200160002080548060200260200160405190810160405280929190818152602001828054801561019157602002820191906000526020600020905b815473ffffffffffffffffffffffffffffffffffffffff168152600190910190602001808311610166575b50505050509050919050565b60006101a8826107f3565b92915050565b60006101b9836107f3565b73ffffffffffffffffffffffffffffffffffffffff8316600090815260016020526040902054909150811461024f576040517f08c379a000000000000000000000000000000000000000000000000000000000815260206004820152601060248201527f6e616d65206e6f74206d6174636865640000000000000000000000000000000060448201526064015b60405180910390fd5b60008181526020818152604091829020805483518184028101840190945280845290926102cb92909184918301828280156102c057602002820191906000526020600020905b815473ffffffffffffffffffffffffffffffffffffffff168152600190910190602001808311610295575b505050505033610823565b610357576040517f08c379a000000000000000000000000000000000000000000000000000000000815260206004820152602560248201527f6f6e6c792074686520636f6e7461696e6564206164647265737320697320616c60448201527f6c6f7765640000000000000000000000000000000000000000000000000000006064820152608401610246565b80546000805b610368600184610ae0565b81101561048957811580156103c557508573ffffffffffffffffffffffffffffffffffffffff168482815481106103a1576103a1610af7565b60009182526020909120015473ffffffffffffffffffffffffffffffffffffffff16145b156103cf57600191505b811561047757836103e1826001610b26565b815481106103f1576103f1610af7565b9060005260206000200160009054906101000a900473ffffffffffffffffffffffffffffffffffffffff1684828154811061042e5761042e610af7565b9060005260206000200160006101000a81548173ffffffffffffffffffffffffffffffffffffffff021916908373ffffffffffffffffffffffffffffffffffffffff1602179055505b8061048181610b3e565b91505061035d565b508280548061049a5761049a610b77565b6000828152602080822083017fffffffffffffffffffffffffffffffffffffffffffffffffffffffffffffffff90810180547fffffffffffffffffffffffff000000000000000000000000000000000000000016905590920190925573ffffffffffffffffffffffffffffffffffffffff871682526001905260408082209190915551610528908790610ba6565b60405190819003812073ffffffffffffffffffffffffffffffffffffffff87168252907fb61aa53b7041e92eacd606b1a9ff859f60ab78c4dd8639a87c114d2ba8d036489060200160405180910390a2505050505050565b73ffffffffffffffffffffffffffffffffffffffff81166000908152600160205260409020541561060d576040517f08c379a000000000000000000000000000000000000000000000000000000000815260206004820152600d60248201527f616c7265616479206164646564000000000000000000000000000000000000006044820152606401610246565b6000610618836107f3565b600081815260208190526040902080549192509015806106a157506106a1818054806020026020016040519081016040528092919081815260200182805480156102c05760200282019190600052602060002090815473ffffffffffffffffffffffffffffffffffffffff16815260019091019060200180831161029557505050505033610823565b61072d576040517f08c379a000000000000000000000000000000000000000000000000000000000815260206004820152602560248201527f6f6e6c792074686520636f6e7461696e6564206164647265737320697320616c60448201527f6c6f7765640000000000000000000000000000000000000000000000000000006064820152608401610246565b8054600180820183556000838152602080822090930180547fffffffffffffffffffffffff00000000000000000000000000000000000000001673ffffffffffffffffffffffffffffffffffffffff8816908117909155815291526040908190208390555161079d908590610ba6565b60405190819003812073ffffffffffffffffffffffffffffffffffffffff85168252907fd2754bb25f80d82f28983daef636e09dd633511ed87d9a247d9982c495912dd39060200160405180910390a250505050565b6000816040516020016108069190610ba6565b604051602081830303815290604052805190602001209050919050565b8151600090815b8181101561089c578373ffffffffffffffffffffffffffffffffffffffff1685828151811061085b5761085b610af7565b602002602001015173ffffffffffffffffffffffffffffffffffffffff16141561088a576001925050506101a8565b8061089481610b3e565b91505061082a565b506000949350505050565b7f4e487b7100000000000000000000000000000000000000000000000000000000600052604160045260246000fd5b600082601f8301126108e757600080fd5b813567ffffffffffffffff80821115610902576109026108a7565b604051601f83017fffffffffffffffffffffffffffffffffffffffffffffffffffffffffffffffe0908116603f01168101908282118183101715610948576109486108a7565b8160405283815286602085880101111561096157600080fd5b836020870160208301376000602085830101528094505050505092915050565b60006020828403121561099357600080fd5b813567ffffffffffffffff8111156109aa57600080fd5b6109b6848285016108d6565b949350505050565b6020808252825182820181905260009190848201906040850190845b81811015610a0c57835173ffffffffffffffffffffffffffffffffffffffff16835292840192918401916001016109da565b50909695505050505050565b803573ffffffffffffffffffffffffffffffffffffffff81168114610a3c57600080fd5b919050565b60008060408385031215610a5457600080fd5b823567ffffffffffffffff811115610a6b57600080fd5b610a77858286016108d6565b925050610a8660208401610a18565b90509250929050565b600060208284031215610aa157600080fd5b610aaa82610a18565b9392505050565b7f4e487b7100000000000000000000000000000000000000000000000000000000600052601160045260246000fd5b600082821015610af257610af2610ab1565b500390565b7f4e487b7100000000000000000000000000000000000000000000000000000000600052603260045260246000fd5b60008219821115610b3957610b39610ab1565b500190565b60007fffffffffffffffffffffffffffffffffffffffffffffffffffffffffffffffff821415610b7057610b70610ab1565b5060010190565b7f4e487b7100000000000000000000000000000000000000000000000000000000600052603160045260246000fd5b6000825160005b81811015610bc75760208186018101518583015201610bad565b81811115610bd6576000828501525b50919091019291505056fea2646970667358221220067070cdaa99c2faf22be35b9a67bd1f54995b2ce7aab0faa1f074d706c1e31464736f6c63430008090033",
  "linkReferences": {},
  "deployedLinkReferences": {}
}