{
  "_format": "hh-sol-artifact-1",
  "contractName": "L1ERC721Bridge",
  "sourceName": "contracts/oasys/L1/messaging/L1ERC721Bridge.sol",
  "abi": [
    {
      "inputs": [],
      "stateMutability": "nonpayable",
      "type": "constructor"
    },
    {
      "anonymous": false,
      "inputs": [
        {
          "indexed": true,
          "internalType": "address",
          "name": "_l1Token",
          "type": "address"
        },
        {
          "indexed": true,
          "internalType": "address",
          "name": "_l2Token",
          "type": "address"
        },
        {
          "indexed": true,
          "internalType": "address",
          "name": "_from",
          "type": "address"
        },
        {
          "indexed": false,
          "internalType": "address",
          "name": "_to",
          "type": "address"
        },
        {
          "indexed": false,
          "internalType": "uint256",
          "name": "_tokenId",
          "type": "uint256"
        },
        {
          "indexed": false,
          "internalType": "bytes",
          "name": "_data",
          "type": "bytes"
        }
      ],
      "name": "ERC721DepositInitiated",
      "type": "event"
    },
    {
      "anonymous": false,
      "inputs": [
        {
          "indexed": true,
          "internalType": "address",
          "name": "_l1Token",
          "type": "address"
        },
        {
          "indexed": true,
          "internalType": "address",
          "name": "_l2Token",
          "type": "address"
        },
        {
          "indexed": true,
          "internalType": "address",
          "name": "_from",
          "type": "address"
        },
        {
          "indexed": false,
          "internalType": "address",
          "name": "_to",
          "type": "address"
        },
        {
          "indexed": false,
          "internalType": "uint256",
          "name": "_tokenId",
          "type": "uint256"
        },
        {
          "indexed": false,
          "internalType": "bytes",
          "name": "_data",
          "type": "bytes"
        }
      ],
      "name": "ERC721WithdrawalFinalized",
      "type": "event"
    },
    {
      "inputs": [
        {
          "internalType": "address",
          "name": "_l1Token",
          "type": "address"
        },
        {
          "internalType": "address",
          "name": "_l2Token",
          "type": "address"
        },
        {
          "internalType": "uint256",
          "name": "_tokenId",
          "type": "uint256"
        },
        {
          "internalType": "uint32",
          "name": "_l2Gas",
          "type": "uint32"
        },
        {
          "internalType": "bytes",
          "name": "_data",
          "type": "bytes"
        }
      ],
      "name": "depositERC721",
      "outputs": [],
      "stateMutability": "nonpayable",
      "type": "function"
    },
    {
      "inputs": [
        {
          "internalType": "address",
          "name": "_l1Token",
          "type": "address"
        },
        {
          "internalType": "address",
          "name": "_l2Token",
          "type": "address"
        },
        {
          "internalType": "address",
          "name": "_to",
          "type": "address"
        },
        {
          "internalType": "uint256",
          "name": "_tokenId",
          "type": "uint256"
        },
        {
          "internalType": "uint32",
          "name": "_l2Gas",
          "type": "uint32"
        },
        {
          "internalType": "bytes",
          "name": "_data",
          "type": "bytes"
        }
      ],
      "name": "depositERC721To",
      "outputs": [],
      "stateMutability": "nonpayable",
      "type": "function"
    },
    {
      "inputs": [
        {
          "internalType": "address",
          "name": "_l1Token",
          "type": "address"
        },
        {
          "internalType": "address",
          "name": "_l2Token",
          "type": "address"
        },
        {
          "internalType": "address",
          "name": "_from",
          "type": "address"
        },
        {
          "internalType": "address",
          "name": "_to",
          "type": "address"
        },
        {
          "internalType": "uint256",
          "name": "_tokenId",
          "type": "uint256"
        },
        {
          "internalType": "bytes",
          "name": "_data",
          "type": "bytes"
        }
      ],
      "name": "finalizeERC721Withdrawal",
      "outputs": [],
      "stateMutability": "nonpayable",
      "type": "function"
    },
    {
      "inputs": [
        {
          "internalType": "address",
          "name": "_l1messenger",
          "type": "address"
        },
        {
          "internalType": "address",
          "name": "_l2ERC721Bridge",
          "type": "address"
        }
      ],
      "name": "initialize",
      "outputs": [],
      "stateMutability": "nonpayable",
      "type": "function"
    },
    {
      "inputs": [],
      "name": "l2ERC721Bridge",
      "outputs": [
        {
          "internalType": "address",
          "name": "",
          "type": "address"
        }
      ],
      "stateMutability": "view",
      "type": "function"
    },
    {
      "inputs": [],
      "name": "messenger",
      "outputs": [
        {
          "internalType": "address",
          "name": "",
          "type": "address"
        }
      ],
      "stateMutability": "view",
      "type": "function"
    }
  ],
  "bytecode": "0x608060405234801561001057600080fd5b50600080546001600160a01b0319169055610ca1806100306000396000f3fe608060405234801561001057600080fd5b50600436106100725760003560e01c80638f45e477116100505780638f45e477146100e8578063c1bcfa4f146100fb578063dbfc9c3f1461010e57600080fd5b806330389967146100775780633cb747bf1461008c578063485cc955146100d5575b600080fd5b61008a6100853660046108f7565b61012e565b005b6000546100ac9073ffffffffffffffffffffffffffffffffffffffff1681565b60405173ffffffffffffffffffffffffffffffffffffffff909116815260200160405180910390f35b61008a6100e336600461097a565b6101b4565b61008a6100f63660046109b3565b610287565b61008a610109366004610a4b565b6105e9565b6001546100ac9073ffffffffffffffffffffffffffffffffffffffff1681565b333b1561019c576040517f08c379a000000000000000000000000000000000000000000000000000000000815260206004820152600f60248201527f4163636f756e74206e6f7420454f41000000000000000000000000000000000060448201526064015b60405180910390fd5b6101ac8686333388888888610602565b505050505050565b60005473ffffffffffffffffffffffffffffffffffffffff1615610234576040517f08c379a000000000000000000000000000000000000000000000000000000000815260206004820152601460248201527f696e697469616c697a65206f6e6c79206f6e63650000000000000000000000006044820152606401610193565b6000805473ffffffffffffffffffffffffffffffffffffffff9384167fffffffffffffffffffffffff00000000000000000000000000000000000000009182161790915560018054929093169116179055565b60015473ffffffffffffffffffffffffffffffffffffffff166102bf60005473ffffffffffffffffffffffffffffffffffffffff1690565b73ffffffffffffffffffffffffffffffffffffffff163373ffffffffffffffffffffffffffffffffffffffff1614610379576040517f08c379a000000000000000000000000000000000000000000000000000000000815260206004820152602e60248201527f4f564d5f58434841494e3a206d657373656e67657220636f6e7472616374207560448201527f6e61757468656e746963617465640000000000000000000000000000000000006064820152608401610193565b8073ffffffffffffffffffffffffffffffffffffffff166103af60005473ffffffffffffffffffffffffffffffffffffffff1690565b73ffffffffffffffffffffffffffffffffffffffff16636e296e456040518163ffffffff1660e01b815260040160206040518083038186803b1580156103f457600080fd5b505afa158015610408573d6000803e3d6000fd5b505050506040513d601f19601f8201168201806040525081019061042c9190610ac2565b73ffffffffffffffffffffffffffffffffffffffff16146104cf576040517f08c379a000000000000000000000000000000000000000000000000000000000815260206004820152603060248201527f4f564d5f58434841494e3a2077726f6e672073656e646572206f662063726f7360448201527f732d646f6d61696e206d657373616765000000000000000000000000000000006064820152608401610193565b6040517f23b872dd00000000000000000000000000000000000000000000000000000000815230600482015273ffffffffffffffffffffffffffffffffffffffff8681166024830152604482018690528916906323b872dd90606401600060405180830381600087803b15801561054557600080fd5b505af1158015610559573d6000803e3d6000fd5b505050508573ffffffffffffffffffffffffffffffffffffffff168773ffffffffffffffffffffffffffffffffffffffff168973ffffffffffffffffffffffffffffffffffffffff167f7fb3671da6a9a3c4b54a15e06575a4fa57d6264ad848930a6ea490e03e7514c1888888886040516105d79493929190610b2f565b60405180910390a45050505050505050565b6105f98787338888888888610602565b50505050505050565b6040517f23b872dd00000000000000000000000000000000000000000000000000000000815273ffffffffffffffffffffffffffffffffffffffff8781166004830152306024830152604482018690528916906323b872dd90606401600060405180830381600087803b15801561067857600080fd5b505af115801561068c573d6000803e3d6000fd5b50505050600063662a633a60e01b898989898988886040516024016106b79796959493929190610b6f565b604080517fffffffffffffffffffffffffffffffffffffffffffffffffffffffffffffffe08184030181529190526020810180517bffffffffffffffffffffffffffffffffffffffffffffffffffffffff167fffffffff000000000000000000000000000000000000000000000000000000009093169290921790915260015490915061075b9073ffffffffffffffffffffffffffffffffffffffff1685836107e8565b8673ffffffffffffffffffffffffffffffffffffffff168873ffffffffffffffffffffffffffffffffffffffff168a73ffffffffffffffffffffffffffffffffffffffff167fd660bea642cb3af692ff947912f15e82ec86ad0796523ba971c5f369a6f989c5898988886040516107d59493929190610b2f565b60405180910390a4505050505050505050565b6000546040517f3dbb202b00000000000000000000000000000000000000000000000000000000815273ffffffffffffffffffffffffffffffffffffffff90911690633dbb202b9061084290869085908790600401610bcc565b600060405180830381600087803b15801561085c57600080fd5b505af11580156105f9573d6000803e3d6000fd5b73ffffffffffffffffffffffffffffffffffffffff8116811461089257600080fd5b50565b803563ffffffff811681146108a957600080fd5b919050565b60008083601f8401126108c057600080fd5b50813567ffffffffffffffff8111156108d857600080fd5b6020830191508360208285010111156108f057600080fd5b9250929050565b60008060008060008060a0878903121561091057600080fd5b863561091b81610870565b9550602087013561092b81610870565b94506040870135935061094060608801610895565b9250608087013567ffffffffffffffff81111561095c57600080fd5b61096889828a016108ae565b979a9699509497509295939492505050565b6000806040838503121561098d57600080fd5b823561099881610870565b915060208301356109a881610870565b809150509250929050565b600080600080600080600060c0888a0312156109ce57600080fd5b87356109d981610870565b965060208801356109e981610870565b955060408801356109f981610870565b94506060880135610a0981610870565b93506080880135925060a088013567ffffffffffffffff811115610a2c57600080fd5b610a388a828b016108ae565b989b979a50959850939692959293505050565b600080600080600080600060c0888a031215610a6657600080fd5b8735610a7181610870565b96506020880135610a8181610870565b95506040880135610a9181610870565b945060608801359350610aa660808901610895565b925060a088013567ffffffffffffffff811115610a2c57600080fd5b600060208284031215610ad457600080fd5b8151610adf81610870565b9392505050565b8183528181602085013750600060208284010152600060207fffffffffffffffffffffffffffffffffffffffffffffffffffffffffffffffe0601f840116840101905092915050565b73ffffffffffffffffffffffffffffffffffffffff85168152836020820152606060408201526000610b65606083018486610ae6565b9695505050505050565b600073ffffffffffffffffffffffffffffffffffffffff808a1683528089166020840152808816604084015280871660608401525084608083015260c060a0830152610bbf60c083018486610ae6565b9998505050505050505050565b73ffffffffffffffffffffffffffffffffffffffff8416815260006020606081840152845180606085015260005b81811015610c1657868101830151858201608001528201610bfa565b81811115610c28576000608083870101525b5063ffffffff9490941660408401525050601f919091017fffffffffffffffffffffffffffffffffffffffffffffffffffffffffffffffe016016080019291505056fea2646970667358221220f73507ccec51c3b566074a4e2360e8d06d794b8fdd194ace99d5c7c228a73b4664736f6c63430008090033",
  "linkReferences": {},
  "deployedLinkReferences": {}
}