{
  "_format": "hh-sol-artifact-1",
  "contractName": "Allowlist",
  "sourceName": "contracts/oasys/libraries/Allowlist.sol",
  "abi": [
    {
      "anonymous": false,
      "inputs": [
        {
          "indexed": false,
          "internalType": "address",
          "name": "_address",
          "type": "address"
        }
      ],
      "name": "AllowlistAdded",
      "type": "event"
    },
    {
      "anonymous": false,
      "inputs": [
        {
          "indexed": false,
          "internalType": "address",
          "name": "_address",
          "type": "address"
        }
      ],
      "name": "AllowlistRemoved",
      "type": "event"
    },
    {
      "anonymous": false,
      "inputs": [
        {
          "indexed": true,
          "internalType": "address",
          "name": "previousOwner",
          "type": "address"
        },
        {
          "indexed": true,
          "internalType": "address",
          "name": "newOwner",
          "type": "address"
        }
      ],
      "name": "OwnershipTransferred",
      "type": "event"
    },
    {
      "inputs": [
        {
          "internalType": "address",
          "name": "_address",
          "type": "address"
        }
      ],
      "name": "addAddress",
      "outputs": [],
      "stateMutability": "nonpayable",
      "type": "function"
    },
    {
      "inputs": [
        {
          "internalType": "address",
          "name": "_address",
          "type": "address"
        }
      ],
      "name": "containsAddress",
      "outputs": [
        {
          "internalType": "bool",
          "name": "",
          "type": "bool"
        }
      ],
      "stateMutability": "view",
      "type": "function"
    },
    {
      "inputs": [],
      "name": "getAllowlist",
      "outputs": [
        {
          "internalType": "address[]",
          "name": "",
          "type": "address[]"
        }
      ],
      "stateMutability": "view",
      "type": "function"
    },
    {
      "inputs": [],
      "name": "owner",
      "outputs": [
        {
          "internalType": "address",
          "name": "",
          "type": "address"
        }
      ],
      "stateMutability": "view",
      "type": "function"
    },
    {
      "inputs": [
        {
          "internalType": "address",
          "name": "_address",
          "type": "address"
        }
      ],
      "name": "removeAddress",
      "outputs": [],
      "stateMutability": "nonpayable",
      "type": "function"
    },
    {
      "inputs": [],
      "name": "renounceOwnership",
      "outputs": [],
      "stateMutability": "nonpayable",
      "type": "function"
    },
    {
      "inputs": [
        {
          "internalType": "address",
          "name": "newOwner",
          "type": "address"
        }
      ],
      "name": "transferOwnership",
      "outputs": [],
      "stateMutability": "nonpayable",
      "type": "function"
    }
  ],
  "bytecode": "0x608060405234801561001057600080fd5b5061001a3361001f565b61006f565b600080546001600160a01b038381166001600160a01b0319831681178455604051919092169283917f8be0079c531659141344cd1fd0a4f28419497f9722a3daafe3b4186f6b6457e09190a35050565b610c158061007e6000396000f3fe608060405234801561001057600080fd5b506004361061007d5760003560e01c8063715018a61161005b578063715018a6146100d25780638da5cb5b146100da578063c5eff3d014610102578063f2fde38b1461011757600080fd5b8063322433e31461008257806338eada1c146100aa5780634ba79dfe146100bf575b600080fd5b610095610090366004610a53565b61012a565b60405190151581526020015b60405180910390f35b6100bd6100b8366004610a53565b6101e7565b005b6100bd6100cd366004610a53565b6103ed565b6100bd61072e565b60005460405173ffffffffffffffffffffffffffffffffffffffff90911681526020016100a1565b61010a6107bb565b6040516100a19190610a90565b6100bd610125366004610a53565b61082a565b60008061014c60005473ffffffffffffffffffffffffffffffffffffffff1690565b73ffffffffffffffffffffffffffffffffffffffff16141561017057506001919050565b6101e160018054806020026020016040519081016040528092919081815260200182805480156101d657602002820191906000526020600020905b815473ffffffffffffffffffffffffffffffffffffffff1681526001909101906020018083116101ab575b50505050508361095a565b92915050565b60005473ffffffffffffffffffffffffffffffffffffffff16331461026d576040517f08c379a000000000000000000000000000000000000000000000000000000000815260206004820181905260248201527f4f776e61626c653a2063616c6c6572206973206e6f7420746865206f776e657260448201526064015b60405180910390fd5b6102de60018054806020026020016040519081016040528092919081815260200182805480156102d357602002820191906000526020600020905b815473ffffffffffffffffffffffffffffffffffffffff1681526001909101906020018083116102a8575b50505050508261095a565b15610345576040517f08c379a000000000000000000000000000000000000000000000000000000000815260206004820152600d60248201527f616c7265616479206164646564000000000000000000000000000000000000006044820152606401610264565b6001805480820182556000919091527fb10e2d527612073b26eecdfd717e6a320cf44b4afac2b0732d9fcbe2b7fa0cf60180547fffffffffffffffffffffffff00000000000000000000000000000000000000001673ffffffffffffffffffffffffffffffffffffffff83169081179091556040519081527f28f54e0b69489ad5fd27625e6fcff58faff5da96f8a077d08bb09af25bb41d549060200160405180910390a150565b60005473ffffffffffffffffffffffffffffffffffffffff16331461046e576040517f08c379a000000000000000000000000000000000000000000000000000000000815260206004820181905260248201527f4f776e61626c653a2063616c6c6572206973206e6f7420746865206f776e65726044820152606401610264565b6104dd60018054806020026020016040519081016040528092919081815260200182805480156102d35760200282019190600052602060002090815473ffffffffffffffffffffffffffffffffffffffff1681526001909101906020018083116102a85750505050508261095a565b610543576040517f08c379a000000000000000000000000000000000000000000000000000000000815260206004820152601160248201527f61646472657373206e6f7420666f756e640000000000000000000000000000006044820152606401610264565b6001546000805b610555600184610b19565b81101561067357811580156105b357508373ffffffffffffffffffffffffffffffffffffffff166001828154811061058f5761058f610b30565b60009182526020909120015473ffffffffffffffffffffffffffffffffffffffff16145b156105bd57600191505b81156106615760016105cf8282610b5f565b815481106105df576105df610b30565b6000918252602090912001546001805473ffffffffffffffffffffffffffffffffffffffff909216918390811061061857610618610b30565b9060005260206000200160006101000a81548173ffffffffffffffffffffffffffffffffffffffff021916908373ffffffffffffffffffffffffffffffffffffffff1602179055505b8061066b81610b77565b91505061054a565b50600180548061068557610685610bb0565b60008281526020908190207fffffffffffffffffffffffffffffffffffffffffffffffffffffffffffffffff908301810180547fffffffffffffffffffffffff000000000000000000000000000000000000000016905590910190915560405173ffffffffffffffffffffffffffffffffffffffff851681527f458680f79aa9de0ae06344287a3bd8ec6179faa05252e9af81ae734d6b4dc6ba910160405180910390a1505050565b60005473ffffffffffffffffffffffffffffffffffffffff1633146107af576040517f08c379a000000000000000000000000000000000000000000000000000000000815260206004820181905260248201527f4f776e61626c653a2063616c6c6572206973206e6f7420746865206f776e65726044820152606401610264565b6107b960006109de565b565b6060600180548060200260200160405190810160405280929190818152602001828054801561082057602002820191906000526020600020905b815473ffffffffffffffffffffffffffffffffffffffff1681526001909101906020018083116107f5575b5050505050905090565b60005473ffffffffffffffffffffffffffffffffffffffff1633146108ab576040517f08c379a000000000000000000000000000000000000000000000000000000000815260206004820181905260248201527f4f776e61626c653a2063616c6c6572206973206e6f7420746865206f776e65726044820152606401610264565b73ffffffffffffffffffffffffffffffffffffffff811661094e576040517f08c379a000000000000000000000000000000000000000000000000000000000815260206004820152602660248201527f4f776e61626c653a206e6577206f776e657220697320746865207a65726f206160448201527f64647265737300000000000000000000000000000000000000000000000000006064820152608401610264565b610957816109de565b50565b8151600090815b818110156109d3578373ffffffffffffffffffffffffffffffffffffffff1685828151811061099257610992610b30565b602002602001015173ffffffffffffffffffffffffffffffffffffffff1614156109c1576001925050506101e1565b806109cb81610b77565b915050610961565b506000949350505050565b6000805473ffffffffffffffffffffffffffffffffffffffff8381167fffffffffffffffffffffffff0000000000000000000000000000000000000000831681178455604051919092169283917f8be0079c531659141344cd1fd0a4f28419497f9722a3daafe3b4186f6b6457e09190a35050565b600060208284031215610a6557600080fd5b813573ffffffffffffffffffffffffffffffffffffffff81168114610a8957600080fd5b9392505050565b6020808252825182820181905260009190848201906040850190845b81811015610ade57835173ffffffffffffffffffffffffffffffffffffffff1683529284019291840191600101610aac565b50909695505050505050565b7f4e487b7100000000000000000000000000000000000000000000000000000000600052601160045260246000fd5b600082821015610b2b57610b2b610aea565b500390565b7f4e487b7100000000000000000000000000000000000000000000000000000000600052603260045260246000fd5b60008219821115610b7257610b72610aea565b500190565b60007fffffffffffffffffffffffffffffffffffffffffffffffffffffffffffffffff821415610ba957610ba9610aea565b5060010190565b7f4e487b7100000000000000000000000000000000000000000000000000000000600052603160045260246000fdfea26469706673582212201785ecf5877acc9d1f9db6528041816518f95e4f871e44d00797031028d66a8064736f6c63430008090033",
  "linkReferences": {},
  "deployedLinkReferences": {}
}