{
  "_format": "hh-sol-artifact-1",
  "contractName": "L1BuildDeposit",
  "sourceName": "contracts/oasys/L1/build/L1BuildDeposit.sol",
  "abi": [
    {
      "inputs": [
        {
          "internalType": "uint256",
          "name": "_requiredAmount",
          "type": "uint256"
        },
        {
          "internalType": "uint256",
          "name": "_lockedBlock",
          "type": "uint256"
        },
        {
          "internalType": "address",
          "name": "_allowlist",
          "type": "address"
        },
        {
          "internalType": "address[]",
          "name": "_allowedTokens",
          "type": "address[]"
        }
      ],
      "stateMutability": "nonpayable",
      "type": "constructor"
    },
    {
      "anonymous": false,
      "inputs": [
        {
          "indexed": true,
          "internalType": "address",
          "name": "builder",
          "type": "address"
        },
        {
          "indexed": false,
          "internalType": "uint256",
          "name": "block",
          "type": "uint256"
        }
      ],
      "name": "Build",
      "type": "event"
    },
    {
      "anonymous": false,
      "inputs": [
        {
          "indexed": true,
          "internalType": "address",
          "name": "builder",
          "type": "address"
        },
        {
          "indexed": false,
          "internalType": "address",
          "name": "depositer",
          "type": "address"
        },
        {
          "indexed": false,
          "internalType": "address",
          "name": "token",
          "type": "address"
        },
        {
          "indexed": false,
          "internalType": "uint256",
          "name": "amount",
          "type": "uint256"
        }
      ],
      "name": "Deposit",
      "type": "event"
    },
    {
      "anonymous": false,
      "inputs": [
        {
          "indexed": true,
          "internalType": "address",
          "name": "builder",
          "type": "address"
        },
        {
          "indexed": false,
          "internalType": "address",
          "name": "depositer",
          "type": "address"
        },
        {
          "indexed": false,
          "internalType": "address",
          "name": "token",
          "type": "address"
        },
        {
          "indexed": false,
          "internalType": "uint256",
          "name": "amount",
          "type": "uint256"
        }
      ],
      "name": "Withdrawal",
      "type": "event"
    },
    {
      "inputs": [],
      "name": "agentAddress",
      "outputs": [
        {
          "internalType": "address",
          "name": "",
          "type": "address"
        }
      ],
      "stateMutability": "view",
      "type": "function"
    },
    {
      "inputs": [
        {
          "internalType": "uint256",
          "name": "",
          "type": "uint256"
        }
      ],
      "name": "allowedTokens",
      "outputs": [
        {
          "internalType": "address",
          "name": "",
          "type": "address"
        }
      ],
      "stateMutability": "view",
      "type": "function"
    },
    {
      "inputs": [],
      "name": "allowlistAddress",
      "outputs": [
        {
          "internalType": "address",
          "name": "",
          "type": "address"
        }
      ],
      "stateMutability": "view",
      "type": "function"
    },
    {
      "inputs": [
        {
          "internalType": "address",
          "name": "_builder",
          "type": "address"
        }
      ],
      "name": "build",
      "outputs": [],
      "stateMutability": "nonpayable",
      "type": "function"
    },
    {
      "inputs": [
        {
          "internalType": "address",
          "name": "_builder",
          "type": "address"
        }
      ],
      "name": "deposit",
      "outputs": [],
      "stateMutability": "payable",
      "type": "function"
    },
    {
      "inputs": [
        {
          "internalType": "address",
          "name": "_builder",
          "type": "address"
        },
        {
          "internalType": "address",
          "name": "_token",
          "type": "address"
        },
        {
          "internalType": "uint256",
          "name": "_amount",
          "type": "uint256"
        }
      ],
      "name": "depositERC20",
      "outputs": [],
      "stateMutability": "nonpayable",
      "type": "function"
    },
    {
      "inputs": [
        {
          "internalType": "address",
          "name": "_builder",
          "type": "address"
        }
      ],
      "name": "getBuildBlock",
      "outputs": [
        {
          "internalType": "uint256",
          "name": "",
          "type": "uint256"
        }
      ],
      "stateMutability": "view",
      "type": "function"
    },
    {
      "inputs": [
        {
          "internalType": "address",
          "name": "_builder",
          "type": "address"
        },
        {
          "internalType": "address",
          "name": "_depositer",
          "type": "address"
        }
      ],
      "name": "getDepositAmount",
      "outputs": [
        {
          "internalType": "uint256",
          "name": "",
          "type": "uint256"
        }
      ],
      "stateMutability": "view",
      "type": "function"
    },
    {
      "inputs": [
        {
          "internalType": "address",
          "name": "_builder",
          "type": "address"
        },
        {
          "internalType": "address",
          "name": "_depositer",
          "type": "address"
        },
        {
          "internalType": "address",
          "name": "_token",
          "type": "address"
        }
      ],
      "name": "getDepositERC20Amount",
      "outputs": [
        {
          "internalType": "uint256",
          "name": "",
          "type": "uint256"
        }
      ],
      "stateMutability": "view",
      "type": "function"
    },
    {
      "inputs": [
        {
          "internalType": "address",
          "name": "_builder",
          "type": "address"
        }
      ],
      "name": "getDepositTotal",
      "outputs": [
        {
          "internalType": "uint256",
          "name": "",
          "type": "uint256"
        }
      ],
      "stateMutability": "view",
      "type": "function"
    },
    {
      "inputs": [
        {
          "internalType": "address",
          "name": "_agentAddress",
          "type": "address"
        }
      ],
      "name": "initialize",
      "outputs": [],
      "stateMutability": "nonpayable",
      "type": "function"
    },
    {
      "inputs": [],
      "name": "lockedBlock",
      "outputs": [
        {
          "internalType": "uint256",
          "name": "",
          "type": "uint256"
        }
      ],
      "stateMutability": "view",
      "type": "function"
    },
    {
      "inputs": [],
      "name": "requiredAmount",
      "outputs": [
        {
          "internalType": "uint256",
          "name": "",
          "type": "uint256"
        }
      ],
      "stateMutability": "view",
      "type": "function"
    },
    {
      "inputs": [
        {
          "internalType": "address",
          "name": "_builder",
          "type": "address"
        },
        {
          "internalType": "uint256",
          "name": "_amount",
          "type": "uint256"
        }
      ],
      "name": "withdraw",
      "outputs": [],
      "stateMutability": "nonpayable",
      "type": "function"
    },
    {
      "inputs": [
        {
          "internalType": "address",
          "name": "_builder",
          "type": "address"
        },
        {
          "internalType": "address",
          "name": "_token",
          "type": "address"
        },
        {
          "internalType": "uint256",
          "name": "_amount",
          "type": "uint256"
        }
      ],
      "name": "withdrawERC20",
      "outputs": [],
      "stateMutability": "nonpayable",
      "type": "function"
    }
  ],
  "bytecode": "0x60806040523480156200001157600080fd5b506040516200167f3803806200167f83398101604081905262000034916200012d565b60008490556001839055600280546001600160a01b0319166001600160a01b03841617905580516200006e90600490602084019062000079565b505050505062000226565b828054828255906000526020600020908101928215620000d1579160200282015b82811115620000d157825182546001600160a01b0319166001600160a01b039091161782556020909201916001909101906200009a565b50620000df929150620000e3565b5090565b5b80821115620000df5760008155600101620000e4565b80516001600160a01b03811681146200011257600080fd5b919050565b634e487b7160e01b600052604160045260246000fd5b600080600080608085870312156200014457600080fd5b8451935060208086015193506200015e60408701620000fa565b60608701519093506001600160401b03808211156200017c57600080fd5b818801915088601f8301126200019157600080fd5b815181811115620001a657620001a662000117565b8060051b604051601f19603f83011681018181108582111715620001ce57620001ce62000117565b60405291825284820192508381018501918b831115620001ed57600080fd5b938501935b8285101562000216576200020685620000fa565b84529385019392850192620001f2565b989b979a50959850505050505050565b61144980620002366000396000f3fe6080604052600436106100e85760003560e01c80636504eff61161008a578063f340fa0111610059578063f340fa0114610310578063f3701da214610323578063f3fef3a314610343578063f45b1b3a1461036357600080fd5b80636504eff61461026a5780636c5928bf14610297578063c4d66de8146102ad578063c76474db146102cd57600080fd5b806338613690116100c657806338613690146101c257806344004cc11461021457806348b9ef40146102345780635e5f2e261461024a57600080fd5b8063061be895146100ed57806319b189ff146101435780631cad5a40146101a0575b600080fd5b3480156100f957600080fd5b50610130610108366004611214565b73ffffffffffffffffffffffffffffffffffffffff1660009081526007602052604090205490565b6040519081526020015b60405180910390f35b34801561014f57600080fd5b5061013061015e366004611236565b73ffffffffffffffffffffffffffffffffffffffff90811660009081526006602090815260408083209584168352948152848220939092168152919052205490565b3480156101ac57600080fd5b506101c06101bb366004611279565b610383565b005b3480156101ce57600080fd5b506003546101ef9073ffffffffffffffffffffffffffffffffffffffff1681565b60405173ffffffffffffffffffffffffffffffffffffffff909116815260200161013a565b34801561022057600080fd5b506101c061022f366004611279565b6105b8565b34801561024057600080fd5b5061013060005481565b34801561025657600080fd5b506101ef6102653660046112b5565b6107d5565b34801561027657600080fd5b506002546101ef9073ffffffffffffffffffffffffffffffffffffffff1681565b3480156102a357600080fd5b5061013060015481565b3480156102b957600080fd5b506101c06102c8366004611214565b61080c565b3480156102d957600080fd5b506101306102e8366004611214565b73ffffffffffffffffffffffffffffffffffffffff1660009081526005602052604090205490565b6101c061031e366004611214565b6108b9565b34801561032f57600080fd5b506101c061033e366004611214565b610929565b34801561034f57600080fd5b506101c061035e3660046112ce565b610ada565b34801561036f57600080fd5b5061013061037e3660046112f8565b610bfa565b6103f460048054806020026020016040519081016040528092919081815260200182805480156103e957602002820191906000526020600020905b815473ffffffffffffffffffffffffffffffffffffffff1681526001909101906020018083116103be575b505050505083610c53565b6104455760405162461bcd60e51b815260206004820152601160248201527f4552433230206e6f7420616c6c6f77656400000000000000000000000000000060448201526064015b60405180910390fd5b3361045284828585610cd7565b6040517f23b872dd00000000000000000000000000000000000000000000000000000000815273ffffffffffffffffffffffffffffffffffffffff828116600483015230602483015260448201849052600091908516906323b872dd90606401602060405180830381600087803b1580156104cc57600080fd5b505af11580156104e0573d6000803e3d6000fd5b505050506040513d601f19601f82011682018060405250810190610504919061132b565b9050806105535760405162461bcd60e51b815260206004820152601560248201527f4552433230207472616e73666572206661696c65640000000000000000000000604482015260640161043c565b6040805173ffffffffffffffffffffffffffffffffffffffff84811682528681166020830152918101859052908616907f7cfff908a4b583f36430b25d75964c458d8ede8a99bd61be750e97ee1b2f3a96906060015b60405180910390a25050505050565b61062760048054806020026020016040519081016040528092919081815260200182805480156103e95760200282019190600052602060002090815473ffffffffffffffffffffffffffffffffffffffff1681526001909101906020018083116103be57505050505083610c53565b6106735760405162461bcd60e51b815260206004820152601160248201527f4552433230206e6f7420616c6c6f776564000000000000000000000000000000604482015260640161043c565b3361068084828585610f8d565b6040517fa9059cbb00000000000000000000000000000000000000000000000000000000815273ffffffffffffffffffffffffffffffffffffffff8281166004830152602482018490526000919085169063a9059cbb90604401602060405180830381600087803b1580156106f457600080fd5b505af1158015610708573d6000803e3d6000fd5b505050506040513d601f19601f8201168201806040525081019061072c919061132b565b90508061077b5760405162461bcd60e51b815260206004820152601560248201527f4552433230207472616e73666572206661696c65640000000000000000000000604482015260640161043c565b6040805173ffffffffffffffffffffffffffffffffffffffff84811682528681166020830152918101859052908616907f342e7ff505a8a0364cd0dc2ff195c315e43bce86b204846ecd36913e117b109e906060016105a9565b600481815481106107e557600080fd5b60009182526020909120015473ffffffffffffffffffffffffffffffffffffffff16905081565b60035473ffffffffffffffffffffffffffffffffffffffff16156108725760405162461bcd60e51b815260206004820152601460248201527f696e697469616c697a65206f6e6c79206f6e6365000000000000000000000000604482015260640161043c565b600380547fffffffffffffffffffffffff00000000000000000000000000000000000000001673ffffffffffffffffffffffffffffffffffffffff92909216919091179055565b33346108c88383600084610cd7565b6040805173ffffffffffffffffffffffffffffffffffffffff848116825260006020830152918101839052908416907f7cfff908a4b583f36430b25d75964c458d8ede8a99bd61be750e97ee1b2f3a969060600160405180910390a2505050565b60035473ffffffffffffffffffffffffffffffffffffffff1633146109905760405162461bcd60e51b815260206004820152601d60248201527f6f6e6c79204c314275696c644167656e742063616e2063616c6c206d65000000604482015260640161043c565b6000805473ffffffffffffffffffffffffffffffffffffffff8316825260056020526040909120541015610a065760405162461bcd60e51b815260206004820152601760248201527f6465706f73697420616d6f756e742073686f7274616765000000000000000000604482015260640161043c565b73ffffffffffffffffffffffffffffffffffffffff811660009081526007602052604090205415610a795760405162461bcd60e51b815260206004820152601860248201527f616c7265616479206275696c74206279206275696c6465720000000000000000604482015260640161043c565b73ffffffffffffffffffffffffffffffffffffffff8116600081815260076020908152604091829020439081905591519182527fd8406a18b0c7572d0adae5f0a479d5d802035e2c506e9353b092d25997f61a62910160405180910390a250565b33610ae88382600085610f8d565b60008173ffffffffffffffffffffffffffffffffffffffff168360405160006040518083038185875af1925050503d8060008114610b42576040519150601f19603f3d011682016040523d82523d6000602084013e610b47565b606091505b5050905080610b985760405162461bcd60e51b815260206004820152601360248201527f4f4153207472616e73666572206661696c656400000000000000000000000000604482015260640161043c565b6040805173ffffffffffffffffffffffffffffffffffffffff848116825260006020830152918101859052908516907f342e7ff505a8a0364cd0dc2ff195c315e43bce86b204846ecd36913e117b109e9060600160405180910390a250505050565b73ffffffffffffffffffffffffffffffffffffffff82811660009081527f54cdd369e4e8a8515e52ca72ec816c2101831ad1f18bf44102ed171459c9b4f860209081526040808320938516835292905220545b92915050565b8151600090815b81811015610ccc578373ffffffffffffffffffffffffffffffffffffffff16858281518110610c8b57610c8b61134d565b602002602001015173ffffffffffffffffffffffffffffffffffffffff161415610cba57600192505050610c4d565b80610cc4816113ab565b915050610c5a565b506000949350505050565b73ffffffffffffffffffffffffffffffffffffffff8416610d3a5760405162461bcd60e51b815260206004820152601760248201527f6275696c646572206973207a65726f2061646472657373000000000000000000604482015260640161043c565b6002546040517f322433e300000000000000000000000000000000000000000000000000000000815273ffffffffffffffffffffffffffffffffffffffff86811660048301529091169063322433e39060240160206040518083038186803b158015610da557600080fd5b505afa158015610db9573d6000803e3d6000fd5b505050506040513d601f19601f82011682018060405250810190610ddd919061132b565b610e295760405162461bcd60e51b815260206004820152601360248201527f6275696c646572206e6f7420616c6c6f77656400000000000000000000000000604482015260640161043c565b60008111610e795760405162461bcd60e51b815260206004820152600e60248201527f616d6f756e74206973207a65726f000000000000000000000000000000000000604482015260640161043c565b6000805473ffffffffffffffffffffffffffffffffffffffff861682526005602052604090912054610eac9083906113e4565b1115610efa5760405162461bcd60e51b815260206004820152601360248201527f6f766572206465706f73697420616d6f756e7400000000000000000000000000604482015260640161043c565b73ffffffffffffffffffffffffffffffffffffffff841660009081526005602052604081208054839290610f2f9084906113e4565b909155505073ffffffffffffffffffffffffffffffffffffffff80831660009081526006602090815260408083208885168452825280832093871683529290529081208054839290610f829084906113e4565b909155505050505050565b73ffffffffffffffffffffffffffffffffffffffff8416610ff05760405162461bcd60e51b815260206004820152601760248201527f6275696c646572206973207a65726f2061646472657373000000000000000000604482015260640161043c565b600081116110405760405162461bcd60e51b815260206004820152600e60248201527f616d6f756e74206973207a65726f000000000000000000000000000000000000604482015260640161043c565b73ffffffffffffffffffffffffffffffffffffffff841660009081526007602052604090205480158061107f5750436001548261107d91906113e4565b105b6110cb5760405162461bcd60e51b815260206004820152600c60248201527f7768696c65206c6f636b65640000000000000000000000000000000000000000604482015260640161043c565b73ffffffffffffffffffffffffffffffffffffffff808416600090815260066020908152604080832089851684528252808320938816835292905220548211156111575760405162461bcd60e51b815260206004820152601c60248201527f796f7572206465706f73697420616d6f756e742073686f727461676500000000604482015260640161043c565b73ffffffffffffffffffffffffffffffffffffffff85166000908152600560205260408120805484929061118c9084906113fc565b909155505073ffffffffffffffffffffffffffffffffffffffff808416600090815260066020908152604080832089851684528252808320938816835292905290812080548492906111df9084906113fc565b90915550505050505050565b803573ffffffffffffffffffffffffffffffffffffffff8116811461120f57600080fd5b919050565b60006020828403121561122657600080fd5b61122f826111eb565b9392505050565b60008060006060848603121561124b57600080fd5b611254846111eb565b9250611262602085016111eb565b9150611270604085016111eb565b90509250925092565b60008060006060848603121561128e57600080fd5b611297846111eb565b92506112a5602085016111eb565b9150604084013590509250925092565b6000602082840312156112c757600080fd5b5035919050565b600080604083850312156112e157600080fd5b6112ea836111eb565b946020939093013593505050565b6000806040838503121561130b57600080fd5b611314836111eb565b9150611322602084016111eb565b90509250929050565b60006020828403121561133d57600080fd5b8151801515811461122f57600080fd5b7f4e487b7100000000000000000000000000000000000000000000000000000000600052603260045260246000fd5b7f4e487b7100000000000000000000000000000000000000000000000000000000600052601160045260246000fd5b60007fffffffffffffffffffffffffffffffffffffffffffffffffffffffffffffffff8214156113dd576113dd61137c565b5060010190565b600082198211156113f7576113f761137c565b500190565b60008282101561140e5761140e61137c565b50039056fea264697066735822122011b3bee93ce381ab6cf15b1e65cba7ca0fdc5d2e0628152f1e7674ffcc3f3f6d64736f6c63430008090033",
  "linkReferences": {},
  "deployedLinkReferences": {}
}