{
  "_format": "hh-sol-artifact-1",
  "contractName": "L1BuildStep1",
  "sourceName": "contracts/oasys/L1/build/L1BuildStep1.sol",
  "abi": [
    {
      "inputs": [],
      "name": "agentAddress",
      "outputs": [
        {
          "internalType": "address",
          "name": "",
          "type": "address"
        }
      ],
      "stateMutability": "view",
      "type": "function"
    },
    {
      "inputs": [
        {
          "internalType": "uint256",
          "name": "_chainId",
          "type": "uint256"
        },
        {
          "internalType": "address",
          "name": "_sequencer",
          "type": "address"
        },
        {
          "internalType": "address",
          "name": "_proposer",
          "type": "address"
        }
      ],
      "name": "build",
      "outputs": [],
      "stateMutability": "nonpayable",
      "type": "function"
    },
    {
      "inputs": [
        {
          "internalType": "address",
          "name": "_agentAddress",
          "type": "address"
        },
        {
          "internalType": "address",
          "name": "_paramAddress",
          "type": "address"
        }
      ],
      "name": "initialize",
      "outputs": [],
      "stateMutability": "nonpayable",
      "type": "function"
    },
    {
      "inputs": [],
      "name": "paramAddress",
      "outputs": [
        {
          "internalType": "address",
          "name": "",
          "type": "address"
        }
      ],
      "stateMutability": "view",
      "type": "function"
    }
  ],
  "bytecode": "0x608060405234801561001057600080fd5b50613c38806100206000396000f3fe608060405234801561001057600080fd5b506004361061004c5760003560e01c806303305d32146100515780631ee5c97d1461009a57806338613690146100af578063485cc955146100cf575b600080fd5b6001546100719073ffffffffffffffffffffffffffffffffffffffff1681565b60405173ffffffffffffffffffffffffffffffffffffffff909116815260200160405180910390f35b6100ad6100a836600461077f565b6100e2565b005b6000546100719073ffffffffffffffffffffffffffffffffffffffff1681565b6100ad6100dd3660046107c1565b61063e565b60005473ffffffffffffffffffffffffffffffffffffffff163314610168576040517f08c379a000000000000000000000000000000000000000000000000000000000815260206004820152601e60248201527f6f6e6c7920746865204c314275696c644167656e742063616e2063616c6c000060448201526064015b60405180910390fd5b600060405161017690610733565b604051809103906000f080158015610192573d6000803e3d6000fd5b5090508073ffffffffffffffffffffffffffffffffffffffff1663f2fde38b60008054906101000a900473ffffffffffffffffffffffffffffffffffffffff1673ffffffffffffffffffffffffffffffffffffffff166365c11a6c6040518163ffffffff1660e01b815260040160206040518083038186803b15801561021757600080fd5b505afa15801561022b573d6000803e3d6000fd5b505050506040513d601f19601f8201168201806040525081019061024f91906107fa565b6040517fffffffff0000000000000000000000000000000000000000000000000000000060e084901b16815273ffffffffffffffffffffffffffffffffffffffff9091166004820152602401600060405180830381600087803b1580156102b557600080fd5b505af11580156102c9573d6000803e3d6000fd5b50505050600081600160009054906101000a900473ffffffffffffffffffffffffffffffffffffffff1673ffffffffffffffffffffffffffffffffffffffff16638d38c6c16040518163ffffffff1660e01b815260040160206040518083038186803b15801561033857600080fd5b505afa15801561034c573d6000803e3d6000fd5b505050506040513d601f19601f82011682018060405250810190610370919061081e565b600160009054906101000a900473ffffffffffffffffffffffffffffffffffffffff1673ffffffffffffffffffffffffffffffffffffffff1663ccf987c86040518163ffffffff1660e01b815260040160206040518083038186803b1580156103d857600080fd5b505afa1580156103ec573d6000803e3d6000fd5b505050506040513d601f19601f82011682018060405250810190610410919061081e565b600160009054906101000a900473ffffffffffffffffffffffffffffffffffffffff1673ffffffffffffffffffffffffffffffffffffffff1663e654b1fb6040518163ffffffff1660e01b815260040160206040518083038186803b15801561047857600080fd5b505afa15801561048c573d6000803e3d6000fd5b505050506040513d601f19601f820116820180604052508101906104b0919061081e565b6040516104bc90610740565b73ffffffffffffffffffffffffffffffffffffffff9094168452602084019290925260408301526060820152608001604051809103906000f080158015610507573d6000803e3d6000fd5b5090506000826040516105199061074d565b73ffffffffffffffffffffffffffffffffffffffff90911681526040602082018190526019908201527f43616e6f6e6963616c5472616e73616374696f6e436861696e000000000000006060820152608001604051809103906000f080158015610587573d6000803e3d6000fd5b506000546040517fc86fc4c90000000000000000000000000000000000000000000000000000000081526004810189905273ffffffffffffffffffffffffffffffffffffffff868116602483015288811660448301528781166064830152858116608483015280841660a483015292935091169063c86fc4c99060c401600060405180830381600087803b15801561061e57600080fd5b505af1158015610632573d6000803e3d6000fd5b50505050505050505050565b60005473ffffffffffffffffffffffffffffffffffffffff1615801561067a575060015473ffffffffffffffffffffffffffffffffffffffff16155b6106e0576040517f08c379a000000000000000000000000000000000000000000000000000000000815260206004820152601460248201527f696e697469616c697a65206f6e6c79206f6e6365000000000000000000000000604482015260640161015f565b6000805473ffffffffffffffffffffffffffffffffffffffff9384167fffffffffffffffffffffffff00000000000000000000000000000000000000009182161790915560018054929093169116179055565b6107808061083883390190565b611a9880610fb883390190565b6111b380612a5083390190565b73ffffffffffffffffffffffffffffffffffffffff8116811461077c57600080fd5b50565b60008060006060848603121561079457600080fd5b8335925060208401356107a68161075a565b915060408401356107b68161075a565b809150509250925092565b600080604083850312156107d457600080fd5b82356107df8161075a565b915060208301356107ef8161075a565b809150509250929050565b60006020828403121561080c57600080fd5b81516108178161075a565b9392505050565b60006020828403121561083057600080fd5b505191905056fe608060405234801561001057600080fd5b5061001a3361001f565b61006f565b600080546001600160a01b038381166001600160a01b0319831681178455604051919092169283917f8be0079c531659141344cd1fd0a4f28419497f9722a3daafe3b4186f6b6457e09190a35050565b6107028061007e6000396000f3fe608060405234801561001057600080fd5b50600436106100675760003560e01c80639b2ea4bd116100505780639b2ea4bd146100b9578063bf40fac1146100cc578063f2fde38b146100df57600080fd5b8063715018a61461006c5780638da5cb5b14610076575b600080fd5b6100746100f2565b005b60005473ffffffffffffffffffffffffffffffffffffffff165b60405173ffffffffffffffffffffffffffffffffffffffff909116815260200160405180910390f35b6100746100c73660046105e4565b610184565b6100906100da366004610632565b6102d0565b6100746100ed36600461066f565b61030c565b60005473ffffffffffffffffffffffffffffffffffffffff163314610178576040517f08c379a000000000000000000000000000000000000000000000000000000000815260206004820181905260248201527f4f776e61626c653a2063616c6c6572206973206e6f7420746865206f776e657260448201526064015b60405180910390fd5b610182600061043c565b565b60005473ffffffffffffffffffffffffffffffffffffffff163314610205576040517f08c379a000000000000000000000000000000000000000000000000000000000815260206004820181905260248201527f4f776e61626c653a2063616c6c6572206973206e6f7420746865206f776e6572604482015260640161016f565b6000610210836104b1565b60008181526001602052604090819020805473ffffffffffffffffffffffffffffffffffffffff8681167fffffffffffffffffffffffff000000000000000000000000000000000000000083161790925591519293501690610273908590610691565b6040805191829003822073ffffffffffffffffffffffffffffffffffffffff808716845284166020840152917f9416a153a346f93d95f94b064ae3f148b6460473c6e82b3f9fc2521b873fcd6c910160405180910390a250505050565b6000600160006102df846104b1565b815260208101919091526040016000205473ffffffffffffffffffffffffffffffffffffffff1692915050565b60005473ffffffffffffffffffffffffffffffffffffffff16331461038d576040517f08c379a000000000000000000000000000000000000000000000000000000000815260206004820181905260248201527f4f776e61626c653a2063616c6c6572206973206e6f7420746865206f776e6572604482015260640161016f565b73ffffffffffffffffffffffffffffffffffffffff8116610430576040517f08c379a000000000000000000000000000000000000000000000000000000000815260206004820152602660248201527f4f776e61626c653a206e6577206f776e657220697320746865207a65726f206160448201527f6464726573730000000000000000000000000000000000000000000000000000606482015260840161016f565b6104398161043c565b50565b6000805473ffffffffffffffffffffffffffffffffffffffff8381167fffffffffffffffffffffffff0000000000000000000000000000000000000000831681178455604051919092169283917f8be0079c531659141344cd1fd0a4f28419497f9722a3daafe3b4186f6b6457e09190a35050565b6000816040516020016104c49190610691565b604051602081830303815290604052805190602001209050919050565b7f4e487b7100000000000000000000000000000000000000000000000000000000600052604160045260246000fd5b600082601f83011261052157600080fd5b813567ffffffffffffffff8082111561053c5761053c6104e1565b604051601f83017fffffffffffffffffffffffffffffffffffffffffffffffffffffffffffffffe0908116603f01168101908282118183101715610582576105826104e1565b8160405283815286602085880101111561059b57600080fd5b836020870160208301376000602085830101528094505050505092915050565b803573ffffffffffffffffffffffffffffffffffffffff811681146105df57600080fd5b919050565b600080604083850312156105f757600080fd5b823567ffffffffffffffff81111561060e57600080fd5b61061a85828601610510565b925050610629602084016105bb565b90509250929050565b60006020828403121561064457600080fd5b813567ffffffffffffffff81111561065b57600080fd5b61066784828501610510565b949350505050565b60006020828403121561068157600080fd5b61068a826105bb565b9392505050565b6000825160005b818110156106b25760208186018101518583015201610698565b818111156106c1576000828501525b50919091019291505056fea2646970667358221220882d6a267e1fbcc015c1726b422a6847e08c6be7e987e8b5ec1f7e85aa5095bb64736f6c63430008090033608060405234801561001057600080fd5b5060405162001a9838038062001a9883398101604081905261003191610072565b600080546001600160a01b0319166001600160a01b03861617905560048390556002829055600181905561006581836100bd565b600355506100ea92505050565b6000806000806080858703121561008857600080fd5b84516001600160a01b038116811461009f57600080fd5b60208601516040870151606090970151919890975090945092505050565b60008160001904831182151516156100e557634e487b7160e01b600052601160045260246000fd5b500290565b61199e80620000fa6000396000f3fe608060405234801561001057600080fd5b506004361061016c5760003560e01c8063876ed5cb116100cd578063d0f8934411610081578063e654b1fb11610066578063e654b1fb146102c0578063edcc4a45146102c9578063f722b41a146102dc57600080fd5b8063d0f89344146102b0578063e561dddc146102b857600080fd5b8063b8f77005116100b2578063b8f7700514610297578063ccf987c81461029f578063cfdf677e146102a857600080fd5b8063876ed5cb146102855780638d38c6c11461028e57600080fd5b80635ae6256d1161012457806378f4b2f21161010957806378f4b2f2146102645780637a167a8a1461026e5780637aa63a861461027d57600080fd5b80635ae6256d146102475780636fee07e01461024f57600080fd5b80632a7f18be116101555780632a7f18be146101d25780633789977014610216578063461a44781461023457600080fd5b80630b3dfa9714610171578063299ca4781461018d575b600080fd5b61017a60035481565b6040519081526020015b60405180910390f35b6000546101ad9073ffffffffffffffffffffffffffffffffffffffff1681565b60405173ffffffffffffffffffffffffffffffffffffffff9091168152602001610184565b6101e56101e03660046113e5565b6102e4565b604080518251815260208084015164ffffffffff908116918301919091529282015190921690820152606001610184565b61021e610362565b60405164ffffffffff9091168152602001610184565b6101ad6102423660046114c1565b610376565b61021e610423565b61026261025d366004611537565b610437565b005b61017a620186a081565b60055464ffffffffff1661021e565b61017a610899565b61017a61c35081565b61017a60045481565b60065461021e565b61017a60025481565b6101ad6108b4565b6102626108dc565b61017a610df8565b61017a60015481565b6102626102d73660046115a4565b610e7f565b61021e611016565b604080516060810182526000808252602082018190529181019190915260068281548110610314576103146115c6565b6000918252602091829020604080516060810182526002909302909101805483526001015464ffffffffff808216948401949094526501000000000090049092169181019190915292915050565b60008061036d611032565b50949350505050565b600080546040517fbf40fac100000000000000000000000000000000000000000000000000000000815273ffffffffffffffffffffffffffffffffffffffff9091169063bf40fac1906103cd908590600401611660565b60206040518083038186803b1580156103e557600080fd5b505afa1580156103f9573d6000803e3d6000fd5b505050506040513d601f19601f8201168201806040525081019061041d919061167a565b92915050565b60008061042e611032565b95945050505050565b61c350815111156104cf576040517f08c379a000000000000000000000000000000000000000000000000000000000815260206004820152603d60248201527f5472616e73616374696f6e20646174612073697a652065786365656473206d6160448201527f78696d756d20666f7220726f6c6c7570207472616e73616374696f6e2e00000060648201526084015b60405180910390fd5b600454821115610561576040517f08c379a000000000000000000000000000000000000000000000000000000000815260206004820152603d60248201527f5472616e73616374696f6e20676173206c696d69742065786365656473206d6160448201527f78696d756d20666f7220726f6c6c7570207472616e73616374696f6e2e00000060648201526084016104c6565b620186a08210156105f4576040517f08c379a000000000000000000000000000000000000000000000000000000000815260206004820152602960248201527f5472616e73616374696f6e20676173206c696d697420746f6f206c6f7720746f60448201527f20656e71756575652e000000000000000000000000000000000000000000000060648201526084016104c6565b6003548211156106dc5760006002546003548461061191906116c6565b61061b91906116dd565b905060005a90508181116106b1576040517f08c379a000000000000000000000000000000000000000000000000000000000815260206004820152602b60248201527f496e73756666696369656e742067617320666f72204c322072617465206c696d60448201527f6974696e67206275726e2e00000000000000000000000000000000000000000060648201526084016104c6565b60005b825a6106c090846116c6565b10156106d857806106d081611718565b9150506106b4565b5050505b6000333214156106ed575033610706565b5033731111000000000000000000000000000000001111015b60008185858560405160200161071f9493929190611751565b604080517fffffffffffffffffffffffffffffffffffffffffffffffffffffffffffffffe0818403018152828252805160209182012060608401835280845264ffffffffff42811692850192835243811693850193845260068054600181810183556000838152975160029092027ff652222313e28459528d920b65115c16c04f3efc82aaedc97be59f3f377c0d3f81019290925594517ff652222313e28459528d920b65115c16c04f3efc82aaedc97be59f3f377c0d4090910180549651841665010000000000027fffffffffffffffffffffffffffffffffffffffffffff0000000000000000000090971691909316179490941790559154919350610825916116c6565b9050808673ffffffffffffffffffffffffffffffffffffffff168473ffffffffffffffffffffffffffffffffffffffff167f4b388aecf9fa6cc92253704e5975a6129a4f735bdbd99567df4ed0094ee4ceb58888426040516108899392919061179a565b60405180910390a4505050505050565b6000806108a4611032565b50505064ffffffffff1692915050565b60006108d760405180606001604052806021815260200161194860219139610376565b905090565b60043560d81c60093560e890811c90600c35901c6108f8610899565b8364ffffffffff161461098d576040517f08c379a000000000000000000000000000000000000000000000000000000000815260206004820152603d60248201527f41637475616c20626174636820737461727420696e64657820646f6573206e6f60448201527f74206d6174636820657870656374656420737461727420696e6465782e00000060648201526084016104c6565b6109cb6040518060400160405280600d81526020017f4f564d5f53657175656e63657200000000000000000000000000000000000000815250610376565b73ffffffffffffffffffffffffffffffffffffffff163373ffffffffffffffffffffffffffffffffffffffff1614610a85576040517f08c379a000000000000000000000000000000000000000000000000000000000815260206004820152602d60248201527f46756e6374696f6e2063616e206f6e6c792062652063616c6c6564206279207460448201527f68652053657175656e6365722e0000000000000000000000000000000000000060648201526084016104c6565b6000610a9762ffffff831660106117c3565b610aa290600f611800565b905064ffffffffff8116361015610b3b576040517f08c379a000000000000000000000000000000000000000000000000000000000815260206004820152602260248201527f4e6f7420656e6f756768204261746368436f6e74657874732070726f7669646560448201527f642e00000000000000000000000000000000000000000000000000000000000060648201526084016104c6565b6005546040805160808101825260008082526020820181905291810182905260608101829052909164ffffffffff169060005b8562ffffff168163ffffffff161015610bcc576000610b928263ffffffff166110ed565b8051909350839150610ba49086611818565b9450826020015184610bb69190611840565b9350508080610bc490611860565b915050610b6e565b5060065464ffffffffff83161115610c8c576040517f08c379a000000000000000000000000000000000000000000000000000000000815260206004820152604260248201527f417474656d7074656420746f20617070656e64206d6f726520656c656d656e7460448201527f73207468616e2061726520617661696c61626c6520696e20746865207175657560648201527f652e000000000000000000000000000000000000000000000000000000000000608482015260a4016104c6565b6000610c9d8462ffffff8916611884565b63ffffffff169050600080836020015160001415610cc657505060408201516060830151610d37565b60006006610cd56001886118a9565b64ffffffffff1681548110610cec57610cec6115c6565b6000918252602091829020604080516060810182526002909302909101805483526001015464ffffffffff808216948401859052650100000000009091041691018190529093509150505b610d5b610d456001436116c6565b408a62ffffff168564ffffffffff168585611174565b7f602f1aeac0ca2e7a13e281a9ef0ad7838542712ce16780fa2ecffd351f05f899610d8684876118a9565b84610d8f610899565b6040805164ffffffffff94851681529390921660208401529082015260600160405180910390a15050600580547fffffffffffffffffffffffffffffffffffffffffffffffffffffff00000000001664ffffffffff949094169390931790925550505050505050565b6000610e026108b4565b73ffffffffffffffffffffffffffffffffffffffff16631f7b6d326040518163ffffffff1660e01b815260040160206040518083038186803b158015610e4757600080fd5b505afa158015610e5b573d6000803e3d6000fd5b505050506040513d601f19601f820116820180604052508101906108d791906118c7565b60008054906101000a900473ffffffffffffffffffffffffffffffffffffffff1673ffffffffffffffffffffffffffffffffffffffff16638da5cb5b6040518163ffffffff1660e01b815260040160206040518083038186803b158015610ee557600080fd5b505afa158015610ef9573d6000803e3d6000fd5b505050506040513d601f19601f82011682018060405250810190610f1d919061167a565b73ffffffffffffffffffffffffffffffffffffffff163373ffffffffffffffffffffffffffffffffffffffff1614610fb1576040517f08c379a000000000000000000000000000000000000000000000000000000000815260206004820181905260248201527f4f6e6c792063616c6c61626c6520627920746865204275726e2041646d696e2e60448201526064016104c6565b60018190556002829055610fc581836117c3565b60038190556002546001546040805192835260208301919091528101919091527fc6ed75e96b8b18b71edc1a6e82a9d677f8268c774a262c624eeb2cf0a8b3e07e9060600160405180910390a15050565b6005546006546000916108d79164ffffffffff909116906118a9565b60008060008060006110426108b4565b73ffffffffffffffffffffffffffffffffffffffff1663ccf8f9696040518163ffffffff1660e01b815260040160206040518083038186803b15801561108757600080fd5b505afa15801561109b573d6000803e3d6000fd5b505050506040513d601f19601f820116820180604052508101906110bf91906118e0565b64ffffffffff602882901c811697605083901c82169750607883901c8216965060a09290921c169350915050565b6111186040518060800160405280600081526020016000815260200160008152602001600081525090565b60006111256010846117c3565b61113090600f611800565b60408051608081018252823560e890811c82526003840135901c6020820152600683013560d890811c92820192909252600b90920135901c60608201529392505050565b600061117e6108b4565b905060008061118b611032565b50509150915060006040518060a001604052808573ffffffffffffffffffffffffffffffffffffffff16631f7b6d326040518163ffffffff1660e01b815260040160206040518083038186803b1580156111e457600080fd5b505afa1580156111f8573d6000803e3d6000fd5b505050506040513d601f19601f8201168201806040525081019061121c91906118c7565b81526020018a81526020018981526020018464ffffffffff16815260200160405180602001604052806000815250815250905080600001517f127186556e7be68c7e31263195225b4de02820707889540969f62c05cf73525e82602001518360400151846060015185608001516040516112999493929190611922565b60405180910390a260006112ac8261139f565b905060006112e78360400151866112c39190611840565b6112cd8b87611840565b602890811b9190911760508b901b1760788a901b17901b90565b6040517f2015276c000000000000000000000000000000000000000000000000000000008152600481018490527fffffffffffffffffffffffffffffffffffffffffffffffffffffff00000000008216602482015290915073ffffffffffffffffffffffffffffffffffffffff871690632015276c90604401600060405180830381600087803b15801561137a57600080fd5b505af115801561138e573d6000803e3d6000fd5b505050505050505050505050505050565b600081602001518260400151836060015184608001516040516020016113c89493929190611922565b604051602081830303815290604052805190602001209050919050565b6000602082840312156113f757600080fd5b5035919050565b7f4e487b7100000000000000000000000000000000000000000000000000000000600052604160045260246000fd5b600067ffffffffffffffff80841115611448576114486113fe565b604051601f85017fffffffffffffffffffffffffffffffffffffffffffffffffffffffffffffffe0908116603f0116810190828211818310171561148e5761148e6113fe565b816040528093508581528686860111156114a757600080fd5b858560208301376000602087830101525050509392505050565b6000602082840312156114d357600080fd5b813567ffffffffffffffff8111156114ea57600080fd5b8201601f810184136114fb57600080fd5b61150a8482356020840161142d565b949350505050565b73ffffffffffffffffffffffffffffffffffffffff8116811461153457600080fd5b50565b60008060006060848603121561154c57600080fd5b833561155781611512565b925060208401359150604084013567ffffffffffffffff81111561157a57600080fd5b8401601f8101861361158b57600080fd5b61159a8682356020840161142d565b9150509250925092565b600080604083850312156115b757600080fd5b50508035926020909101359150565b7f4e487b7100000000000000000000000000000000000000000000000000000000600052603260045260246000fd5b6000815180845260005b8181101561161b576020818501810151868301820152016115ff565b8181111561162d576000602083870101525b50601f017fffffffffffffffffffffffffffffffffffffffffffffffffffffffffffffffe0169290920160200192915050565b60208152600061167360208301846115f5565b9392505050565b60006020828403121561168c57600080fd5b815161167381611512565b7f4e487b7100000000000000000000000000000000000000000000000000000000600052601160045260246000fd5b6000828210156116d8576116d8611697565b500390565b600082611713577f4e487b7100000000000000000000000000000000000000000000000000000000600052601260045260246000fd5b500490565b60007fffffffffffffffffffffffffffffffffffffffffffffffffffffffffffffffff82141561174a5761174a611697565b5060010190565b600073ffffffffffffffffffffffffffffffffffffffff80871683528086166020840152508360408301526080606083015261179060808301846115f5565b9695505050505050565b8381526060602082015260006117b360608301856115f5565b9050826040830152949350505050565b6000817fffffffffffffffffffffffffffffffffffffffffffffffffffffffffffffffff04831182151516156117fb576117fb611697565b500290565b6000821982111561181357611813611697565b500190565b600063ffffffff80831681851680830382111561183757611837611697565b01949350505050565b600064ffffffffff80831681851680830382111561183757611837611697565b600063ffffffff8083168181141561187a5761187a611697565b6001019392505050565b600063ffffffff838116908316818110156118a1576118a1611697565b039392505050565b600064ffffffffff838116908316818110156118a1576118a1611697565b6000602082840312156118d957600080fd5b5051919050565b6000602082840312156118f257600080fd5b81517fffffffffffffffffffffffffffffffffffffffffffffffffffffff00000000008116811461167357600080fd5b84815283602082015282604082015260806060820152600061179060808301846115f556fe436861696e53746f72616765436f6e7461696e65722d4354432d62617463686573a2646970667358221220c8d6d671bb1ae3bd0434364664f960f2eb1e1515f336e3260e4ce79fceb2110764736f6c6343000809003360806040523480156200001157600080fd5b50604051620011b3380380620011b3833981016040819052620000349162000129565b600080546001600160a01b0319166001600160a01b0384161790558051620000649060019060208401906200006d565b50505062000266565b8280546200007b9062000229565b90600052602060002090601f0160209004810192826200009f5760008555620000ea565b82601f10620000ba57805160ff1916838001178555620000ea565b82800160010185558215620000ea579182015b82811115620000ea578251825591602001919060010190620000cd565b50620000f8929150620000fc565b5090565b5b80821115620000f85760008155600101620000fd565b634e487b7160e01b600052604160045260246000fd5b600080604083850312156200013d57600080fd5b82516001600160a01b03811681146200015557600080fd5b602084810151919350906001600160401b03808211156200017557600080fd5b818601915086601f8301126200018a57600080fd5b8151818111156200019f576200019f62000113565b604051601f8201601f19908116603f01168101908382118183101715620001ca57620001ca62000113565b816040528281528986848701011115620001e357600080fd5b600093505b82841015620002075784840186015181850187015292850192620001e8565b82841115620002195760008684830101525b8096505050505050509250929050565b600181811c908216806200023e57607f821691505b602082108114156200026057634e487b7160e01b600052602260045260246000fd5b50919050565b610f3d80620002766000396000f3fe608060405234801561001057600080fd5b50600436106100c95760003560e01c8063461a4478116100815780639507d39a1161005b5780639507d39a146101a4578063b298e36b146101b7578063ccf8f969146101ca57600080fd5b8063461a4478146101695780634651d91e1461017c5780638da5cb5b1461018f57600080fd5b80632015276c116100b25780632015276c146100fe57806329061de214610111578063299ca4781461012457600080fd5b8063167fd681146100ce5780631f7b6d32146100e3575b600080fd5b6100e16100dc366004610c59565b6101e9565b005b6100eb61034d565b6040519081526020015b60405180910390f35b6100e161010c366004610c59565b610365565b6100e161011f366004610c85565b61043d565b6000546101449073ffffffffffffffffffffffffffffffffffffffff1681565b60405173ffffffffffffffffffffffffffffffffffffffff90911681526020016100f5565b610144610177366004610cd6565b610517565b6100e161018a366004610da5565b6105c4565b61019761069b565b6040516100f59190610dbe565b6100eb6101b2366004610da5565b610729565b6100e16101c5366004610da5565b61073d565b6101d2610814565b60405164ffffffffff1990911681526020016100f5565b61027c600180546101f990610e31565b80601f016020809104026020016040519081016040528092919081815260200182805461022590610e31565b80156102725780601f1061024757610100808354040283529160200191610272565b820191906000526020600020905b81548152906001019060200180831161025557829003601f168201915b5050505050610517565b73ffffffffffffffffffffffffffffffffffffffff163373ffffffffffffffffffffffffffffffffffffffff161461033d57604080517f08c379a00000000000000000000000000000000000000000000000000000000081526020600482015260248101919091527f436861696e53746f72616765436f6e7461696e65723a2046756e6374696f6e2060448201527f63616e206f6e6c792062652063616c6c656420627920746865206f776e65722e60648201526084015b60405180910390fd5b61034960028383610825565b5050565b6000610359600261090c565b64ffffffffff16905090565b610375600180546101f990610e31565b73ffffffffffffffffffffffffffffffffffffffff163373ffffffffffffffffffffffffffffffffffffffff161461043157604080517f08c379a00000000000000000000000000000000000000000000000000000000081526020600482015260248101919091527f436861696e53746f72616765436f6e7461696e65723a2046756e6374696f6e2060448201527f63616e206f6e6c792062652063616c6c656420627920746865206f776e65722e6064820152608401610334565b61034960028383610957565b61044d600180546101f990610e31565b73ffffffffffffffffffffffffffffffffffffffff163373ffffffffffffffffffffffffffffffffffffffff161461050957604080517f08c379a00000000000000000000000000000000000000000000000000000000081526020600482015260248101919091527f436861696e53746f72616765436f6e7461696e65723a2046756e6374696f6e2060448201527f63616e206f6e6c792062652063616c6c656420627920746865206f776e65722e6064820152608401610334565b6105146002826109e6565b50565b600080546040517fbf40fac100000000000000000000000000000000000000000000000000000000815273ffffffffffffffffffffffffffffffffffffffff9091169063bf40fac19061056e908590600401610dbe565b60206040518083038186803b15801561058657600080fd5b505afa15801561059a573d6000803e3d6000fd5b505050506040513d601f19601f820116820180604052508101906105be9190610e85565b92915050565b6105d4600180546101f990610e31565b73ffffffffffffffffffffffffffffffffffffffff163373ffffffffffffffffffffffffffffffffffffffff161461069057604080517f08c379a00000000000000000000000000000000000000000000000000000000081526020600482015260248101919091527f436861696e53746f72616765436f6e7461696e65723a2046756e6374696f6e2060448201527f63616e206f6e6c792062652063616c6c656420627920746865206f776e65722e6064820152608401610334565b610514600282610a47565b600180546106a890610e31565b80601f01602080910402602001604051908101604052809291908181526020018280546106d490610e31565b80156107215780601f106106f657610100808354040283529160200191610721565b820191906000526020600020905b81548152906001019060200180831161070457829003601f168201915b505050505081565b60006105be600264ffffffffff8416610aa4565b61074d600180546101f990610e31565b73ffffffffffffffffffffffffffffffffffffffff163373ffffffffffffffffffffffffffffffffffffffff161461080957604080517f08c379a00000000000000000000000000000000000000000000000000000000081526020600482015260248101919091527f436861696e53746f72616765436f6e7461696e65723a2046756e6374696f6e2060448201527f63616e206f6e6c792062652063616c6c656420627920746865206f776e65722e6064820152608401610334565b610514600282610b73565b60006108206002610bd0565b905090565b600061086784604080518082019091526000808252602082015250546040805180820190915264ffffffffff8216815264ffffffffff19909116602082015290565b9050806000015164ffffffffff168364ffffffffff16106108e4576040517f08c379a000000000000000000000000000000000000000000000000000000000815260206004820152601460248201527f496e646578206f7574206f6620626f756e64732e0000000000000000000000006044820152606401610334565b64ffffffffff8316815264ffffffffff19821660208201526109068482610c1e565b50505050565b60008061094f83604080518082019091526000808252602082015250546040805180820190915264ffffffffff8216815264ffffffffff19909116602082015290565b519392505050565b600061099984604080518082019091526000808252602082015250546040805180820190915264ffffffffff8216815264ffffffffff19909116602082015290565b805164ffffffffff16600090815260018601602052604090208490558051909150816109c482610ebb565b64ffffffffff1690525064ffffffffff19821660208201526109068482610c1e565b6000610a2883604080518082019091526000808252602082015250546040805180820190915264ffffffffff8216815264ffffffffff19909116602082015290565b64ffffffffff19831660208201529050610a428382610c1e565b505050565b6000610a8983604080518082019091526000808252602082015250546040805180820190915264ffffffffff8216815264ffffffffff19909116602082015290565b9050610a42828260200151856108259092919063ffffffff16565b600080610ae784604080518082019091526000808252602082015250546040805180820190915264ffffffffff8216815264ffffffffff19909116602082015290565b805190915064ffffffffff168310610b5b576040517f08c379a000000000000000000000000000000000000000000000000000000000815260206004820152601460248201527f496e646578206f7574206f6620626f756e64732e0000000000000000000000006044820152606401610334565b50506000908152600191909101602052604090205490565b6000610bb583604080518082019091526000808252602082015250546040805180820190915264ffffffffff8216815264ffffffffff19909116602082015290565b9050610a42828260200151856109579092919063ffffffff16565b600080610c1383604080518082019091526000808252602082015250546040805180820190915264ffffffffff8216815264ffffffffff19909116602082015290565b602001519392505050565b8051602082015183548183179291908314610c37578285555b5050505050565b803564ffffffffff1981168114610c5457600080fd5b919050565b60008060408385031215610c6c57600080fd5b82359150610c7c60208401610c3e565b90509250929050565b600060208284031215610c9757600080fd5b610ca082610c3e565b9392505050565b7f4e487b7100000000000000000000000000000000000000000000000000000000600052604160045260246000fd5b600060208284031215610ce857600080fd5b813567ffffffffffffffff80821115610d0057600080fd5b818401915084601f830112610d1457600080fd5b813581811115610d2657610d26610ca7565b604051601f82017fffffffffffffffffffffffffffffffffffffffffffffffffffffffffffffffe0908116603f01168101908382118183101715610d6c57610d6c610ca7565b81604052828152876020848701011115610d8557600080fd5b826020860160208301376000928101602001929092525095945050505050565b600060208284031215610db757600080fd5b5035919050565b600060208083528351808285015260005b81811015610deb57858101830151858201604001528201610dcf565b81811115610dfd576000604083870101525b50601f017fffffffffffffffffffffffffffffffffffffffffffffffffffffffffffffffe016929092016040019392505050565b600181811c90821680610e4557607f821691505b60208210811415610e7f577f4e487b7100000000000000000000000000000000000000000000000000000000600052602260045260246000fd5b50919050565b600060208284031215610e9757600080fd5b815173ffffffffffffffffffffffffffffffffffffffff81168114610ca057600080fd5b600064ffffffffff80831681811415610efd577f4e487b7100000000000000000000000000000000000000000000000000000000600052601160045260246000fd5b600101939250505056fea2646970667358221220e1995ee56c4c5e67de41c56ad510b16704727d3ab1fa5bb2e3c62b0bd7c0597564736f6c63430008090033a2646970667358221220886014d16842c74147373206df26543523d0f94e5c13cc3d4e1f88d2db52f65564736f6c63430008090033",
  "linkReferences": {},
  "deployedLinkReferences": {}
}