{
  "_format": "hh-sol-artifact-1",
  "contractName": "OasysStateCommitmentChain",
  "sourceName": "contracts/oasys/L1/rollup/OasysStateCommitmentChain.sol",
  "abi": [
    {
      "inputs": [
        {
          "internalType": "address",
          "name": "_libAddressManager",
          "type": "address"
        },
        {
          "internalType": "uint256",
          "name": "_fraudProofWindow",
          "type": "uint256"
        },
        {
          "internalType": "uint256",
          "name": "_sequencerPublishWindow",
          "type": "uint256"
        }
      ],
      "stateMutability": "nonpayable",
      "type": "constructor"
    },
    {
      "anonymous": false,
      "inputs": [
        {
          "indexed": true,
          "internalType": "uint256",
          "name": "_batchIndex",
          "type": "uint256"
        },
        {
          "indexed": false,
          "internalType": "bytes32",
          "name": "_batchRoot",
          "type": "bytes32"
        },
        {
          "indexed": false,
          "internalType": "uint256",
          "name": "_batchSize",
          "type": "uint256"
        },
        {
          "indexed": false,
          "internalType": "uint256",
          "name": "_prevTotalElements",
          "type": "uint256"
        },
        {
          "indexed": false,
          "internalType": "bytes",
          "name": "_extraData",
          "type": "bytes"
        }
      ],
      "name": "StateBatchAppended",
      "type": "event"
    },
    {
      "anonymous": false,
      "inputs": [
        {
          "indexed": true,
          "internalType": "uint256",
          "name": "_batchIndex",
          "type": "uint256"
        },
        {
          "indexed": false,
          "internalType": "bytes32",
          "name": "_batchRoot",
          "type": "bytes32"
        }
      ],
      "name": "StateBatchDeleted",
      "type": "event"
    },
    {
      "anonymous": false,
      "inputs": [
        {
          "indexed": true,
          "internalType": "uint256",
          "name": "_batchIndex",
          "type": "uint256"
        },
        {
          "indexed": false,
          "internalType": "bytes32",
          "name": "_batchRoot",
          "type": "bytes32"
        }
      ],
      "name": "StateBatchFailed",
      "type": "event"
    },
    {
      "anonymous": false,
      "inputs": [
        {
          "indexed": true,
          "internalType": "uint256",
          "name": "_batchIndex",
          "type": "uint256"
        },
        {
          "indexed": false,
          "internalType": "bytes32",
          "name": "_batchRoot",
          "type": "bytes32"
        }
      ],
      "name": "StateBatchVerified",
      "type": "event"
    },
    {
      "inputs": [],
      "name": "FRAUD_PROOF_WINDOW",
      "outputs": [
        {
          "internalType": "uint256",
          "name": "",
          "type": "uint256"
        }
      ],
      "stateMutability": "view",
      "type": "function"
    },
    {
      "inputs": [],
      "name": "SEQUENCER_PUBLISH_WINDOW",
      "outputs": [
        {
          "internalType": "uint256",
          "name": "",
          "type": "uint256"
        }
      ],
      "stateMutability": "view",
      "type": "function"
    },
    {
      "inputs": [
        {
          "internalType": "bytes32[]",
          "name": "_batch",
          "type": "bytes32[]"
        },
        {
          "internalType": "uint256",
          "name": "_shouldStartAtElement",
          "type": "uint256"
        }
      ],
      "name": "appendStateBatch",
      "outputs": [],
      "stateMutability": "nonpayable",
      "type": "function"
    },
    {
      "inputs": [],
      "name": "batches",
      "outputs": [
        {
          "internalType": "contract IChainStorageContainer",
          "name": "",
          "type": "address"
        }
      ],
      "stateMutability": "view",
      "type": "function"
    },
    {
      "inputs": [
        {
          "components": [
            {
              "internalType": "uint256",
              "name": "batchIndex",
              "type": "uint256"
            },
            {
              "internalType": "bytes32",
              "name": "batchRoot",
              "type": "bytes32"
            },
            {
              "internalType": "uint256",
              "name": "batchSize",
              "type": "uint256"
            },
            {
              "internalType": "uint256",
              "name": "prevTotalElements",
              "type": "uint256"
            },
            {
              "internalType": "bytes",
              "name": "extraData",
              "type": "bytes"
            }
          ],
          "internalType": "struct Lib_OVMCodec.ChainBatchHeader",
          "name": "_batchHeader",
          "type": "tuple"
        }
      ],
      "name": "deleteStateBatch",
      "outputs": [],
      "stateMutability": "nonpayable",
      "type": "function"
    },
    {
      "inputs": [
        {
          "components": [
            {
              "internalType": "uint256",
              "name": "batchIndex",
              "type": "uint256"
            },
            {
              "internalType": "bytes32",
              "name": "batchRoot",
              "type": "bytes32"
            },
            {
              "internalType": "uint256",
              "name": "batchSize",
              "type": "uint256"
            },
            {
              "internalType": "uint256",
              "name": "prevTotalElements",
              "type": "uint256"
            },
            {
              "internalType": "bytes",
              "name": "extraData",
              "type": "bytes"
            }
          ],
          "internalType": "struct Lib_OVMCodec.ChainBatchHeader",
          "name": "_batchHeader",
          "type": "tuple"
        }
      ],
      "name": "failVerification",
      "outputs": [],
      "stateMutability": "nonpayable",
      "type": "function"
    },
    {
      "inputs": [],
      "name": "getLastSequencerTimestamp",
      "outputs": [
        {
          "internalType": "uint256",
          "name": "_lastSequencerTimestamp",
          "type": "uint256"
        }
      ],
      "stateMutability": "view",
      "type": "function"
    },
    {
      "inputs": [],
      "name": "getTotalBatches",
      "outputs": [
        {
          "internalType": "uint256",
          "name": "_totalBatches",
          "type": "uint256"
        }
      ],
      "stateMutability": "view",
      "type": "function"
    },
    {
      "inputs": [],
      "name": "getTotalElements",
      "outputs": [
        {
          "internalType": "uint256",
          "name": "_totalElements",
          "type": "uint256"
        }
      ],
      "stateMutability": "view",
      "type": "function"
    },
    {
      "inputs": [
        {
          "components": [
            {
              "internalType": "uint256",
              "name": "batchIndex",
              "type": "uint256"
            },
            {
              "internalType": "bytes32",
              "name": "batchRoot",
              "type": "bytes32"
            },
            {
              "internalType": "uint256",
              "name": "batchSize",
              "type": "uint256"
            },
            {
              "internalType": "uint256",
              "name": "prevTotalElements",
              "type": "uint256"
            },
            {
              "internalType": "bytes",
              "name": "extraData",
              "type": "bytes"
            }
          ],
          "internalType": "struct Lib_OVMCodec.ChainBatchHeader",
          "name": "_batchHeader",
          "type": "tuple"
        }
      ],
      "name": "insideFraudProofWindow",
      "outputs": [
        {
          "internalType": "bool",
          "name": "_inside",
          "type": "bool"
        }
      ],
      "stateMutability": "view",
      "type": "function"
    },
    {
      "inputs": [],
      "name": "libAddressManager",
      "outputs": [
        {
          "internalType": "contract Lib_AddressManager",
          "name": "",
          "type": "address"
        }
      ],
      "stateMutability": "view",
      "type": "function"
    },
    {
      "inputs": [],
      "name": "nextIndex",
      "outputs": [
        {
          "internalType": "uint256",
          "name": "",
          "type": "uint256"
        }
      ],
      "stateMutability": "view",
      "type": "function"
    },
    {
      "inputs": [
        {
          "internalType": "string",
          "name": "_name",
          "type": "string"
        }
      ],
      "name": "resolve",
      "outputs": [
        {
          "internalType": "address",
          "name": "",
          "type": "address"
        }
      ],
      "stateMutability": "view",
      "type": "function"
    },
    {
      "inputs": [
        {
          "components": [
            {
              "internalType": "uint256",
              "name": "batchIndex",
              "type": "uint256"
            },
            {
              "internalType": "bytes32",
              "name": "batchRoot",
              "type": "bytes32"
            },
            {
              "internalType": "uint256",
              "name": "batchSize",
              "type": "uint256"
            },
            {
              "internalType": "uint256",
              "name": "prevTotalElements",
              "type": "uint256"
            },
            {
              "internalType": "bytes",
              "name": "extraData",
              "type": "bytes"
            }
          ],
          "internalType": "struct Lib_OVMCodec.ChainBatchHeader",
          "name": "_batchHeader",
          "type": "tuple"
        }
      ],
      "name": "succeedVerification",
      "outputs": [],
      "stateMutability": "nonpayable",
      "type": "function"
    },
    {
      "inputs": [
        {
          "internalType": "bytes32",
          "name": "_element",
          "type": "bytes32"
        },
        {
          "components": [
            {
              "internalType": "uint256",
              "name": "batchIndex",
              "type": "uint256"
            },
            {
              "internalType": "bytes32",
              "name": "batchRoot",
              "type": "bytes32"
            },
            {
              "internalType": "uint256",
              "name": "batchSize",
              "type": "uint256"
            },
            {
              "internalType": "uint256",
              "name": "prevTotalElements",
              "type": "uint256"
            },
            {
              "internalType": "bytes",
              "name": "extraData",
              "type": "bytes"
            }
          ],
          "internalType": "struct Lib_OVMCodec.ChainBatchHeader",
          "name": "_batchHeader",
          "type": "tuple"
        },
        {
          "components": [
            {
              "internalType": "uint256",
              "name": "index",
              "type": "uint256"
            },
            {
              "internalType": "bytes32[]",
              "name": "siblings",
              "type": "bytes32[]"
            }
          ],
          "internalType": "struct Lib_OVMCodec.ChainInclusionProof",
          "name": "_proof",
          "type": "tuple"
        }
      ],
      "name": "verifyStateCommitment",
      "outputs": [
        {
          "internalType": "bool",
          "name": "",
          "type": "bool"
        }
      ],
      "stateMutability": "view",
      "type": "function"
    }
  ],
  "bytecode": "0x608060405234801561001057600080fd5b50604051620023ea380380620023ea8339810160408190526100319161005d565b600080546001600160a01b0319166001600160a01b0394909416939093179092556001556002556100a0565b60008060006060848603121561007257600080fd5b83516001600160a01b038116811461008957600080fd5b602085015160409095015190969495509392505050565b61233a80620000b06000396000f3fe608060405234801561001057600080fd5b50600436106100f55760003560e01c80639418bddd11610097578063cfdf677e11610066578063cfdf677e146101f8578063e0c2b41814610200578063e561dddc14610213578063fc7e9c6f1461021b57600080fd5b80639418bddd146101b65780639594dd64146101c9578063b8e189ac146101dc578063c17b291b146101ef57600080fd5b80637aa63a86116100d35780637aa63a861461017a5780637ad168a01461019057806381eb62ef146101985780638ca5cbb9146101a157600080fd5b8063299ca478146100fa578063461a4478146101445780634d69ee5714610157575b600080fd5b60005461011a9073ffffffffffffffffffffffffffffffffffffffff1681565b60405173ffffffffffffffffffffffffffffffffffffffff90911681526020015b60405180910390f35b61011a610152366004611d47565b610224565b61016a610165366004611eb9565b6102d1565b604051901515815260200161013b565b6101826103a0565b60405190815260200161013b565b6101826103b9565b61018260025481565b6101b46101af366004611f76565b6103d2565b005b61016a6101c4366004611fbb565b6107ac565b6101b46101d7366004611fbb565b61086b565b6101b46101ea366004611fbb565b6109e6565b61018260015481565b61011a610ba2565b6101b461020e366004611fbb565b610bca565b610182610d1f565b61018260035481565b600080546040517fbf40fac100000000000000000000000000000000000000000000000000000000815273ffffffffffffffffffffffffffffffffffffffff9091169063bf40fac19061027b90859060040161205b565b60206040518083038186803b15801561029357600080fd5b505afa1580156102a7573d6000803e3d6000fd5b505050506040513d601f19601f820116820180604052508101906102cb9190612090565b92915050565b60006102dc83610da6565b61032d5760405162461bcd60e51b815260206004820152601560248201527f496e76616c6964206261746368206865616465722e000000000000000000000060448201526064015b60405180910390fd5b61034a836020015185846000015185602001518760400151610e68565b6103965760405162461bcd60e51b815260206004820152601860248201527f496e76616c696420696e636c7573696f6e2070726f6f662e00000000000000006044820152606401610324565b5060019392505050565b6000806103ab6110d6565b5064ffffffffff1692915050565b6000806103c46110d6565b64ffffffffff169392505050565b6103da6103a0565b811461044e5760405162461bcd60e51b815260206004820152603d60248201527f41637475616c20626174636820737461727420696e64657820646f6573206e6f60448201527f74206d6174636820657870656374656420737461727420696e6465782e0000006064820152608401610324565b61048c6040518060400160405280600b81526020017f426f6e644d616e61676572000000000000000000000000000000000000000000815250610224565b6040517f02ad4d2a00000000000000000000000000000000000000000000000000000000815233600482015273ffffffffffffffffffffffffffffffffffffffff91909116906302ad4d2a9060240160206040518083038186803b1580156104f357600080fd5b505afa158015610507573d6000803e3d6000fd5b505050506040513d601f19601f8201168201806040525081019061052b91906120ad565b61059d5760405162461bcd60e51b815260206004820152602f60248201527f50726f706f73657220646f6573206e6f74206861766520656e6f75676820636f60448201527f6c6c61746572616c20706f7374656400000000000000000000000000000000006064820152608401610324565b60008251116106145760405162461bcd60e51b815260206004820152602360248201527f43616e6e6f74207375626d697420616e20656d7074792073746174652062617460448201527f63682e00000000000000000000000000000000000000000000000000000000006064820152608401610324565b6106526040518060400160405280601981526020017f43616e6f6e6963616c5472616e73616374696f6e436861696e00000000000000815250610224565b73ffffffffffffffffffffffffffffffffffffffff16637aa63a866040518163ffffffff1660e01b815260040160206040518083038186803b15801561069757600080fd5b505afa1580156106ab573d6000803e3d6000fd5b505050506040513d601f19601f820116820180604052508101906106cf91906120cf565b82516106d96103a0565b6106e39190612117565b111561077d5760405162461bcd60e51b815260206004820152604960248201527f4e756d626572206f6620737461746520726f6f74732063616e6e6f742065786360448201527f65656420746865206e756d626572206f662063616e6f6e6963616c207472616e60648201527f73616374696f6e732e0000000000000000000000000000000000000000000000608482015260a401610324565b60408051426020820152338183015281518082038301815260609091019091526107a890839061117a565b5050565b6000600354826000015110156107c457506000919050565b600082608001518060200190518101906107de919061212f565b509050806108545760405162461bcd60e51b815260206004820152602560248201527f4261746368206865616465722074696d657374616d702063616e6e6f7420626560448201527f207a65726f0000000000000000000000000000000000000000000000000000006064820152608401610324565b42600154826108639190612117565b119392505050565b33735200000000000000000000000000000000000014146108ce5760405162461bcd60e51b815260206004820152601760248201527f496e76616c6964206d6573736167652073656e6465722e0000000000000000006044820152606401610324565b6108d781610da6565b6109235760405162461bcd60e51b815260206004820152601560248201527f496e76616c6964206261746368206865616465722e00000000000000000000006044820152606401610324565b61092c816107ac565b6109a0576040805162461bcd60e51b81526020600482015260248101919091527f537461746520626174636865732063616e206f6e6c792062652064656c65746560448201527f642077697468696e207468652066726175642070726f6f662077696e646f772e6064820152608401610324565b6109a98161141d565b80516020808301516040519081527f1723478079cff2362bd8896c78c4c8bee974428fc01131b52d79078349af3e1091015b60405180910390a250565b610a246040518060400160405280601181526020017f4f564d5f46726175645665726966696572000000000000000000000000000000815250610224565b73ffffffffffffffffffffffffffffffffffffffff163373ffffffffffffffffffffffffffffffffffffffff1614610ac45760405162461bcd60e51b815260206004820152603b60248201527f537461746520626174636865732063616e206f6e6c792062652064656c65746560448201527f6420627920746865204f564d5f467261756456657269666965722e00000000006064820152608401610324565b610acd81610da6565b610b195760405162461bcd60e51b815260206004820152601560248201527f496e76616c6964206261746368206865616465722e00000000000000000000006044820152606401610324565b610b22816107ac565b610b96576040805162461bcd60e51b81526020600482015260248101919091527f537461746520626174636865732063616e206f6e6c792062652064656c65746560448201527f642077697468696e207468652066726175642070726f6f662077696e646f772e6064820152608401610324565b610b9f8161141d565b50565b6000610bc56040518060600160405280602181526020016122e460219139610224565b905090565b3373520000000000000000000000000000000000001414610c2d5760405162461bcd60e51b815260206004820152601760248201527f496e76616c6964206d6573736167652073656e6465722e0000000000000000006044820152606401610324565b610c3681610da6565b610c825760405162461bcd60e51b815260206004820152601560248201527f496e76616c6964206261746368206865616465722e00000000000000000000006044820152606401610324565b600354815114610cd45760405162461bcd60e51b815260206004820152601460248201527f496e76616c696420626174636820696e6465782e0000000000000000000000006044820152606401610324565b60038054906000610ce48361215f565b909155505080516020808301516040519081527fc032f530357a4853a125c129880b7801f1f30fb46fdd0e2f3bbc6e053199dca991016109db565b6000610d29610ba2565b73ffffffffffffffffffffffffffffffffffffffff16631f7b6d326040518163ffffffff1660e01b815260040160206040518083038186803b158015610d6e57600080fd5b505afa158015610d82573d6000803e3d6000fd5b505050506040513d601f19601f82011682018060405250810190610bc591906120cf565b6000610db0610ba2565b82516040517f9507d39a00000000000000000000000000000000000000000000000000000000815273ffffffffffffffffffffffffffffffffffffffff9290921691639507d39a91610e089160040190815260200190565b60206040518083038186803b158015610e2057600080fd5b505afa158015610e34573d6000803e3d6000fd5b505050506040513d601f19601f82011682018060405250810190610e5891906120cf565b610e6183611643565b1492915050565b6000808211610edf5760405162461bcd60e51b815260206004820152603760248201527f4c69625f4d65726b6c65547265653a20546f74616c206c6561766573206d757360448201527f742062652067726561746572207468616e207a65726f2e0000000000000000006064820152608401610324565b818410610f535760405162461bcd60e51b8152602060048201526024808201527f4c69625f4d65726b6c65547265653a20496e646578206f7574206f6620626f7560448201527f6e64732e000000000000000000000000000000000000000000000000000000006064820152608401610324565b610f5c82611689565b835114610ff75760405162461bcd60e51b815260206004820152604d60248201527f4c69625f4d65726b6c65547265653a20546f74616c207369626c696e6773206460448201527f6f6573206e6f7420636f72726563746c7920636f72726573706f6e6420746f2060648201527f746f74616c206c65617665732e00000000000000000000000000000000000000608482015260a401610324565b8460005b84518110156110c95785600116600114156110625784818151811061102257611022612198565b602002602001015182604051602001611045929190918252602082015260400190565b6040516020818303038152906040528051906020012091506110b0565b8185828151811061107557611075612198565b6020026020010151604051602001611097929190918252602082015260400190565b6040516020818303038152906040528051906020012091505b60019590951c94806110c18161215f565b915050610ffb565b5090951495945050505050565b60008060006110e3610ba2565b73ffffffffffffffffffffffffffffffffffffffff1663ccf8f9696040518163ffffffff1660e01b815260040160206040518083038186803b15801561112857600080fd5b505afa15801561113c573d6000803e3d6000fd5b505050506040513d601f19601f8201168201806040525081019061116091906121c7565b64ffffffffff602882901c169460509190911c9350915050565b60006111ba6040518060400160405280600c81526020017f4f564d5f50726f706f7365720000000000000000000000000000000000000000815250610224565b90506000806111c76110d6565b90925090503373ffffffffffffffffffffffffffffffffffffffff841614156111f15750426112a0565b426002548264ffffffffff166112079190612117565b106112a05760405162461bcd60e51b815260206004820152604360248201527f43616e6e6f74207075626c69736820737461746520726f6f747320776974686960448201527f6e207468652073657175656e636572207075626c69636174696f6e2077696e6460648201527f6f772e0000000000000000000000000000000000000000000000000000000000608482015260a401610324565b60006040518060a001604052806112b5610d1f565b81526020016112c38861176f565b8152602001875181526020018464ffffffffff16815260200186815250905080600001517f16be4c5129a4e03cf3350262e181dc02ddfb4a6008d925368c0899fcd97ca9c5826020015183604001518460600151856080015160405161132c9493929190612209565b60405180910390a261133c610ba2565b73ffffffffffffffffffffffffffffffffffffffff16632015276c61136083611643565b611385846040015185606001516113779190612117565b602887811b91909117901b90565b6040517fffffffff0000000000000000000000000000000000000000000000000000000060e085901b16815260048101929092527fffffffffffffffffffffffffffffffffffffffffffffffffffffff0000000000166024820152604401600060405180830381600087803b1580156113fd57600080fd5b505af1158015611411573d6000803e3d6000fd5b50505050505050505050565b611425610ba2565b73ffffffffffffffffffffffffffffffffffffffff16631f7b6d326040518163ffffffff1660e01b815260040160206040518083038186803b15801561146a57600080fd5b505afa15801561147e573d6000803e3d6000fd5b505050506040513d601f19601f820116820180604052508101906114a291906120cf565b8151106114f15760405162461bcd60e51b815260206004820152601460248201527f496e76616c696420626174636820696e6465782e0000000000000000000000006044820152606401610324565b6114fa81610da6565b6115465760405162461bcd60e51b815260206004820152601560248201527f496e76616c6964206261746368206865616465722e00000000000000000000006044820152606401610324565b61154e610ba2565b8151606083015173ffffffffffffffffffffffffffffffffffffffff929092169163167fd681919060281b6040517fffffffff0000000000000000000000000000000000000000000000000000000060e085901b16815260048101929092527fffffffffffffffffffffffffffffffffffffffffffffffffffffff0000000000166024820152604401600060405180830381600087803b1580156115f157600080fd5b505af1158015611605573d6000803e3d6000fd5b5050505080600001517f8747b69ce8fdb31c3b9b0a67bd8049ad8c1a69ea417b69b12174068abd9cbd6482602001516040516109db91815260200190565b6000816020015182604001518360600151846080015160405160200161166c9493929190612209565b604051602081830303815290604052805190602001209050919050565b60008082116117005760405162461bcd60e51b815260206004820152603060248201527f4c69625f4d65726b6c65547265653a2043616e6e6f7420636f6d70757465206360448201527f65696c286c6f675f3229206f6620302e000000000000000000000000000000006064820152608401610324565b816001141561171157506000919050565b81600060805b6001811061174f578061172d600180831b612238565b901b831615611747576117408183612117565b92811c9291505b60011c611717565b506001811b841461176857611765600182612117565b90505b9392505050565b6000808251116117e75760405162461bcd60e51b815260206004820152603460248201527f4c69625f4d65726b6c65547265653a204d7573742070726f766964652061742060448201527f6c65617374206f6e65206c65616620686173682e0000000000000000000000006064820152608401610324565b815160011415611813578160008151811061180457611804612198565b60200260200101519050919050565b60408051610200810182527f290decd9548b62a8d60345a988386fc84ba6bc95484008f6362f93160ef3e56381527f633dc4d7da7256660a892f8f1604a44b5432649cc8ec5cb3ced4c4e6ac94dd1d60208201527f890740a8eb06ce9be422cb8da5cdafc2b58c0a5e24036c578de2a433c828ff7d818301527f3b8ec09e026fdc305365dfc94e189a81b38c7597b3d941c279f042e8206e0bd86060808301919091527fecd50eee38e386bd62be9bedb990706951b65fe053bd9d8a521af753d139e2da60808301527fdefff6d330bb5403f63b14f33b578274160de3a50df4efecf0e0db73bcdd3da560a08301527f617bdd11f7c0a11f49db22f629387a12da7596f9d1704d7465177c63d88ec7d760c08301527f292c23a9aa1d8bea7e2435e555a4a60e379a5a35f3f452bae60121073fb6eead60e08301527fe1cea92ed99acdcb045a6726b2f87107e8a61620a232cf4d7d5b5766b3952e106101008301527f7ad66c0a68c72cb89e4fb4303841966e4062a76ab97451e3b9fb526a5ceb7f826101208301527fe026cc5a4aed3c22a58cbd3d2ac754c9352c5436f638042dca99034e836365166101408301527f3d04cffd8b46a874edf5cfae63077de85f849a660426697b06a829c70dd1409c6101608301527fad676aa337a485e4728a0b240d92b3ef7b3c372d06d189322bfd5f61f1e7203e6101808301527fa2fca4a49658f9fab7aa63289c91b7c7b6c832a6d0e69334ff5b0a3483d09dab6101a08301527f4ebfd9cd7bca2505f7bef59cc1c12ecc708fff26ae4af19abe852afe9e20c8626101c08301527f2def10d13dd169f550f578bda343d9717a138562e0093b380a1120789d53cf106101e083015282518381529081018352909160009190602082018180368337505085519192506000918291508180805b6001841115611c2957611ac460028561227e565b9150611ad1600285612292565b600114905060005b82811015611b7d578a611aed8260026122a6565b81518110611afd57611afd612198565b602002602001015196508a816002611b1591906122a6565b611b20906001612117565b81518110611b3057611b30612198565b6020026020010151955086602089015285604089015287805190602001208b8281518110611b6057611b60612198565b602090810291909101015280611b758161215f565b915050611ad9565b508015611bf95789611b90600186612238565b81518110611ba057611ba0612198565b60200260200101519550878360108110611bbc57611bbc612198565b602002015160001b945085602088015284604088015286805190602001208a8381518110611bec57611bec612198565b6020026020010181815250505b80611c05576000611c08565b60015b611c159060ff1683612117565b935082611c218161215f565b935050611ab0565b89600081518110611c3c57611c3c612198565b602002602001015198505050505050505050919050565b7f4e487b7100000000000000000000000000000000000000000000000000000000600052604160045260246000fd5b604051601f82017fffffffffffffffffffffffffffffffffffffffffffffffffffffffffffffffe016810167ffffffffffffffff81118282101715611cc957611cc9611c53565b604052919050565b600067ffffffffffffffff831115611ceb57611ceb611c53565b611d1c60207fffffffffffffffffffffffffffffffffffffffffffffffffffffffffffffffe0601f86011601611c82565b9050828152838383011115611d3057600080fd5b828260208301376000602084830101529392505050565b600060208284031215611d5957600080fd5b813567ffffffffffffffff811115611d7057600080fd5b8201601f81018413611d8157600080fd5b611d9084823560208401611cd1565b949350505050565b600060a08284031215611daa57600080fd5b60405160a0810167ffffffffffffffff8282108183111715611dce57611dce611c53565b81604052829350843583526020850135602084015260408501356040840152606085013560608401526080850135915080821115611e0b57600080fd5b508301601f81018513611e1d57600080fd5b611e2c85823560208401611cd1565b6080830152505092915050565b600082601f830112611e4a57600080fd5b8135602067ffffffffffffffff821115611e6657611e66611c53565b8160051b611e75828201611c82565b9283528481018201928281019087851115611e8f57600080fd5b83870192505b84831015611eae57823582529183019190830190611e95565b979650505050505050565b600080600060608486031215611ece57600080fd5b83359250602084013567ffffffffffffffff80821115611eed57600080fd5b611ef987838801611d98565b93506040860135915080821115611f0f57600080fd5b9085019060408288031215611f2357600080fd5b604051604081018181108382111715611f3e57611f3e611c53565b60405282358152602083013582811115611f5757600080fd5b611f6389828601611e39565b6020830152508093505050509250925092565b60008060408385031215611f8957600080fd5b823567ffffffffffffffff811115611fa057600080fd5b611fac85828601611e39565b95602094909401359450505050565b600060208284031215611fcd57600080fd5b813567ffffffffffffffff811115611fe457600080fd5b611d9084828501611d98565b6000815180845260005b8181101561201657602081850181015186830182015201611ffa565b81811115612028576000602083870101525b50601f017fffffffffffffffffffffffffffffffffffffffffffffffffffffffffffffffe0169290920160200192915050565b6020815260006117686020830184611ff0565b73ffffffffffffffffffffffffffffffffffffffff81168114610b9f57600080fd5b6000602082840312156120a257600080fd5b81516117688161206e565b6000602082840312156120bf57600080fd5b8151801515811461176857600080fd5b6000602082840312156120e157600080fd5b5051919050565b7f4e487b7100000000000000000000000000000000000000000000000000000000600052601160045260246000fd5b6000821982111561212a5761212a6120e8565b500190565b6000806040838503121561214257600080fd5b8251915060208301516121548161206e565b809150509250929050565b60007fffffffffffffffffffffffffffffffffffffffffffffffffffffffffffffffff821415612191576121916120e8565b5060010190565b7f4e487b7100000000000000000000000000000000000000000000000000000000600052603260045260246000fd5b6000602082840312156121d957600080fd5b81517fffffffffffffffffffffffffffffffffffffffffffffffffffffff00000000008116811461176857600080fd5b84815283602082015282604082015260806060820152600061222e6080830184611ff0565b9695505050505050565b60008282101561224a5761224a6120e8565b500390565b7f4e487b7100000000000000000000000000000000000000000000000000000000600052601260045260246000fd5b60008261228d5761228d61224f565b500490565b6000826122a1576122a161224f565b500690565b6000817fffffffffffffffffffffffffffffffffffffffffffffffffffffffffffffffff04831182151516156122de576122de6120e8565b50029056fe436861696e53746f72616765436f6e7461696e65722d5343432d62617463686573a264697066735822122060a057bdd3794e10fb5160d3519c4bc1d6ee67b68a543739f166ac503884e1da64736f6c63430008090033",
  "linkReferences": {},
  "deployedLinkReferences": {}
}