{
  "_format": "hh-sol-artifact-1",
  "contractName": "L1BuildStep4",
  "sourceName": "contracts/oasys/L1/build/L1BuildStep4.sol",
  "abi": [
    {
      "inputs": [],
      "name": "agentAddress",
      "outputs": [
        {
          "internalType": "address",
          "name": "",
          "type": "address"
        }
      ],
      "stateMutability": "view",
      "type": "function"
    },
    {
      "inputs": [
        {
          "internalType": "uint256",
          "name": "_chainId",
          "type": "uint256"
        },
        {
          "internalType": "address",
          "name": "_builder",
          "type": "address"
        }
      ],
      "name": "build",
      "outputs": [],
      "stateMutability": "nonpayable",
      "type": "function"
    },
    {
      "inputs": [
        {
          "internalType": "address",
          "name": "_agentAddress",
          "type": "address"
        },
        {
          "internalType": "address",
          "name": "_paramAddress",
          "type": "address"
        }
      ],
      "name": "initialize",
      "outputs": [],
      "stateMutability": "nonpayable",
      "type": "function"
    },
    {
      "inputs": [],
      "name": "paramAddress",
      "outputs": [
        {
          "internalType": "address",
          "name": "",
          "type": "address"
        }
      ],
      "stateMutability": "view",
      "type": "function"
    }
  ],
  "bytecode": "0x608060405234801561001057600080fd5b506129d6806100206000396000f3fe60806040523480156200001157600080fd5b5060043610620000525760003560e01c806303305d3214620000575780633861369014620000a1578063485cc95514620000c25780637ef7cca214620000db575b600080fd5b600154620000789073ffffffffffffffffffffffffffffffffffffffff1681565b60405173ffffffffffffffffffffffffffffffffffffffff909116815260200160405180910390f35b600054620000789073ffffffffffffffffffffffffffffffffffffffff1681565b620000d9620000d336600462000eda565b620000f2565b005b620000d9620000ec36600462000f18565b620001ee565b60005473ffffffffffffffffffffffffffffffffffffffff161580156200012f575060015473ffffffffffffffffffffffffffffffffffffffff16155b6200019b576040517f08c379a000000000000000000000000000000000000000000000000000000000815260206004820152601460248201527f696e697469616c697a65206f6e6c79206f6e636500000000000000000000000060448201526064015b60405180910390fd5b6000805473ffffffffffffffffffffffffffffffffffffffff9384167fffffffffffffffffffffffff00000000000000000000000000000000000000009182161790915560018054929093169116179055565b60005473ffffffffffffffffffffffffffffffffffffffff16331462000271576040517f08c379a000000000000000000000000000000000000000000000000000000000815260206004820152601e60248201527f6f6e6c7920746865204c314275696c644167656e742063616e2063616c6c0000604482015260640162000192565b600080546040517f408d26930000000000000000000000000000000000000000000000000000000081526004810185905273ffffffffffffffffffffffffffffffffffffffff9091169063408d26939060240160206040518083038186803b158015620002dd57600080fd5b505afa158015620002f2573d6000803e3d6000fd5b505050506040513d601f19601f8201168201806040525081019062000318919062000f40565b6000546040517f4dbbce2a000000000000000000000000000000000000000000000000000000008152600481018690529192508291606091829173ffffffffffffffffffffffffffffffffffffffff90911690634dbbce2a9060240160006040518083038186803b1580156200038d57600080fd5b505afa158015620003a2573d6000803e3d6000fd5b505050506040513d6000823e601f3d908101601f19168201604052620003cc9190810190620010f9565b8092508193505050600083868484604051620003e89062000e98565b620003f7949392919062001277565b604051809103906000f08015801562000414573d6000803e3d6000fd5b506040517ff2fde38b00000000000000000000000000000000000000000000000000000000815273ffffffffffffffffffffffffffffffffffffffff80831660048301529192509085169063f2fde38b90602401600060405180830381600087803b1580156200048357600080fd5b505af115801562000498573d6000803e3d6000fd5b505050508073ffffffffffffffffffffffffffffffffffffffff1663bc3a429b6040518163ffffffff1660e01b8152600401600060405180830381600087803b158015620004e557600080fd5b505af1158015620004fa573d6000803e3d6000fd5b50506040517fbf40fac100000000000000000000000000000000000000000000000000000000815260206004820152602160248201527f50726f78795f5f4f564d5f4c3143726f7373446f6d61696e4d657373656e676560448201527f720000000000000000000000000000000000000000000000000000000000000060648201526000925073ffffffffffffffffffffffffffffffffffffffff8716915063bf40fac19060840160206040518083038186803b158015620005bb57600080fd5b505afa158015620005d0573d6000803e3d6000fd5b505050506040513d601f19601f82011682018060405250810190620005f6919062000f40565b6040517fc4d66de800000000000000000000000000000000000000000000000000000000815273ffffffffffffffffffffffffffffffffffffffff8881166004830152919250829182169063c4d66de890602401600060405180830381600087803b1580156200066557600080fd5b505af11580156200067a573d6000803e3d6000fd5b50506040517ff2fde38b00000000000000000000000000000000000000000000000000000000815273ffffffffffffffffffffffffffffffffffffffff8b811660048301528416925063f2fde38b9150602401600060405180830381600087803b158015620006e857600080fd5b505af1158015620006fd573d6000803e3d6000fd5b50506040517fbf40fac100000000000000000000000000000000000000000000000000000000815260206004820152601b60248201527f50726f78795f5f4f564d5f4c315374616e64617264427269646765000000000060448201526000925073ffffffffffffffffffffffffffffffffffffffff8916915063bf40fac19060640160206040518083038186803b1580156200079857600080fd5b505afa158015620007ad573d6000803e3d6000fd5b505050506040513d601f19601f82011682018060405250810190620007d3919062000f40565b905060008190506000818b600160009054906101000a900473ffffffffffffffffffffffffffffffffffffffff1673ffffffffffffffffffffffffffffffffffffffff1663ca6573fb6040518163ffffffff1660e01b815260040160206040518083038186803b1580156200084757600080fd5b505afa1580156200085c573d6000803e3d6000fd5b505050506040513d601f19601f820116820180604052508101906200088291906200133a565b60405160009073ffffffffffffffffffffffffffffffffffffffff8a169060019073420000000000000000000000000000000000001090620008c49062000ea6565b73ffffffffffffffffffffffffffffffffffffffff978816815296909516602087015260408601939093526060850191909152608084015260a083015260c082015260e001604051809103906000f08015801562000926573d6000803e3d6000fd5b506040517f13af403500000000000000000000000000000000000000000000000000000000815273ffffffffffffffffffffffffffffffffffffffff8083166004830152919250908316906313af403590602401600060405180830381600087803b1580156200099557600080fd5b505af1158015620009aa573d6000803e3d6000fd5b505050508073ffffffffffffffffffffffffffffffffffffffff16630bf56f21600160009054906101000a900473ffffffffffffffffffffffffffffffffffffffff1673ffffffffffffffffffffffffffffffffffffffff166332f517236040518163ffffffff1660e01b815260040160006040518083038186803b15801562000a3357600080fd5b505afa15801562000a48573d6000803e3d6000fd5b505050506040513d6000823e601f3d908101601f1916820160405262000a72919081019062001354565b6040518263ffffffff1660e01b815260040162000a909190620013aa565b600060405180830381600087803b15801562000aab57600080fd5b505af115801562000ac0573d6000803e3d6000fd5b50506040517fbf40fac100000000000000000000000000000000000000000000000000000000815260206004820152601960248201527f50726f78795f5f4f564d5f4c314552433732314272696467650000000000000060448201526000925073ffffffffffffffffffffffffffffffffffffffff8c16915063bf40fac19060640160206040518083038186803b15801562000b5b57600080fd5b505afa15801562000b70573d6000803e3d6000fd5b505050506040513d601f19601f8201168201806040525081019062000b96919062000f40565b905060008190506000818e600160009054906101000a900473ffffffffffffffffffffffffffffffffffffffff1673ffffffffffffffffffffffffffffffffffffffff16630d1eb6466040518163ffffffff1660e01b815260040160206040518083038186803b15801562000c0a57600080fd5b505afa15801562000c1f573d6000803e3d6000fd5b505050506040513d601f19601f8201168201806040525081019062000c4591906200133a565b60405160009073ffffffffffffffffffffffffffffffffffffffff8d16906001907362000000000000000000000000000000000000019062000c879062000ea6565b73ffffffffffffffffffffffffffffffffffffffff978816815296909516602087015260408601939093526060850191909152608084015260a083015260c082015260e001604051809103906000f08015801562000ce9573d6000803e3d6000fd5b506040517f13af403500000000000000000000000000000000000000000000000000000000815273ffffffffffffffffffffffffffffffffffffffff8083166004830152919250908316906313af403590602401600060405180830381600087803b15801562000d5857600080fd5b505af115801562000d6d573d6000803e3d6000fd5b505050508073ffffffffffffffffffffffffffffffffffffffff16630bf56f21600160009054906101000a900473ffffffffffffffffffffffffffffffffffffffff1673ffffffffffffffffffffffffffffffffffffffff166335f7317c6040518163ffffffff1660e01b815260040160006040518083038186803b15801562000df657600080fd5b505afa15801562000e0b573d6000803e3d6000fd5b505050506040513d6000823e601f3d908101601f1916820160405262000e35919081019062001354565b6040518263ffffffff1660e01b815260040162000e539190620013aa565b600060405180830381600087803b15801562000e6e57600080fd5b505af115801562000e83573d6000803e3d6000fd5b50505050505050505050505050505050505050565b610d5e80620013c083390190565b610883806200211e83390190565b73ffffffffffffffffffffffffffffffffffffffff8116811462000ed757600080fd5b50565b6000806040838503121562000eee57600080fd5b823562000efb8162000eb4565b9150602083013562000f0d8162000eb4565b809150509250929050565b6000806040838503121562000f2c57600080fd5b82359150602083013562000f0d8162000eb4565b60006020828403121562000f5357600080fd5b815162000f608162000eb4565b9392505050565b7f4e487b7100000000000000000000000000000000000000000000000000000000600052604160045260246000fd5b604051601f8201601f1916810167ffffffffffffffff8111828210171562000fc25762000fc262000f67565b604052919050565b600067ffffffffffffffff82111562000fe75762000fe762000f67565b5060051b60200190565b60005b838110156200100e57818101518382015260200162000ff4565b838111156200101e576000848401525b50505050565b600067ffffffffffffffff83111562001041576200104162000f67565b620010566020601f19601f8601160162000f96565b90508281528383830111156200106b57600080fd5b62000f6083602083018462000ff1565b600082601f8301126200108d57600080fd5b81516020620010a6620010a08362000fca565b62000f96565b82815260059290921b84018101918181019086841115620010c657600080fd5b8286015b84811015620010ee578051620010e08162000eb4565b8352918301918301620010ca565b509695505050505050565b60008060408084860312156200110e57600080fd5b835167ffffffffffffffff808211156200112757600080fd5b818601915086601f8301126200113c57600080fd5b815160206200114f620010a08362000fca565b82815260059290921b8401810191818101908a8411156200116f57600080fd5b8286015b84811015620011c1578051868111156200118d5760008081fd5b8701603f81018d13620011a05760008081fd5b620011b28d868301518b840162001024565b84525091830191830162001173565b5091890151919750909450505080831115620011dc57600080fd5b5050620011ec858286016200107b565b9150509250929050565b600081518084526200121081602086016020860162000ff1565b601f01601f19169290920160200192915050565b600081518084526020808501945080840160005b838110156200126c57815173ffffffffffffffffffffffffffffffffffffffff168752958201959082019060010162001238565b509495945050505050565b60006080820173ffffffffffffffffffffffffffffffffffffffff808816845260208188168186015260806040860152829150865180845260a08601925060a08160051b870101935081880160005b8281101562001316577fffffffffffffffffffffffffffffffffffffffffffffffffffffffffffffff6088870301855262001303868351620011f6565b95509383019390830190600101620012c6565b505050505082810360608401526200132f818562001224565b979650505050505050565b6000602082840312156200134d57600080fd5b5051919050565b6000602082840312156200136757600080fd5b815167ffffffffffffffff8111156200137f57600080fd5b8201601f810184136200139157600080fd5b620013a28482516020840162001024565b949350505050565b60208152600062000f606020830184620011f656fe60806040523480156200001157600080fd5b5060405162000d5e38038062000d5e83398101604081905262000034916200037a565b600080546001600160a01b038087166001600160a01b03199283161790925560018054928616929091169190911790558051825114620000ee5760405162461bcd60e51b815260206004820152604560248201527f416464726573734469637461746f723a204d7573742070726f7669646520616e60448201527f20657175616c206e756d626572206f66206e616d657320616e6420616464726560648201526439b9b2b99760d91b608482015260a40160405180910390fd5b60005b8251811015620001c357600260405180604001604052808584815181106200011d576200011d62000505565b602002602001015181526020018484815181106200013f576200013f62000505565b6020908102919091018101516001600160a01b0316909152825460018101845560009384529281902082518051939460020290910192620001849284920190620001ce565b5060209190910151600190910180546001600160a01b0319166001600160a01b0390921691909117905580620001ba816200051b565b915050620000f1565b505050505062000582565b828054620001dc9062000545565b90600052602060002090601f0160209004810192826200020057600085556200024b565b82601f106200021b57805160ff19168380011785556200024b565b828001600101855582156200024b579182015b828111156200024b5782518255916020019190600101906200022e565b50620002599291506200025d565b5090565b5b808211156200025957600081556001016200025e565b6001600160a01b03811681146200028a57600080fd5b50565b634e487b7160e01b600052604160045260246000fd5b604051601f8201601f191681016001600160401b0381118282101715620002ce57620002ce6200028d565b604052919050565b60006001600160401b03821115620002f257620002f26200028d565b5060051b60200190565b600082601f8301126200030e57600080fd5b81516020620003276200032183620002d6565b620002a3565b82815260059290921b840181019181810190868411156200034757600080fd5b8286015b848110156200036f578051620003618162000274565b83529183019183016200034b565b509695505050505050565b600080600080608085870312156200039157600080fd5b84516200039e8162000274565b80945050602080860151620003b38162000274565b60408701519094506001600160401b0380821115620003d157600080fd5b818801915088601f830112620003e657600080fd5b8151620003f76200032182620002d6565b81815260059190911b8301840190848101908b8311156200041757600080fd5b8585015b83811015620004ce57805185811115620004355760008081fd5b8601603f81018e13620004485760008081fd5b87810151868111156200045f576200045f6200028d565b62000473601f8201601f19168a01620002a3565b8181528f60408385010111156200048a5760008081fd5b60005b82811015620004ab57838101604001518282018c01528a016200048d565b82811115620004bd5760008b84840101525b50855250509186019186016200041b565b5060608b01519097509450505080831115620004e957600080fd5b5050620004f987828801620002fc565b91505092959194509250565b634e487b7160e01b600052603260045260246000fd5b60006000198214156200053e57634e487b7160e01b600052601160045260246000fd5b5060010190565b600181811c908216806200055a57607f821691505b602082108114156200057c57634e487b7160e01b600052602260045260246000fd5b50919050565b6107cc80620005926000396000f3fe608060405234801561001057600080fd5b50600436106100675760003560e01c80633ccad6fc116100505780633ccad6fc146100c0578063481c6a75146100d5578063bc3a429b146100f557600080fd5b806317ad94ec1461006c578063297d1a34146100b6575b600080fd5b60015461008c9073ffffffffffffffffffffffffffffffffffffffff1681565b60405173ffffffffffffffffffffffffffffffffffffffff90911681526020015b60405180910390f35b6100be6100fd565b005b6100c8610232565b6040516100ad91906104af565b60005461008c9073ffffffffffffffffffffffffffffffffffffffff1681565b6100be610343565b60015473ffffffffffffffffffffffffffffffffffffffff1633146101a8576040517f08c379a000000000000000000000000000000000000000000000000000000000815260206004820152602c60248201527f416464726573734469637461746f723a206f6e6c792063616c6c61626c65206260448201527f792066696e616c4f776e65720000000000000000000000000000000000000000606482015260840160405180910390fd5b6000546001546040517ff2fde38b00000000000000000000000000000000000000000000000000000000815273ffffffffffffffffffffffffffffffffffffffff918216600482015291169063f2fde38b906024015b600060405180830381600087803b15801561021857600080fd5b505af115801561022c573d6000803e3d6000fd5b50505050565b60606002805480602002602001604051908101604052809291908181526020016000905b8282101561033a5783829060005260206000209060020201604051806040016040529081600082018054610289906105ae565b80601f01602080910402602001604051908101604052809291908181526020018280546102b5906105ae565b80156103025780601f106102d757610100808354040283529160200191610302565b820191906000526020600020905b8154815290600101906020018083116102e557829003601f168201915b505050918352505060019182015473ffffffffffffffffffffffffffffffffffffffff16602091820152918352929092019101610256565b50505050905090565b60005b600254811015610454576000546002805473ffffffffffffffffffffffffffffffffffffffff90921691639b2ea4bd91908490811061038757610387610602565b9060005260206000209060020201600001600284815481106103ab576103ab610602565b60009182526020909120600160029092020101546040517fffffffff0000000000000000000000000000000000000000000000000000000060e085901b16815261040f929173ffffffffffffffffffffffffffffffffffffffff1690600401610631565b600060405180830381600087803b15801561042957600080fd5b505af115801561043d573d6000803e3d6000fd5b50505050808061044c90610736565b915050610346565b506000546001546040517ff2fde38b00000000000000000000000000000000000000000000000000000000815273ffffffffffffffffffffffffffffffffffffffff918216600482015291169063f2fde38b906024016101fe565b60006020808301818452808551808352604092508286019150828160051b8701018488016000805b8481101561059f577fffffffffffffffffffffffffffffffffffffffffffffffffffffffffffffffc08a8503018652825180518886528051808a880152845b81811015610532578281018c0151888201606001528b01610516565b8181111561054357856060838a0101525b50918a015173ffffffffffffffffffffffffffffffffffffffff16868b01525095880195601f017fffffffffffffffffffffffffffffffffffffffffffffffffffffffffffffffe01690930160600192918701916001016104d7565b50919998505050505050505050565b600181811c908216806105c257607f821691505b602082108114156105fc577f4e487b7100000000000000000000000000000000000000000000000000000000600052602260045260246000fd5b50919050565b7f4e487b7100000000000000000000000000000000000000000000000000000000600052603260045260246000fd5b60408152600080845481600182811c91508083168061065157607f831692505b602080841082141561068a577f4e487b710000000000000000000000000000000000000000000000000000000086526022600452602486fd5b60408801849052606088018280156106a957600181146106d857610703565b7fffffffffffffffffffffffffffffffffffffffffffffffffffffffffffffff00871682528282019750610703565b60008c81526020902060005b878110156106fd578154848201529086019084016106e4565b83019850505b50508596506107298189018a73ffffffffffffffffffffffffffffffffffffffff169052565b5050505050509392505050565b60007fffffffffffffffffffffffffffffffffffffffffffffffffffffffffffffffff82141561078f577f4e487b7100000000000000000000000000000000000000000000000000000000600052601160045260246000fd5b506001019056fea26469706673582212207993fbd341ec4f9e20c9ca42c43294b14f2a103fa8da10fc05d197e3abc8766164736f6c6343000809003360806040526000805460ff1916600117905534801561001d57600080fd5b5060405161088338038061088383398101604081905261003c916100a8565b60008054610100600160a81b0319166101006001600160a01b03998a1602179055600180546001600160a01b031916969097169590951790955560029290925560035560045560059190915560065561010f565b6001600160a01b03811681146100a557600080fd5b50565b600080600080600080600060e0888a0312156100c357600080fd5b87516100ce81610090565b60208901519097506100df81610090565b604089015160608a015160808b015160a08c015160c0909c01519a9d939c50919a90999198509650945092505050565b6107658061011e6000396000f3fe608060405234801561001057600080fd5b50600436106100be5760003560e01c8063708518de11610076578063a3b2d8a51161005b578063a3b2d8a51461015c578063b794726214610165578063d4b839921461018257600080fd5b8063708518de1461014a578063907023dd1461015357600080fd5b806318edaaf2116100a757806318edaaf214610122578063297d1a34146101395780635307023b1461014157600080fd5b80630bf56f21146100c357806317ad94ec146100d8575b600080fd5b6100d66100d13660046105ed565b6101a7565b005b6001546100f89073ffffffffffffffffffffffffffffffffffffffff1681565b60405173ffffffffffffffffffffffffffffffffffffffff90911681526020015b60405180910390f35b61012b60025481565b604051908152602001610119565b6100d6610489565b61012b60045481565b61012b60035481565b61012b60065481565b61012b60055481565b6000546101729060ff1681565b6040519015158152602001610119565b6000546100f890610100900473ffffffffffffffffffffffffffffffffffffffff1681565b6002548151602083012014610243576040517f08c379a000000000000000000000000000000000000000000000000000000000815260206004820152602860248201527f4368756753706c6173684469637461746f723a20496e636f727265637420636f60448201527f646520686173682e00000000000000000000000000000000000000000000000060648201526084015b60405180910390fd5b6000546040517f6c5d4ad000000000000000000000000000000000000000000000000000000000815261010090910473ffffffffffffffffffffffffffffffffffffffff1690636c5d4ad09061029d9084906004016106bc565b600060405180830381600087803b1580156102b757600080fd5b505af11580156102cb573d6000803e3d6000fd5b5050600054600354600480546040517f9b0b0fda00000000000000000000000000000000000000000000000000000000815291820192909252602481019190915261010090910473ffffffffffffffffffffffffffffffffffffffff169250639b0b0fda9150604401600060405180830381600087803b15801561034e57600080fd5b505af1158015610362573d6000803e3d6000fd5b50506000546005546006546040517f9b0b0fda0000000000000000000000000000000000000000000000000000000081526004810192909252602482015261010090910473ffffffffffffffffffffffffffffffffffffffff169250639b0b0fda9150604401600060405180830381600087803b1580156103e257600080fd5b505af11580156103f6573d6000803e3d6000fd5b50506000546001546040517f13af403500000000000000000000000000000000000000000000000000000000815273ffffffffffffffffffffffffffffffffffffffff91821660048201526101009092041692506313af40359150602401600060405180830381600087803b15801561046e57600080fd5b505af1158015610482573d6000803e3d6000fd5b5050505050565b60015473ffffffffffffffffffffffffffffffffffffffff163314610530576040517f08c379a000000000000000000000000000000000000000000000000000000000815260206004820152602f60248201527f4368756753706c6173684469637461746f723a206f6e6c792063616c6c61626c60448201527f652062792066696e616c4f776e65720000000000000000000000000000000000606482015260840161023a565b6000546001546040517f13af403500000000000000000000000000000000000000000000000000000000815273ffffffffffffffffffffffffffffffffffffffff918216600482015261010090920416906313af403590602401600060405180830381600087803b1580156105a457600080fd5b505af11580156105b8573d6000803e3d6000fd5b50505050565b7f4e487b7100000000000000000000000000000000000000000000000000000000600052604160045260246000fd5b6000602082840312156105ff57600080fd5b813567ffffffffffffffff8082111561061757600080fd5b818401915084601f83011261062b57600080fd5b81358181111561063d5761063d6105be565b604051601f82017fffffffffffffffffffffffffffffffffffffffffffffffffffffffffffffffe0908116603f01168101908382118183101715610683576106836105be565b8160405282815287602084870101111561069c57600080fd5b826020860160208301376000928101602001929092525095945050505050565b600060208083528351808285015260005b818110156106e9578581018301518582016040015282016106cd565b818111156106fb576000604083870101525b50601f017fffffffffffffffffffffffffffffffffffffffffffffffffffffffffffffffe01692909201604001939250505056fea2646970667358221220d6996ebde67a73563bf52d2b5545adec064534b2fcd91ec70e83fc1ef951152464736f6c63430008090033a2646970667358221220951845e890ab9203b30da702a3968c462c24b850de19dab1f4d34df732ef8e3a64736f6c63430008090033",
  "linkReferences": {},
  "deployedLinkReferences": {}
}